{
  "contractName": "MiniMeTokenFactory",
  "abi": [
    {
      "constant": false,
      "inputs": [
        {
          "name": "_parentToken",
          "type": "address"
        },
        {
          "name": "_snapshotBlock",
          "type": "uint256"
        },
        {
          "name": "_tokenName",
          "type": "string"
        },
        {
          "name": "_decimalUnits",
          "type": "uint8"
        },
        {
          "name": "_tokenSymbol",
          "type": "string"
        },
        {
          "name": "_transfersEnabled",
          "type": "bool"
        }
      ],
      "name": "createCloneToken",
      "outputs": [
        {
          "name": "",
          "type": "address"
        }
      ],
      "payable": false,
      "stateMutability": "nonpayable",
      "type": "function"
    }
  ],
  "bytecode": "0x6060604052341561000f57600080fd5b612cca8061001e6000396000f300606060405260043610610041576000357c0100000000000000000000000000000000000000000000000000000000900463ffffffff1680635b7b72c114610046575b600080fd5b341561005157600080fd5b610123600480803573ffffffffffffffffffffffffffffffffffffffff1690602001909190803590602001909190803590602001908201803590602001908080601f0160208091040260200160405190810160405280939291908181526020018383808284378201915050505050509190803560ff1690602001909190803590602001908201803590602001908080601f016020809104026020016040519081016040528093929190818152602001838380828437820191505050505050919080351515906020019091905050610165565b604051808273ffffffffffffffffffffffffffffffffffffffff1673ffffffffffffffffffffffffffffffffffffffff16815260200191505060405180910390f35b600080308888888888886101776103ab565b808873ffffffffffffffffffffffffffffffffffffffff1673ffffffffffffffffffffffffffffffffffffffff1681526020018773ffffffffffffffffffffffffffffffffffffffff1673ffffffffffffffffffffffffffffffffffffffff168152602001868152602001806020018560ff1660ff1681526020018060200184151515158152602001838103835287818151815260200191508051906020019080838360005b8381101561023857808201518184015260208101905061021d565b50505050905090810190601f1680156102655780820380516001836020036101000a031916815260200191505b50838103825285818151815260200191508051906020019080838360005b8381101561029e578082015181840152602081019050610283565b50505050905090810190601f1680156102cb5780820380516001836020036101000a031916815260200191505b509950505050505050505050604051809103906000f08015156102ed57600080fd5b90508073ffffffffffffffffffffffffffffffffffffffff16633cebb823336040518263ffffffff167c0100000000000000000000000000000000000000000000000000000000028152600401808273ffffffffffffffffffffffffffffffffffffffff1673ffffffffffffffffffffffffffffffffffffffff168152602001915050600060405180830381600087803b151561038957600080fd5b6102c65a03f1151561039a57600080fd5b505050809150509695505050505050565b6040516128e3806103bc83390190560060606040526040805190810160405280600781526020017f4d4d545f302e32000000000000000000000000000000000000000000000000008152506004908051906020019062000051929190620001f9565b5034156200005e57600080fd5b604051620028e3380380620028e383398101604052808051906020019091908051906020019091908051906020019091908051820191906020018051906020019091908051820191906020018051906020019091905050336000806101000a81548173ffffffffffffffffffffffffffffffffffffffff021916908373ffffffffffffffffffffffffffffffffffffffff16021790555086600b60016101000a81548173ffffffffffffffffffffffffffffffffffffffff021916908373ffffffffffffffffffffffffffffffffffffffff16021790555083600190805190602001906200014e929190620001f9565b5082600260006101000a81548160ff021916908360ff160217905550816003908051906020019062000182929190620001f9565b5085600560006101000a81548173ffffffffffffffffffffffffffffffffffffffff021916908373ffffffffffffffffffffffffffffffffffffffff1602179055508460068190555080600b60006101000a81548160ff0219169083151502179055504360078190555050505050505050620002a8565b828054600181600116156101000203166002900490600052602060002090601f016020900481019282601f106200023c57805160ff19168380011785556200026d565b828001600101855582156200026d579182015b828111156200026c5782518255916020019190600101906200024f565b5b5090506200027c919062000280565b5090565b620002a591905b80821115620002a157600081600090555060010162000287565b5090565b90565b61262b80620002b86000396000f300606060405260043610610149576000357c0100000000000000000000000000000000000000000000000000000000900463ffffffff16806306fdde031461014b578063095ea7b3146101d9578063176345141461023357806318160ddd1461025c57806323b872dd14610285578063313ce567146102fe5780633cebb8231461032d5780634ee2cd7e1461036657806354fd4d50146103bc5780636638c0871461044a57806370a082311461054a57806380a5400114610597578063827f32c0146105ec57806395d89b4114610646578063981b24d0146106d4578063a9059cbb1461070b578063bef97c8714610765578063c5bcc4f114610792578063cae9ca51146107bb578063d3ce77fe14610858578063dd62ed3e146108b2578063df8de3e71461091e578063e77772fe14610957578063f41e60c5146109ac578063f77c4791146109d1575b005b341561015657600080fd5b61015e610a26565b6040518080602001828103825283818151815260200191508051906020019080838360005b8381101561019e578082015181840152602081019050610183565b50505050905090810190601f1680156101cb5780820380516001836020036101000a031916815260200191505b509250505060405180910390f35b34156101e457600080fd5b610219600480803573ffffffffffffffffffffffffffffffffffffffff16906020019091908035906020019091905050610ac4565b604051808215151515815260200191505060405180910390f35b341561023e57600080fd5b610246610c67565b6040518082815260200191505060405180910390f35b341561026757600080fd5b61026f610c6d565b6040518082815260200191505060405180910390f35b341561029057600080fd5b6102e4600480803573ffffffffffffffffffffffffffffffffffffffff1690602001909190803573ffffffffffffffffffffffffffffffffffffffff16906020019091908035906020019091905050610c7d565b604051808215151515815260200191505060405180910390f35b341561030957600080fd5b610311610e1d565b604051808260ff1660ff16815260200191505060405180910390f35b341561033857600080fd5b610364600480803573ffffffffffffffffffffffffffffffffffffffff16906020019091905050610e30565b005b341561037157600080fd5b6103a6600480803573ffffffffffffffffffffffffffffffffffffffff16906020019091908035906020019091905050610ece565b6040518082815260200191505060405180910390f35b34156103c757600080fd5b6103cf611143565b6040518080602001828103825283818151815260200191508051906020019080838360005b8381101561040f5780820151818401526020810190506103f4565b50505050905090810190601f16801561043c5780820380516001836020036101000a031916815260200191505b509250505060405180910390f35b341561045557600080fd5b610508600480803590602001908201803590602001908080601f0160208091040260200160405190810160405280939291908181526020018383808284378201915050505050509190803560ff1690602001909190803590602001908201803590602001908080601f0160208091040260200160405190810160405280939291908181526020018383808284378201915050505050509190803590602001909190803515159060200190919050506111e1565b604051808273ffffffffffffffffffffffffffffffffffffffff1673ffffffffffffffffffffffffffffffffffffffff16815260200191505060405180910390f35b341561055557600080fd5b610581600480803573ffffffffffffffffffffffffffffffffffffffff169060200190919050506114d8565b6040518082815260200191505060405180910390f35b34156105a257600080fd5b6105aa6114eb565b604051808273ffffffffffffffffffffffffffffffffffffffff1673ffffffffffffffffffffffffffffffffffffffff16815260200191505060405180910390f35b34156105f757600080fd5b61062c600480803573ffffffffffffffffffffffffffffffffffffffff16906020019091908035906020019091905050611511565b604051808215151515815260200191505060405180910390f35b341561065157600080fd5b61065961165b565b6040518080602001828103825283818151815260200191508051906020019080838360005b8381101561069957808201518184015260208101905061067e565b50505050905090810190601f1680156106c65780820380516001836020036101000a031916815260200191505b509250505060405180910390f35b34156106df57600080fd5b6106f560048080359060200190919050506116f9565b6040518082815260200191505060405180910390f35b341561071657600080fd5b61074b600480803573ffffffffffffffffffffffffffffffffffffffff16906020019091908035906020019091905050611882565b604051808215151515815260200191505060405180910390f35b341561077057600080fd5b6107786118b2565b604051808215151515815260200191505060405180910390f35b341561079d57600080fd5b6107a56118c5565b6040518082815260200191505060405180910390f35b34156107c657600080fd5b61083e600480803573ffffffffffffffffffffffffffffffffffffffff1690602001909190803590602001909190803590602001908201803590602001908080601f016020809104026020016040519081016040528093929190818152602001838380828437820191505050505050919050506118cb565b604051808215151515815260200191505060405180910390f35b341561086357600080fd5b610898600480803573ffffffffffffffffffffffffffffffffffffffff16906020019091908035906020019091905050611a44565b604051808215151515815260200191505060405180910390f35b34156108bd57600080fd5b610908600480803573ffffffffffffffffffffffffffffffffffffffff1690602001909190803573ffffffffffffffffffffffffffffffffffffffff16906020019091905050611b8a565b6040518082815260200191505060405180910390f35b341561092957600080fd5b610955600480803573ffffffffffffffffffffffffffffffffffffffff16906020019091905050611c11565b005b341561096257600080fd5b61096a611f42565b604051808273ffffffffffffffffffffffffffffffffffffffff1673ffffffffffffffffffffffffffffffffffffffff16815260200191505060405180910390f35b34156109b757600080fd5b6109cf60048080351515906020019091905050611f68565b005b34156109dc57600080fd5b6109e4611fe0565b604051808273ffffffffffffffffffffffffffffffffffffffff1673ffffffffffffffffffffffffffffffffffffffff16815260200191505060405180910390f35b60018054600181600116156101000203166002900480601f016020809104026020016040519081016040528092919081815260200182805460018160011615610100020316600290048015610abc5780601f10610a9157610100808354040283529160200191610abc565b820191906000526020600020905b815481529060010190602001808311610a9f57829003601f168201915b505050505081565b6000600b60009054906101000a900460ff161515610ae157600080fd5b6000821480610b6c57506000600960003373ffffffffffffffffffffffffffffffffffffffff1673ffffffffffffffffffffffffffffffffffffffff16815260200190815260200160002060008573ffffffffffffffffffffffffffffffffffffffff1673ffffffffffffffffffffffffffffffffffffffff16815260200190815260200160002054145b1515610b7757600080fd5b81600960003373ffffffffffffffffffffffffffffffffffffffff1673ffffffffffffffffffffffffffffffffffffffff16815260200190815260200160002060008573ffffffffffffffffffffffffffffffffffffffff1673ffffffffffffffffffffffffffffffffffffffff168152602001908152602001600020819055508273ffffffffffffffffffffffffffffffffffffffff163373ffffffffffffffffffffffffffffffffffffffff167f8c5be1e5ebec7d5bd14f71427d1e84f3dd0314c0f7b2291e5b200ac8c7c3b925846040518082815260200191505060405180910390a36001905092915050565b60075481565b6000610c78436116f9565b905090565b60008060009054906101000a900473ffffffffffffffffffffffffffffffffffffffff1673ffffffffffffffffffffffffffffffffffffffff163373ffffffffffffffffffffffffffffffffffffffff16141515610e0857600b60009054906101000a900460ff161515610cf057600080fd5b81600960008673ffffffffffffffffffffffffffffffffffffffff1673ffffffffffffffffffffffffffffffffffffffff16815260200190815260200160002060003373ffffffffffffffffffffffffffffffffffffffff1673ffffffffffffffffffffffffffffffffffffffff168152602001908152602001600020541015610d7d5760009050610e16565b81600960008673ffffffffffffffffffffffffffffffffffffffff1673ffffffffffffffffffffffffffffffffffffffff16815260200190815260200160002060003373ffffffffffffffffffffffffffffffffffffffff1673ffffffffffffffffffffffffffffffffffffffff168152602001908152602001600020600082825403925050819055505b610e13848484612005565b90505b9392505050565b600260009054906101000a900460ff1681565b6000809054906101000a900473ffffffffffffffffffffffffffffffffffffffff1673ffffffffffffffffffffffffffffffffffffffff163373ffffffffffffffffffffffffffffffffffffffff16141515610e8b57600080fd5b806000806101000a81548173ffffffffffffffffffffffffffffffffffffffff021916908373ffffffffffffffffffffffffffffffffffffffff16021790555050565b600080600860008573ffffffffffffffffffffffffffffffffffffffff1673ffffffffffffffffffffffffffffffffffffffff168152602001908152602001600020805490501480610fa8575081600860008573ffffffffffffffffffffffffffffffffffffffff1673ffffffffffffffffffffffffffffffffffffffff1681526020019081526020016000206000815481101515610f6957fe5b906000526020600020900160000160009054906101000a90046fffffffffffffffffffffffffffffffff166fffffffffffffffffffffffffffffffff16115b156110f2576000600560009054906101000a900473ffffffffffffffffffffffffffffffffffffffff1673ffffffffffffffffffffffffffffffffffffffff161415156110e957600560009054906101000a900473ffffffffffffffffffffffffffffffffffffffff1673ffffffffffffffffffffffffffffffffffffffff16634ee2cd7e8461103a856006546121ca565b6000604051602001526040518363ffffffff167c0100000000000000000000000000000000000000000000000000000000028152600401808373ffffffffffffffffffffffffffffffffffffffff1673ffffffffffffffffffffffffffffffffffffffff16815260200182815260200192505050602060405180830381600087803b15156110c757600080fd5b6102c65a03f115156110d857600080fd5b50505060405180519050905061113d565b6000905061113d565b61113a600860008573ffffffffffffffffffffffffffffffffffffffff1673ffffffffffffffffffffffffffffffffffffffff168152602001908152602001600020836121e3565b90505b92915050565b60048054600181600116156101000203166002900480601f0160208091040260200160405190810160405280929190818152602001828054600181600116156101000203166002900480156111d95780601f106111ae576101008083540402835291602001916111d9565b820191906000526020600020905b8154815290600101906020018083116111bc57829003601f168201915b505050505081565b60008060008414156111f1574393505b600b60019054906101000a900473ffffffffffffffffffffffffffffffffffffffff1673ffffffffffffffffffffffffffffffffffffffff16635b7b72c130868a8a8a896000604051602001526040518763ffffffff167c0100000000000000000000000000000000000000000000000000000000028152600401808773ffffffffffffffffffffffffffffffffffffffff1673ffffffffffffffffffffffffffffffffffffffff168152602001868152602001806020018560ff1660ff1681526020018060200184151515158152602001838103835287818151815260200191508051906020019080838360005b838110156112fb5780820151818401526020810190506112e0565b50505050905090810190601f1680156113285780820380516001836020036101000a031916815260200191505b50838103825285818151815260200191508051906020019080838360005b83811015611361578082015181840152602081019050611346565b50505050905090810190601f16801561138e5780820380516001836020036101000a031916815260200191505b5098505050505050505050602060405180830381600087803b15156113b257600080fd5b6102c65a03f115156113c357600080fd5b5050506040518051905090508073ffffffffffffffffffffffffffffffffffffffff16633cebb823336040518263ffffffff167c0100000000000000000000000000000000000000000000000000000000028152600401808273ffffffffffffffffffffffffffffffffffffffff1673ffffffffffffffffffffffffffffffffffffffff168152602001915050600060405180830381600087803b151561146957600080fd5b6102c65a03f1151561147a57600080fd5b5050508073ffffffffffffffffffffffffffffffffffffffff167f086c875b377f900b07ce03575813022f05dd10ed7640b5282cf6d3c3fc352ade856040518082815260200191505060405180910390a28091505095945050505050565b60006114e48243610ece565b9050919050565b600560009054906101000a900473ffffffffffffffffffffffffffffffffffffffff1681565b60008060008060009054906101000a900473ffffffffffffffffffffffffffffffffffffffff1673ffffffffffffffffffffffffffffffffffffffff163373ffffffffffffffffffffffffffffffffffffffff1614151561157157600080fd5b611579610c6d565b9150818483011015151561158c57600080fd5b611595856114d8565b905080848201101515156115a857600080fd5b6115b5600a8584016123f7565b6115ff600860008773ffffffffffffffffffffffffffffffffffffffff1673ffffffffffffffffffffffffffffffffffffffff1681526020019081526020016000208583016123f7565b8473ffffffffffffffffffffffffffffffffffffffff1660007fddf252ad1be2c89b69c2b068fc378daa952ba7f163c4a11628f55a4df523b3ef866040518082815260200191505060405180910390a360019250505092915050565b60038054600181600116156101000203166002900480601f0160208091040260200160405190810160405280929190818152602001828054600181600116156101000203166002900480156116f15780601f106116c6576101008083540402835291602001916116f1565b820191906000526020600020905b8154815290600101906020018083116116d457829003601f168201915b505050505081565b600080600a805490501480611759575081600a600081548110151561171a57fe5b906000526020600020900160000160009054906101000a90046fffffffffffffffffffffffffffffffff166fffffffffffffffffffffffffffffffff16115b1561186f576000600560009054906101000a900473ffffffffffffffffffffffffffffffffffffffff1673ffffffffffffffffffffffffffffffffffffffff1614151561186657600560009054906101000a900473ffffffffffffffffffffffffffffffffffffffff1673ffffffffffffffffffffffffffffffffffffffff1663981b24d06117ea846006546121ca565b6000604051602001526040518263ffffffff167c010000000000000000000000000000000000000000000000000000000002815260040180828152602001915050602060405180830381600087803b151561184457600080fd5b6102c65a03f1151561185557600080fd5b50505060405180519050905061187d565b6000905061187d565b61187a600a836121e3565b90505b919050565b6000600b60009054906101000a900460ff16151561189f57600080fd5b6118aa338484612005565b905092915050565b600b60009054906101000a900460ff1681565b60065481565b60006118d78484610ac4565b15156118e257600080fd5b8373ffffffffffffffffffffffffffffffffffffffff16638f4ffcb1338530866040518563ffffffff167c0100000000000000000000000000000000000000000000000000000000028152600401808573ffffffffffffffffffffffffffffffffffffffff1673ffffffffffffffffffffffffffffffffffffffff1681526020018481526020018373ffffffffffffffffffffffffffffffffffffffff1673ffffffffffffffffffffffffffffffffffffffff16815260200180602001828103825283818151815260200191508051906020019080838360005b838110156119d75780820151818401526020810190506119bc565b50505050905090810190601f168015611a045780820380516001836020036101000a031916815260200191505b5095505050505050600060405180830381600087803b1515611a2557600080fd5b6102c65a03f11515611a3657600080fd5b505050600190509392505050565b60008060008060009054906101000a900473ffffffffffffffffffffffffffffffffffffffff1673ffffffffffffffffffffffffffffffffffffffff163373ffffffffffffffffffffffffffffffffffffffff16141515611aa457600080fd5b611aac610c6d565b9150838210151515611abd57600080fd5b611ac6856114d8565b9050838110151515611ad757600080fd5b611ae4600a8584036123f7565b611b2e600860008773ffffffffffffffffffffffffffffffffffffffff1673ffffffffffffffffffffffffffffffffffffffff1681526020019081526020016000208583036123f7565b60008573ffffffffffffffffffffffffffffffffffffffff167fddf252ad1be2c89b69c2b068fc378daa952ba7f163c4a11628f55a4df523b3ef866040518082815260200191505060405180910390a360019250505092915050565b6000600960008473ffffffffffffffffffffffffffffffffffffffff1673ffffffffffffffffffffffffffffffffffffffff16815260200190815260200160002060008373ffffffffffffffffffffffffffffffffffffffff1673ffffffffffffffffffffffffffffffffffffffff16815260200190815260200160002054905092915050565b6000806000809054906101000a900473ffffffffffffffffffffffffffffffffffffffff1673ffffffffffffffffffffffffffffffffffffffff163373ffffffffffffffffffffffffffffffffffffffff16141515611c6f57600080fd5b60008373ffffffffffffffffffffffffffffffffffffffff161415611d0b576000809054906101000a900473ffffffffffffffffffffffffffffffffffffffff1673ffffffffffffffffffffffffffffffffffffffff166108fc3073ffffffffffffffffffffffffffffffffffffffff16319081150290604051600060405180830381858888f193505050501515611d0657600080fd5b611f3d565b8291508173ffffffffffffffffffffffffffffffffffffffff166370a08231306000604051602001526040518263ffffffff167c0100000000000000000000000000000000000000000000000000000000028152600401808273ffffffffffffffffffffffffffffffffffffffff1673ffffffffffffffffffffffffffffffffffffffff168152602001915050602060405180830381600087803b1515611db157600080fd5b6102c65a03f11515611dc257600080fd5b5050506040518051905090508173ffffffffffffffffffffffffffffffffffffffff1663a9059cbb6000809054906101000a900473ffffffffffffffffffffffffffffffffffffffff16836000604051602001526040518363ffffffff167c0100000000000000000000000000000000000000000000000000000000028152600401808373ffffffffffffffffffffffffffffffffffffffff1673ffffffffffffffffffffffffffffffffffffffff16815260200182815260200192505050602060405180830381600087803b1515611e9a57600080fd5b6102c65a03f11515611eab57600080fd5b50505060405180519050506000809054906101000a900473ffffffffffffffffffffffffffffffffffffffff1673ffffffffffffffffffffffffffffffffffffffff168373ffffffffffffffffffffffffffffffffffffffff167ff931edb47c50b4b4104c187b5814a9aef5f709e17e2ecf9617e860cacade929c836040518082815260200191505060405180910390a35b505050565b600b60019054906101000a900473ffffffffffffffffffffffffffffffffffffffff1681565b6000809054906101000a900473ffffffffffffffffffffffffffffffffffffffff1673ffffffffffffffffffffffffffffffffffffffff163373ffffffffffffffffffffffffffffffffffffffff16141515611fc357600080fd5b80600b60006101000a81548160ff02191690831515021790555050565b6000809054906101000a900473ffffffffffffffffffffffffffffffffffffffff1681565b60008060008084141561201b57600192506121c1565b4360065410151561202b57600080fd5b60008573ffffffffffffffffffffffffffffffffffffffff161415801561207e57503073ffffffffffffffffffffffffffffffffffffffff168573ffffffffffffffffffffffffffffffffffffffff1614155b151561208957600080fd5b6120938643610ece565b9150838210156120a657600092506121c1565b6120f0600860008873ffffffffffffffffffffffffffffffffffffffff1673ffffffffffffffffffffffffffffffffffffffff1681526020019081526020016000208584036123f7565b6120fa8543610ece565b9050808482011015151561210d57600080fd5b612157600860008773ffffffffffffffffffffffffffffffffffffffff1673ffffffffffffffffffffffffffffffffffffffff1681526020019081526020016000208583016123f7565b8473ffffffffffffffffffffffffffffffffffffffff168673ffffffffffffffffffffffffffffffffffffffff167fddf252ad1be2c89b69c2b068fc378daa952ba7f163c4a11628f55a4df523b3ef866040518082815260200191505060405180910390a3600192505b50509392505050565b60008183106121d957816121db565b825b905092915050565b6000806000806000868054905014156121ff57600093506123ee565b85600187805490500381548110151561221457fe5b906000526020600020900160000160009054906101000a90046fffffffffffffffffffffffffffffffff166fffffffffffffffffffffffffffffffff16851015156122b25785600187805490500381548110151561226e57fe5b906000526020600020900160000160109054906101000a90046fffffffffffffffffffffffffffffffff166fffffffffffffffffffffffffffffffff1693506123ee565b8560008154811015156122c157fe5b906000526020600020900160000160009054906101000a90046fffffffffffffffffffffffffffffffff166fffffffffffffffffffffffffffffffff1685101561230e57600093506123ee565b60009250600186805490500391505b828211156123a057600260018484010181151561233657fe5b04905084868281548110151561234857fe5b906000526020600020900160000160009054906101000a90046fffffffffffffffffffffffffffffffff166fffffffffffffffffffffffffffffffff161115156123945780925061239b565b6001810391505b61231d565b85838154811015156123ae57fe5b906000526020600020900160000160109054906101000a90046fffffffffffffffffffffffffffffffff166fffffffffffffffffffffffffffffffff1693505b50505092915050565b60008060008480549050148061245d57504384600186805490500381548110151561241e57fe5b906000526020600020900160000160009054906101000a90046fffffffffffffffffffffffffffffffff166fffffffffffffffffffffffffffffffff16105b1561250a5783848054809190600101612476919061256e565b81548110151561248257fe5b90600052602060002090019150438260000160006101000a8154816fffffffffffffffffffffffffffffffff02191690836fffffffffffffffffffffffffffffffff160217905550828260000160106101000a8154816fffffffffffffffffffffffffffffffff02191690836fffffffffffffffffffffffffffffffff160217905550612568565b83600185805490500381548110151561251f57fe5b90600052602060002090019050828160000160106101000a8154816fffffffffffffffffffffffffffffffff02191690836fffffffffffffffffffffffffffffffff1602179055505b50505050565b81548183558181151161259557818360005260206000209182019101612594919061259a565b5b505050565b6125fc91905b808211156125f857600080820160006101000a8154906fffffffffffffffffffffffffffffffff02191690556000820160106101000a8154906fffffffffffffffffffffffffffffffff0219169055506001016125a0565b5090565b905600a165627a7a72305820f8463c6e9d1f02ddb9002666d6871f474ca98788d92e756baac2c04f1ca0b4c50029a165627a7a72305820ff3683db64d976816fd2641bddd78e6b88d135a3566798ffb6ff3a5240d92a1c0029",
  "source": "pragma solidity 0.4.18;\n\n/*\n    Copyright 2016, Jordi Baylina\n\n    This program is free software: you can redistribute it and/or modify\n    it under the terms of the GNU General Public License as published by\n    the Free Software Foundation, either version 3 of the License, or\n    (at your option) any later version.\n\n    This program is distributed in the hope that it will be useful,\n    but WITHOUT ANY WARRANTY; without even the implied warranty of\n    MERCHANTABILITY or FITNESS FOR A PARTICULAR PURPOSE.  See the\n    GNU General Public License for more details.\n\n    You should have received a copy of the GNU General Public License\n    along with this program.  If not, see <http://www.gnu.org/licenses/>.\n */\n\n/// @title MiniMeToken Contract\n/// @author Jordi Baylina\n/// @dev This token contract's goal is to make it easy for anyone to clone this\n///  token using the token distribution at a given block, this will allow DAO's\n///  and DApps to upgrade their features in a decentralized manner without\n///  affecting the original token\n/// @dev It is ERC20 compliant, but still needs to under go further testing.\n\nimport \"./Controlled.sol\";\n\ncontract ApproveAndCallFallBack {\n    function receiveApproval(address from, uint256 _amount, address _token, bytes _data) public;\n}\n\n/// @dev The actual token contract, the default controller is the msg.sender\n///  that deploys the contract, so usually this token will be deployed by a\n///  token controller contract, which Giveth will call a \"Campaign\"\ncontract MiniMeToken is Controlled {\n\n    string public name;                //The Token's name: e.g. DigixDAO Tokens\n    uint8 public decimals;             //Number of decimals of the smallest unit\n    string public symbol;              //An identifier: e.g. REP\n    string public version = 'MMT_0.2'; //An arbitrary versioning scheme\n\n\n    /// @dev `Checkpoint` is the structure that attaches a block number to a\n    ///  given value, the block number attached is the one that last changed the\n    ///  value\n    struct  Checkpoint {\n\n        // `fromBlock` is the block number that the value was generated from\n        uint128 fromBlock;\n\n        // `value` is the amount of tokens at a specific block number\n        uint128 value;\n    }\n\n    // `parentToken` is the Token address that was cloned to produce this token;\n    //  it will be 0x0 for a token that was not cloned\n    MiniMeToken public parentToken;\n\n    // `parentSnapShotBlock` is the block number from the Parent Token that was\n    //  used to determine the initial distribution of the Clone Token\n    uint public parentSnapShotBlock;\n\n    // `creationBlock` is the block number that the Clone Token was created\n    uint public creationBlock;\n\n    // `balances` is the map that tracks the balance of each address, in this\n    //  contract when the balance changes the block number that the change\n    //  occurred is also included in the map\n    mapping (address => Checkpoint[]) balances;\n\n    // `allowed` tracks any extra transfer rights as in all ERC20 tokens\n    mapping (address => mapping (address => uint256)) allowed;\n\n    // Tracks the history of the `totalSupply` of the token\n    Checkpoint[] totalSupplyHistory;\n\n    // Flag that determines if the token is transferable or not.\n    bool public transfersEnabled;\n\n    // The factory used to create new clone tokens\n    MiniMeTokenFactory public tokenFactory;\n\n////////////////\n// Constructor\n////////////////\n\n    /// @notice Constructor to create a MiniMeToken\n    /// @param _tokenFactory The address of the MiniMeTokenFactory contract that\n    ///  will create the Clone token contracts, the token factory needs to be\n    ///  deployed first\n    /// @param _parentToken Address of the parent token, set to 0x0 if it is a\n    ///  new token\n    /// @param _parentSnapShotBlock Block of the parent token that will\n    ///  determine the initial distribution of the clone token, set to 0 if it\n    ///  is a new token\n    /// @param _tokenName Name of the new token\n    /// @param _decimalUnits Number of decimals of the new token\n    /// @param _tokenSymbol Token Symbol for the new token\n    /// @param _transfersEnabled If true, tokens will be able to be transferred\n    function MiniMeToken(\n        address _tokenFactory,\n        address _parentToken,\n        uint _parentSnapShotBlock,\n        string _tokenName,\n        uint8 _decimalUnits,\n        string _tokenSymbol,\n        bool _transfersEnabled\n    ) public {\n        tokenFactory = MiniMeTokenFactory(_tokenFactory);\n        name = _tokenName;                                 // Set the name\n        decimals = _decimalUnits;                          // Set the decimals\n        symbol = _tokenSymbol;                             // Set the symbol\n        parentToken = MiniMeToken(_parentToken);\n        parentSnapShotBlock = _parentSnapShotBlock;\n        transfersEnabled = _transfersEnabled;\n        creationBlock = block.number;\n    }\n\n\n///////////////////\n// ERC20 Methods\n///////////////////\n\n    /// @notice Send `_amount` tokens to `_to` from `msg.sender`\n    /// @param _to The address of the recipient\n    /// @param _amount The amount of tokens to be transferred\n    /// @return Whether the transfer was successful or not\n    function transfer(address _to, uint256 _amount) public returns (bool success) {\n        require(transfersEnabled);\n        return doTransfer(msg.sender, _to, _amount);\n    }\n\n    /// @notice Send `_amount` tokens to `_to` from `_from` on the condition it\n    ///  is approved by `_from`\n    /// @param _from The address holding the tokens being transferred\n    /// @param _to The address of the recipient\n    /// @param _amount The amount of tokens to be transferred\n    /// @return True if the transfer was successful\n    function transferFrom(address _from, address _to, uint256 _amount\n    ) public returns (bool success) {\n\n        // The controller of this contract can move tokens around at will,\n        //  this is important to recognize! Confirm that you trust the\n        //  controller of this contract, which in most situations should be\n        //  another open source smart contract or 0x0\n        if (msg.sender != controller) {\n            require(transfersEnabled);\n\n            // The standard ERC 20 transferFrom functionality\n            if (allowed[_from][msg.sender] < _amount) return false;\n            allowed[_from][msg.sender] -= _amount;\n        }\n        return doTransfer(_from, _to, _amount);\n    }\n\n    /// @dev This is the actual transfer function in the token contract, it can\n    ///  only be called by other functions in this contract.\n    /// @param _from The address holding the tokens being transferred\n    /// @param _to The address of the recipient\n    /// @param _amount The amount of tokens to be transferred\n    /// @return True if the transfer was successful\n    function doTransfer(address _from, address _to, uint _amount\n    ) internal returns(bool) {\n\n           if (_amount == 0) {\n               return true;\n           }\n\n           require(parentSnapShotBlock < block.number);\n\n           // Do not allow transfer to 0x0 or the token contract itself\n           require((_to != 0) && (_to != address(this)));\n\n           // If the amount being transfered is more than the balance of the\n           //  account the transfer returns false\n           var previousBalanceFrom = balanceOfAt(_from, block.number);\n           if (previousBalanceFrom < _amount) {\n               return false;\n           }\n\n           // First update the balance array with the new value for the address\n           //  sending the tokens\n           updateValueAtNow(balances[_from], previousBalanceFrom - _amount);\n\n           // Then update the balance array with the new value for the address\n           //  receiving the tokens\n           var previousBalanceTo = balanceOfAt(_to, block.number);\n           require(previousBalanceTo + _amount >= previousBalanceTo); // Check for overflow\n           updateValueAtNow(balances[_to], previousBalanceTo + _amount);\n\n           // An event to make the transfer easy to find on the blockchain\n           Transfer(_from, _to, _amount);\n\n           return true;\n    }\n\n    /// @param _owner The address that's balance is being requested\n    /// @return The balance of `_owner` at the current block\n    function balanceOf(address _owner) public constant returns (uint256 balance) {\n        return balanceOfAt(_owner, block.number);\n    }\n\n    /// @notice `msg.sender` approves `_spender` to spend `_amount` tokens on\n    ///  its behalf. This is a modified version of the ERC20 approve function\n    ///  to be a little bit safer\n    /// @param _spender The address of the account able to transfer the tokens\n    /// @param _amount The amount of tokens to be approved for transfer\n    /// @return True if the approval was successful\n    function approve(address _spender, uint256 _amount) public returns (bool success) {\n        require(transfersEnabled);\n\n        // To change the approve amount you first have to reduce the addresses`\n        //  allowance to zero by calling `approve(_spender,0)` if it is not\n        //  already 0 to mitigate the race condition described here:\n        //  https://github.com/ethereum/EIPs/issues/20#issuecomment-263524729\n        require((_amount == 0) || (allowed[msg.sender][_spender] == 0));\n\n        allowed[msg.sender][_spender] = _amount;\n        Approval(msg.sender, _spender, _amount);\n        return true;\n    }\n\n    /// @dev This function makes it easy to read the `allowed[]` map\n    /// @param _owner The address of the account that owns the token\n    /// @param _spender The address of the account able to transfer the tokens\n    /// @return Amount of remaining tokens of _owner that _spender is allowed\n    ///  to spend\n    function allowance(address _owner, address _spender\n    ) public constant returns (uint256 remaining) {\n        return allowed[_owner][_spender];\n    }\n\n    /// @notice `msg.sender` approves `_spender` to send `_amount` tokens on\n    ///  its behalf, and then a function is triggered in the contract that is\n    ///  being approved, `_spender`. This allows users to use their tokens to\n    ///  interact with contracts in one function call instead of two\n    /// @param _spender The address of the contract able to transfer the tokens\n    /// @param _amount The amount of tokens to be approved for transfer\n    /// @return True if the function call was successful\n    function approveAndCall(address _spender, uint256 _amount, bytes _extraData\n    ) public returns (bool success) {\n        require(approve(_spender, _amount));\n\n        ApproveAndCallFallBack(_spender).receiveApproval(\n            msg.sender,\n            _amount,\n            this,\n            _extraData\n        );\n\n        return true;\n    }\n\n    /// @dev This function makes it easy to get the total number of tokens\n    /// @return The total number of tokens\n    function totalSupply() public constant returns (uint) {\n        return totalSupplyAt(block.number);\n    }\n\n\n////////////////\n// Query balance and totalSupply in History\n////////////////\n\n    /// @dev Queries the balance of `_owner` at a specific `_blockNumber`\n    /// @param _owner The address from which the balance will be retrieved\n    /// @param _blockNumber The block number when the balance is queried\n    /// @return The balance at `_blockNumber`\n    function balanceOfAt(address _owner, uint _blockNumber) public constant\n        returns (uint) {\n\n        // These next few lines are used when the balance of the token is\n        //  requested before a check point was ever created for this token, it\n        //  requires that the `parentToken.balanceOfAt` be queried at the\n        //  genesis block for that token as this contains initial balance of\n        //  this token\n        if ((balances[_owner].length == 0)\n            || (balances[_owner][0].fromBlock > _blockNumber)) {\n            if (address(parentToken) != 0) {\n                return parentToken.balanceOfAt(_owner, min(_blockNumber, parentSnapShotBlock));\n            } else {\n                // Has no parent\n                return 0;\n            }\n\n        // This will return the expected balance during normal situations\n        } else {\n            return getValueAt(balances[_owner], _blockNumber);\n        }\n    }\n\n    /// @notice Total amount of tokens at a specific `_blockNumber`.\n    /// @param _blockNumber The block number when the totalSupply is queried\n    /// @return The total amount of tokens at `_blockNumber`\n    function totalSupplyAt(uint _blockNumber) public constant returns(uint) {\n\n        // These next few lines are used when the totalSupply of the token is\n        //  requested before a check point was ever created for this token, it\n        //  requires that the `parentToken.totalSupplyAt` be queried at the\n        //  genesis block for this token as that contains totalSupply of this\n        //  token at this block number.\n        if ((totalSupplyHistory.length == 0)\n            || (totalSupplyHistory[0].fromBlock > _blockNumber)) {\n            if (address(parentToken) != 0) {\n                return parentToken.totalSupplyAt(min(_blockNumber, parentSnapShotBlock));\n            } else {\n                return 0;\n            }\n\n        // This will return the expected totalSupply during normal situations\n        } else {\n            return getValueAt(totalSupplyHistory, _blockNumber);\n        }\n    }\n\n////////////////\n// Clone Token Method\n////////////////\n\n    /// @notice Creates a new clone token with the initial distribution being\n    ///  this token at `_snapshotBlock`\n    /// @param _cloneTokenName Name of the clone token\n    /// @param _cloneDecimalUnits Number of decimals of the smallest unit\n    /// @param _cloneTokenSymbol Symbol of the clone token\n    /// @param _snapshotBlock Block when the distribution of the parent token is\n    ///  copied to set the initial distribution of the new clone token;\n    ///  if the block is zero than the actual block, the current block is used\n    /// @param _transfersEnabled True if transfers are allowed in the clone\n    /// @return The address of the new MiniMeToken Contract\n    function createCloneToken(\n        string _cloneTokenName,\n        uint8 _cloneDecimalUnits,\n        string _cloneTokenSymbol,\n        uint _snapshotBlock,\n        bool _transfersEnabled\n        ) public returns(address) {\n        if (_snapshotBlock == 0) _snapshotBlock = block.number;\n        MiniMeToken cloneToken = tokenFactory.createCloneToken(\n            this,\n            _snapshotBlock,\n            _cloneTokenName,\n            _cloneDecimalUnits,\n            _cloneTokenSymbol,\n            _transfersEnabled\n            );\n\n        cloneToken.changeController(msg.sender);\n\n        // An event to make the token easy to find on the blockchain\n        NewCloneToken(address(cloneToken), _snapshotBlock);\n        return address(cloneToken);\n    }\n\n////////////////\n// Generate and destroy tokens\n////////////////\n\n    /// @notice Generates `_amount` tokens that are assigned to `_owner`\n    /// @param _owner The address that will be assigned the new tokens\n    /// @param _amount The quantity of tokens generated\n    /// @return True if the tokens are generated correctly\n    function generateTokens(address _owner, uint _amount\n    ) public onlyController returns (bool) {\n        uint curTotalSupply = totalSupply();\n        require(curTotalSupply + _amount >= curTotalSupply); // Check for overflow\n        uint previousBalanceTo = balanceOf(_owner);\n        require(previousBalanceTo + _amount >= previousBalanceTo); // Check for overflow\n        updateValueAtNow(totalSupplyHistory, curTotalSupply + _amount);\n        updateValueAtNow(balances[_owner], previousBalanceTo + _amount);\n        Transfer(0, _owner, _amount);\n        return true;\n    }\n\n\n    /// @notice Burns `_amount` tokens from `_owner`\n    /// @param _owner The address that will lose the tokens\n    /// @param _amount The quantity of tokens to burn\n    /// @return True if the tokens are burned correctly\n    function destroyTokens(address _owner, uint _amount\n    ) onlyController public returns (bool) {\n        uint curTotalSupply = totalSupply();\n        require(curTotalSupply >= _amount);\n        uint previousBalanceFrom = balanceOf(_owner);\n        require(previousBalanceFrom >= _amount);\n        updateValueAtNow(totalSupplyHistory, curTotalSupply - _amount);\n        updateValueAtNow(balances[_owner], previousBalanceFrom - _amount);\n        Transfer(_owner, 0, _amount);\n        return true;\n    }\n\n////////////////\n// Enable tokens transfers\n////////////////\n\n\n    /// @notice Enables token holders to transfer their tokens freely if true\n    /// @param _transfersEnabled True if transfers are allowed in the clone\n    function enableTransfers(bool _transfersEnabled) public onlyController {\n        transfersEnabled = _transfersEnabled;\n    }\n\n////////////////\n// Internal helper functions to query and set a value in a snapshot array\n////////////////\n\n    /// @dev `getValueAt` retrieves the number of tokens at a given block number\n    /// @param checkpoints The history of values being queried\n    /// @param _block The block number to retrieve the value at\n    /// @return The number of tokens being queried\n    function getValueAt(Checkpoint[] storage checkpoints, uint _block\n    ) constant internal returns (uint) {\n        if (checkpoints.length == 0) return 0;\n\n        // Shortcut for the actual value\n        if (_block >= checkpoints[checkpoints.length-1].fromBlock)\n            return checkpoints[checkpoints.length-1].value;\n        if (_block < checkpoints[0].fromBlock) return 0;\n\n        // Binary search of the value in the array\n        uint min = 0;\n        uint max = checkpoints.length-1;\n        while (max > min) {\n            uint mid = (max + min + 1)/ 2;\n            if (checkpoints[mid].fromBlock<=_block) {\n                min = mid;\n            } else {\n                max = mid-1;\n            }\n        }\n        return checkpoints[min].value;\n    }\n\n    /// @dev `updateValueAtNow` used to update the `balances` map and the\n    ///  `totalSupplyHistory`\n    /// @param checkpoints The history of data being updated\n    /// @param _value The new number of tokens\n    function updateValueAtNow(Checkpoint[] storage checkpoints, uint _value\n    ) internal  {\n        if ((checkpoints.length == 0)\n        || (checkpoints[checkpoints.length -1].fromBlock < block.number)) {\n               Checkpoint storage newCheckPoint = checkpoints[ checkpoints.length++ ];\n               newCheckPoint.fromBlock =  uint128(block.number);\n               newCheckPoint.value = uint128(_value);\n           } else {\n               Checkpoint storage oldCheckPoint = checkpoints[checkpoints.length-1];\n               oldCheckPoint.value = uint128(_value);\n           }\n    }\n\n    /// @dev Internal function to determine if an address is a contract\n    /// @param _addr The address being queried\n    /// @return True if `_addr` is a contract\n    function isContract(address _addr) constant internal returns(bool) {\n        uint size;\n        if (_addr == 0) return false;\n        assembly {\n            size := extcodesize(_addr)\n        }\n        return size>0;\n    }\n\n    /// @dev Helper function to return a min betwen the two uints\n    /// PURE function\n    function min(uint a, uint b) internal constant returns (uint) {\n        return a < b ? a : b;\n    }\n\n    /// @notice The fallback function: If the contract's controller has not been\n    ///  set to 0, then the `proxyPayment` method is called which relays the\n    ///  ether and creates tokens as described in the token controller contract\n    function () public payable {\n    }\n\n//////////\n// Safety Methods\n//////////\n\n    /// @notice This method can be used by the controller to extract mistakenly\n    ///  sent tokens to this contract.\n    /// @param _token The address of the token contract that you want to recover\n    ///  set to 0 in case you want to extract ether.\n    function claimTokens(address _token) public onlyController {\n        if (_token == 0x0) {\n            controller.transfer(this.balance);\n            return;\n        }\n\n        MiniMeToken token = MiniMeToken(_token);\n        uint balance = token.balanceOf(this);\n        token.transfer(controller, balance);\n        ClaimedTokens(_token, controller, balance);\n    }\n\n////////////////\n// Events\n////////////////\n    event ClaimedTokens(address indexed _token, address indexed _controller, uint _amount);\n    event Transfer(address indexed _from, address indexed _to, uint256 _amount);\n    event NewCloneToken(address indexed _cloneToken, uint _snapshotBlock);\n    event Approval(\n        address indexed _owner,\n        address indexed _spender,\n        uint256 _amount\n        );\n\n}\n\n\n////////////////\n// MiniMeTokenFactory\n////////////////\n\n/// @dev This contract is used to generate clone contracts from a contract.\n///  In solidity this is the way to create a contract from a contract of the\n///  same class\ncontract MiniMeTokenFactory {\n\n    /// @notice Update the DApp by creating a new token with new functionalities\n    ///  the msg.sender becomes the controller of this clone token\n    /// @param _parentToken Address of the token being cloned\n    /// @param _snapshotBlock Block of the parent token that will\n    ///  determine the initial distribution of the clone token\n    /// @param _tokenName Name of the new token\n    /// @param _decimalUnits Number of decimals of the new token\n    /// @param _tokenSymbol Token Symbol for the new token\n    /// @param _transfersEnabled If true, tokens will be able to be transferred\n    /// @return The address of the new token contract\n    function createCloneToken(\n        address _parentToken,\n        uint _snapshotBlock,\n        string _tokenName,\n        uint8 _decimalUnits,\n        string _tokenSymbol,\n        bool _transfersEnabled\n    ) public returns (MiniMeToken) {\n        MiniMeToken newToken = new MiniMeToken(\n            this,\n            _parentToken,\n            _snapshotBlock,\n            _tokenName,\n            _decimalUnits,\n            _tokenSymbol,\n            _transfersEnabled\n            );\n\n        newToken.changeController(msg.sender);\n        return newToken;\n    }\n}",
  "sourcePath": "/Users/mattlovan/Projects/notLinkedIn/contracts/minime/MiniMeToken.sol",
  "compiler": {
    "name": "solc",
    "version": "0.4.18+commit.9cf6e910.Emscripten.clang"
  },
  "schemaVersion": "1.0.1",
  "updatedAt": "2017-12-01T16:53:51.011Z"
}