{
  "contractName": "ServesaFactory",
  "abi": [
    {
      "constant": true,
      "inputs": [],
      "name": "getContractAddress",
      "outputs": [
        {
          "name": "",
          "type": "address[]"
        }
      ],
      "payable": false,
      "stateMutability": "view",
      "type": "function"
    },
    {
      "constant": true,
      "inputs": [],
      "name": "contractCount",
      "outputs": [
        {
          "name": "",
          "type": "uint256"
        }
      ],
      "payable": false,
      "stateMutability": "view",
      "type": "function"
    },
    {
      "constant": true,
      "inputs": [
        {
          "name": "",
          "type": "address"
        },
        {
          "name": "",
          "type": "uint256"
        },
        {
          "name": "ownerCanSpend",
          "type": "bool"
        },
        {
          "name": "tokenBasePrice",
          "type": "uint256"
        },
        {
          "name": "tokenPriceExponent",
          "type": "uint256"
        },
        {
          "name": "sunsetWithdrawPeriod",
          "type": "uint256"
        }
      ],
      "name": "contracts",
      "outputs": [
        {
          "name": "",
          "type": "address"
        }
      ],
      "payable": false,
      "stateMutability": "view",
      "type": "function"
    },
    {
      "constant": false,
      "inputs": [
        {
          "name": "ownerAddress",
          "type": "address"
        },
        {
          "name": "contractName",
          "type": "string"
        },
        {
          "name": "ownerCanBurn",
          "type": "bool"
        },
        {
          "name": "ownerCanSpend",
          "type": "bool"
        },
        {
          "name": "tokenBasePrice",
          "type": "uint256"
        },
        {
          "name": "tokenPriceExponent",
          "type": "uint256"
        },
        {
          "name": "sunsetWithdrawPeriod",
          "type": "uint256"
        }
      ],
      "name": "newContract",
      "outputs": [
        {
          "name": "newAddress",
          "type": "address"
        }
      ],
      "payable": false,
      "stateMutability": "nonpayable",
      "type": "function"
    }
  ],
  "bytecode": "0x6060604052341561000f57600080fd5b611d708061001e6000396000f300606060405260043610610062576000357c0100000000000000000000000000000000000000000000000000000000900463ffffffff16806332a2c5d0146100675780638736381a146100d1578063ed23f8c3146100fa578063faf0aeb91461017c575b600080fd5b341561007257600080fd5b61007a610269565b6040518080602001828103825283818151815260200191508051906020019060200280838360005b838110156100bd5780820151818401526020810190506100a2565b505050509050019250505060405180910390f35b34156100dc57600080fd5b6100e461033a565b6040518082815260200191505060405180910390f35b341561010557600080fd5b61013a600480803573ffffffffffffffffffffffffffffffffffffffff16906020019091908035906020019091905050610340565b604051808273ffffffffffffffffffffffffffffffffffffffff1673ffffffffffffffffffffffffffffffffffffffff16815260200191505060405180910390f35b341561018757600080fd5b610227600480803573ffffffffffffffffffffffffffffffffffffffff1690602001909190803590602001908201803590602001908080601f016020809104026020016040519081016040528093929190818152602001838380828437820191505050505050919080351515906020019091908035151590602001909190803590602001909190803590602001909190803590602001909190505061038e565b604051808273ffffffffffffffffffffffffffffffffffffffff1673ffffffffffffffffffffffffffffffffffffffff16815260200191505060405180910390f35b610271610544565b600160003373ffffffffffffffffffffffffffffffffffffffff1673ffffffffffffffffffffffffffffffffffffffff16815260200190815260200160002080548060200260200160405190810160405280929190818152602001828054801561033057602002820191906000526020600020905b8160009054906101000a900473ffffffffffffffffffffffffffffffffffffffff1673ffffffffffffffffffffffffffffffffffffffff16815260200190600101908083116102e6575b5050505050905090565b60005481565b60016020528160005260406000208181548110151561035b57fe5b90600052602060002090016000915091509054906101000a900473ffffffffffffffffffffffffffffffffffffffff1681565b600080888888888888886103a0610558565b808873ffffffffffffffffffffffffffffffffffffffff1673ffffffffffffffffffffffffffffffffffffffff168152602001806020018715151515815260200186151515158152602001858152602001848152602001838152602001828103825288818151815260200191508051906020019080838360005b8381101561043557808201518184015260208101905061041a565b50505050905090810190601f1680156104625780820380516001836020036101000a031916815260200191505b5098505050505050505050604051809103906000f080151561048357600080fd5b9050600160003373ffffffffffffffffffffffffffffffffffffffff1673ffffffffffffffffffffffffffffffffffffffff16815260200190815260200160002080548060010182816104d69190610568565b9160005260206000209001600083909190916101000a81548173ffffffffffffffffffffffffffffffffffffffff021916908373ffffffffffffffffffffffffffffffffffffffff160217905550506001600080828254019250508190555080915050979650505050505050565b602060405190810160405280600081525090565b60405161178b806105ba83390190565b81548183558181151161058f5781836000526020600020918201910161058e9190610594565b5b505050565b6105b691905b808211156105b257600081600090555060010161059a565b5090565b9056006060604052600080556001600260006101000a81548160ff021916908315150217905550600060065560006007556000600a60006101000a81548160ff0219169083151502179055506000600a60016101000a81548160ff021916908315150217905550655af3107a4000600b556001600c55612710600d5534156200008457600080fd5b6040516200178b3803806200178b8339810160405280805190602001909190805182019190602001805190602001909190805190602001909190805190602001909190805190602001909190805190602001909190505086600860006101000a81548173ffffffffffffffffffffffffffffffffffffffff021916908373ffffffffffffffffffffffffffffffffffffffff160217905550856009908051906020019062000134929190620002a6565b5084600a60006101000a81548160ff02191690831515021790555083600a60016101000a81548160ff02191690831515021790555082600b8190555081600c8190555080600581905550426003819055507f3c21ca11f997fb410582d3da35bcce2af5946a810a1cb48c4404293fd90c6b43600860009054906101000a900473ffffffffffffffffffffffffffffffffffffffff166009604051808373ffffffffffffffffffffffffffffffffffffffff1673ffffffffffffffffffffffffffffffffffffffff168152602001806020018281038252838181546001816001161561010002031660029004815260200191508054600181600116156101000203166002900480156200028a5780601f106200025e576101008083540402835291602001916200028a565b820191906000526020600020905b8154815290600101906020018083116200026c57829003601f168201915b5050935050505060405180910390a15050505050505062000355565b828054600181600116156101000203166002900490600052602060002090601f016020900481019282601f10620002e957805160ff19168380011785556200031a565b828001600101855582156200031a579182015b8281111562000319578251825591602001919060010190620002fc565b5b5090506200032991906200032d565b5090565b6200035291905b808211156200034e57600081600090555060010162000334565b5090565b90565b61142680620003656000396000f300606060405260043610610154576000357c0100000000000000000000000000000000000000000000000000000000900463ffffffff168063031b36771461015e5780630baf0375146101bd5780630c3d5157146101e65780631dbf3bc71461020f5780631ea48870146102325780632cecddc11461028357806330f1deb9146102b057806339b8dc40146102fd57806354fd4d50146103265780635896521b1461034f57806359afc278146103785780635b987a71146103a15780636abf4d26146103ee5780636f9fb98a1461041757806375d0c0dc14610440578063893d20e8146104ce578063957aa58c14610523578063962ffeae146105505780639c5ed3d6146105795780639dc29fac146105a6578063a6f2ae3a146105e8578063ba1de6c7146105f2578063d7d771441461061b578063e4849b3214610644578063f76e5c3114610667578063fa2e9db814610690575b61015c6106b9565b005b341561016957600080fd5b610195600480803573ffffffffffffffffffffffffffffffffffffffff16906020019091905050610a59565b6040518084151515158152602001838152602001828152602001935050505060405180910390f35b34156101c857600080fd5b6101d0610a90565b6040518082815260200191505060405180910390f35b34156101f157600080fd5b6101f9610a96565b6040518082815260200191505060405180910390f35b341561021a57600080fd5b6102306004808035906020019091905050610a9c565b005b341561023d57600080fd5b610269600480803573ffffffffffffffffffffffffffffffffffffffff16906020019091905050610ba8565b604051808215151515815260200191505060405180910390f35b341561028e57600080fd5b610296610c01565b604051808215151515815260200191505060405180910390f35b34156102bb57600080fd5b6102e7600480803573ffffffffffffffffffffffffffffffffffffffff16906020019091905050610c14565b6040518082815260200191505060405180910390f35b341561030857600080fd5b610310610c60565b6040518082815260200191505060405180910390f35b341561033157600080fd5b610339610c66565b6040518082815260200191505060405180910390f35b341561035a57600080fd5b610362610c6c565b6040518082815260200191505060405180910390f35b341561038357600080fd5b61038b610c76565b6040518082815260200191505060405180910390f35b34156103ac57600080fd5b6103d8600480803573ffffffffffffffffffffffffffffffffffffffff16906020019091905050610c7c565b6040518082815260200191505060405180910390f35b34156103f957600080fd5b610401610cc8565b6040518082815260200191505060405180910390f35b341561042257600080fd5b61042a610cce565b6040518082815260200191505060405180910390f35b341561044b57600080fd5b610453610ced565b6040518080602001828103825283818151815260200191508051906020019080838360005b83811015610493578082015181840152602081019050610478565b50505050905090810190601f1680156104c05780820380516001836020036101000a031916815260200191505b509250505060405180910390f35b34156104d957600080fd5b6104e1610d8b565b604051808273ffffffffffffffffffffffffffffffffffffffff1673ffffffffffffffffffffffffffffffffffffffff16815260200191505060405180910390f35b341561052e57600080fd5b610536610db5565b604051808215151515815260200191505060405180910390f35b341561055b57600080fd5b610563610dc8565b6040518082815260200191505060405180910390f35b341561058457600080fd5b61058c610dce565b604051808215151515815260200191505060405180910390f35b34156105b157600080fd5b6105e6600480803573ffffffffffffffffffffffffffffffffffffffff16906020019091908035906020019091905050610de1565b005b6105f06106b9565b005b34156105fd57600080fd5b61060561105e565b6040518082815260200191505060405180910390f35b341561062657600080fd5b61062e611064565b6040518082815260200191505060405180910390f35b341561064f57600080fd5b610665600480803590602001909190505061108e565b005b341561067257600080fd5b61067a611333565b6040518082815260200191505060405180910390f35b341561069b57600080fd5b6106a361136f565b6040518082815260200191505060405180910390f35b6000806000600260009054906101000a900460ff1615156106d957600080fd5b60009250600091506106e9611333565b90505b34610700828561137590919063ffffffff16565b101561073057610719818461137590919063ffffffff16565b9250600182019150610729611333565b90506106ec565b60008211151561073f57600080fd5b61074833610ba8565b15156108045760606040519081016040528060011515815260200183815260200184815250600160003373ffffffffffffffffffffffffffffffffffffffff1673ffffffffffffffffffffffffffffffffffffffff16815260200190815260200160002060008201518160000160006101000a81548160ff02191690831515021790555060208201518160010155604082015181600201559050506107f9600160075461137590919063ffffffff16565b60078190555061093b565b61085982600160003373ffffffffffffffffffffffffffffffffffffffff1673ffffffffffffffffffffffffffffffffffffffff1681526020019081526020016000206001015461137590919063ffffffff16565b600160003373ffffffffffffffffffffffffffffffffffffffff1673ffffffffffffffffffffffffffffffffffffffff168152602001908152602001600020600101819055506108f483600160003373ffffffffffffffffffffffffffffffffffffffff1673ffffffffffffffffffffffffffffffffffffffff1681526020019081526020016000206002015461137590919063ffffffff16565b600160003373ffffffffffffffffffffffffffffffffffffffff1673ffffffffffffffffffffffffffffffffffffffff168152602001908152602001600020600201819055505b6109508260065461137590919063ffffffff16565b600681905550600061096b843461139390919063ffffffff16565b11156109c4573373ffffffffffffffffffffffffffffffffffffffff166108fc61099e853461139390919063ffffffff16565b9081150290604051600060405180830381858888f1935050505015156109c357600080fd5b5b3373ffffffffffffffffffffffffffffffffffffffff167fe3d4187f6ca4248660cc0ac8b8056515bac4a8132be2eca31d6d0cc170722a7e600160003373ffffffffffffffffffffffffffffffffffffffff1673ffffffffffffffffffffffffffffffffffffffff168152602001908152602001600020600101546040518082815260200191505060405180910390a2505050565b60016020528060005260406000206000915090508060000160009054906101000a900460ff16908060010154908060020154905083565b600b5481565b60035481565b600260009054906101000a900460ff161515610ab757600080fd5b600860009054906101000a900473ffffffffffffffffffffffffffffffffffffffff1673ffffffffffffffffffffffffffffffffffffffff163373ffffffffffffffffffffffffffffffffffffffff16141515610b1357600080fd5b600a60019054906101000a900460ff161515610b2e57600080fd5b3373ffffffffffffffffffffffffffffffffffffffff166108fc829081150290604051600060405180830381858888f193505050501515610b6e57600080fd5b7f7f36875e1aa63a260a86253b4178fbeb52d1d36819b47a29d15ec2a259e49efa816040518082815260200191505060405180910390a150565b6000600160008373ffffffffffffffffffffffffffffffffffffffff1673ffffffffffffffffffffffffffffffffffffffff16815260200190815260200160002060000160009054906101000a900460ff169050919050565b600a60009054906101000a900460ff1681565b6000600160008373ffffffffffffffffffffffffffffffffffffffff1673ffffffffffffffffffffffffffffffffffffffff168152602001908152602001600020600101549050919050565b60055481565b60005481565b6000600754905090565b600c5481565b6000600160008373ffffffffffffffffffffffffffffffffffffffff1673ffffffffffffffffffffffffffffffffffffffff168152602001908152602001600020600201549050919050565b600d5481565b60003073ffffffffffffffffffffffffffffffffffffffff1631905090565b60098054600181600116156101000203166002900480601f016020809104026020016040519081016040528092919081815260200182805460018160011615610100020316600290048015610d835780601f10610d5857610100808354040283529160200191610d83565b820191906000526020600020905b815481529060010190602001808311610d6657829003601f168201915b505050505081565b6000600860009054906101000a900473ffffffffffffffffffffffffffffffffffffffff16905090565b600260009054906101000a900460ff1681565b60075481565b600a60019054906101000a900460ff1681565b600260009054906101000a900460ff161515610dfc57600080fd5b600860009054906101000a900473ffffffffffffffffffffffffffffffffffffffff1673ffffffffffffffffffffffffffffffffffffffff163373ffffffffffffffffffffffffffffffffffffffff16141515610e5857600080fd5b600a60009054906101000a900460ff161515610e7357600080fd5b610e7c82610ba8565b1515610e8757600080fd5b610edc81600160008573ffffffffffffffffffffffffffffffffffffffff1673ffffffffffffffffffffffffffffffffffffffff1681526020019081526020016000206001015461139390919063ffffffff16565b600160008473ffffffffffffffffffffffffffffffffffffffff1673ffffffffffffffffffffffffffffffffffffffff168152602001908152602001600020600101819055506000600160008473ffffffffffffffffffffffffffffffffffffffff1673ffffffffffffffffffffffffffffffffffffffff168152602001908152602001600020600101541415610ff057600160008373ffffffffffffffffffffffffffffffffffffffff1673ffffffffffffffffffffffffffffffffffffffff168152602001908152602001600020600080820160006101000a81549060ff0219169055600182016000905560028201600090555050610fe9600160075461139390919063ffffffff16565b6007819055505b6110058160065461139390919063ffffffff16565b6006819055508173ffffffffffffffffffffffffffffffffffffffff167fcc16f5dbb4873280815c1ee09dbd06736cffcc184412cf7a71a0fdb75d397ca560016040518082815260200191505060405180910390a25050565b60065481565b60006110893073ffffffffffffffffffffffffffffffffffffffff16316006546113ac565b905090565b6000600260009054906101000a900460ff1615156110ab57600080fd5b6110b433610ba8565b15156110bf57600080fd5b6110c7611064565b905061111e82600160003373ffffffffffffffffffffffffffffffffffffffff1673ffffffffffffffffffffffffffffffffffffffff1681526020019081526020016000206001015461139390919063ffffffff16565b600160003373ffffffffffffffffffffffffffffffffffffffff1673ffffffffffffffffffffffffffffffffffffffff168152602001908152602001600020600101819055506000600160003373ffffffffffffffffffffffffffffffffffffffff1673ffffffffffffffffffffffffffffffffffffffff16815260200190815260200160002060010154141561123257600160003373ffffffffffffffffffffffffffffffffffffffff1673ffffffffffffffffffffffffffffffffffffffff168152602001908152602001600020600080820160006101000a81549060ff021916905560018201600090556002820160009055505061122b600160075461139390919063ffffffff16565b6007819055505b6112478260065461139390919063ffffffff16565b6006819055503373ffffffffffffffffffffffffffffffffffffffff166108fc61127a84846113c790919063ffffffff16565b9081150290604051600060405180830381858888f19350505050151561129f57600080fd5b3373ffffffffffffffffffffffffffffffffffffffff167f5e5e995ce3133561afceaa51a9a154d5db228cd7525d34df5185582c18d3df09600160003373ffffffffffffffffffffffffffffffffffffffff1673ffffffffffffffffffffffffffffffffffffffff168152602001908152602001600020600101546040518082815260200191505060405180910390a25050565b60006001600c54141561134a57600b54905061136c565b611365600d54600c546006540a6113ac90919063ffffffff16565b600b540190505b90565b60045481565b600080828401905083811015151561138957fe5b8091505092915050565b60008282111515156113a157fe5b818303905092915050565b60008082848115156113ba57fe5b0490508091505092915050565b600080828402905060008414806113e857508284828115156113e557fe5b04145b15156113f057fe5b80915050929150505600a165627a7a723058208450607fdce9d8e958aa99949fc13975642c4f2de412eb8ef20071749e5381e40029a165627a7a72305820bf4ca1c8492145a97540a187e0bc594118892b9158a54fb7ca3e879467727aeb0029",
  "source": "pragma solidity 0.4.18;\nimport './Servesa.sol';\n\ncontract ServesaFactory {\n  uint public contractCount;\n  mapping(address => address[]) public contracts;\n\n  function newContract(\n    address ownerAddress,\n    string contractName,\n    bool ownerCanBurn,\n    bool ownerCanSpend,\n    uint tokenBasePrice,\n    uint tokenPriceExponent,\n    uint sunsetWithdrawPeriod) public returns (address newAddress) {\n\n    Servesa contractId = new Servesa(\n      ownerAddress,\n      contractName,\n      ownerCanBurn,\n      ownerCanSpend,\n      tokenBasePrice,\n      tokenPriceExponent,\n      sunsetWithdrawPeriod\n    );\n\n    contracts[msg.sender].push(contractId);\n    contractCount += 1;\n\n    return contractId;\n  }\n\n  function getContractAddress() public constant returns (address[]) {\n    return contracts[msg.sender];\n  }\n}\n",
  "sourcePath": "/Users/mattlovan/Projects/notLinkedIn/contracts/ServesaFactory.sol",
  "compiler": {
    "name": "solc",
    "version": "0.4.18+commit.9cf6e910.Emscripten.clang"
  },
  "schemaVersion": "1.0.1",
  "updatedAt": "2017-12-04T20:40:31.061Z"
}