{
  "contractName": "ServesaFactory",
  "abi": [
    {
      "constant": true,
      "inputs": [],
      "name": "getContractAddress",
      "outputs": [
        {
          "name": "",
          "type": "address[]"
        }
      ],
      "payable": false,
      "stateMutability": "view",
      "type": "function"
    },
    {
      "constant": true,
      "inputs": [],
      "name": "contractCount",
      "outputs": [
        {
          "name": "",
          "type": "uint256"
        }
      ],
      "payable": false,
      "stateMutability": "view",
      "type": "function"
    },
    {
      "constant": false,
      "inputs": [
        {
          "name": "ownerAddress",
          "type": "address"
        },
        {
          "name": "contractName",
          "type": "string"
        },
        {
          "name": "contractAvatarUrl",
          "type": "string"
        },
        {
          "name": "ownerCanBurn",
          "type": "bool"
        },
        {
          "name": "ownerCanSpend",
          "type": "bool"
        },
        {
          "name": "maxTokens",
          "type": "uint256"
        },
        {
          "name": "tokenBasePrice",
          "type": "uint256"
        },
        {
          "name": "tokenPriceExponentDivisor",
          "type": "uint256"
        },
        {
          "name": "tokenPriceLinearDivisor",
          "type": "uint256"
        },
        {
          "name": "sunsetWithdrawPeriod",
          "type": "uint256"
        }
      ],
      "name": "newContract",
      "outputs": [
        {
          "name": "newAddress",
          "type": "address"
        }
      ],
      "payable": false,
      "stateMutability": "nonpayable",
      "type": "function"
    },
    {
      "constant": true,
      "inputs": [
        {
          "name": "",
          "type": "address"
        },
        {
          "name": "",
          "type": "uint256"
        }
      ],
      "name": "contracts",
      "outputs": [
        {
          "name": "",
          "type": "address"
        }
      ],
      "payable": false,
      "stateMutability": "view",
      "type": "function"
    }
  ],
  "bytecode": "0x6060604052341561000f57600080fd5b61219e8061001e6000396000f300606060405260043610610062576000357c0100000000000000000000000000000000000000000000000000000000900463ffffffff16806332a2c5d0146100675780638736381a146100d1578063bf536786146100fa578063ed23f8c31461023c575b600080fd5b341561007257600080fd5b61007a6102be565b6040518080602001828103825283818151815260200191508051906020019060200280838360005b838110156100bd5780820151818401526020810190506100a2565b505050509050019250505060405180910390f35b34156100dc57600080fd5b6100e461038f565b6040518082815260200191505060405180910390f35b341561010557600080fd5b6101fa600480803573ffffffffffffffffffffffffffffffffffffffff1690602001909190803590602001908201803590602001908080601f0160208091040260200160405190810160405280939291908181526020018383808284378201915050505050509190803590602001908201803590602001908080601f0160208091040260200160405190810160405280939291908181526020018383808284378201915050505050509190803515159060200190919080351515906020019091908035906020019091908035906020019091908035906020019091908035906020019091908035906020019091905050610395565b604051808273ffffffffffffffffffffffffffffffffffffffff1673ffffffffffffffffffffffffffffffffffffffff16815260200191505060405180910390f35b341561024757600080fd5b61027c600480803573ffffffffffffffffffffffffffffffffffffffff169060200190919080359060200190919050506105cb565b604051808273ffffffffffffffffffffffffffffffffffffffff1673ffffffffffffffffffffffffffffffffffffffff16815260200191505060405180910390f35b6102c6610619565b600160003373ffffffffffffffffffffffffffffffffffffffff1673ffffffffffffffffffffffffffffffffffffffff16815260200190815260200160002080548060200260200160405190810160405280929190818152602001828054801561038557602002820191906000526020600020905b8160009054906101000a900473ffffffffffffffffffffffffffffffffffffffff1673ffffffffffffffffffffffffffffffffffffffff168152602001906001019080831161033b575b5050505050905090565b60005481565b6000808b8b8b8b8b8b8b8b8b8b6103aa61062d565b808b73ffffffffffffffffffffffffffffffffffffffff1673ffffffffffffffffffffffffffffffffffffffff16815260200180602001806020018a1515151581526020018915151515815260200188815260200187815260200186815260200185815260200184815260200183810383528c818151815260200191508051906020019080838360005b8381101561044f578082015181840152602081019050610434565b50505050905090810190601f16801561047c5780820380516001836020036101000a031916815260200191505b5083810382528b818151815260200191508051906020019080838360005b838110156104b557808201518184015260208101905061049a565b50505050905090810190601f1680156104e25780820380516001836020036101000a031916815260200191505b509c50505050505050505050505050604051809103906000f080151561050757600080fd5b9050600160003373ffffffffffffffffffffffffffffffffffffffff1673ffffffffffffffffffffffffffffffffffffffff168152602001908152602001600020805480600101828161055a919061063d565b9160005260206000209001600083909190916101000a81548173ffffffffffffffffffffffffffffffffffffffff021916908373ffffffffffffffffffffffffffffffffffffffff1602179055505060016000808282540192505081905550809150509a9950505050505050505050565b6001602052816000526040600020818154811015156105e657fe5b90600052602060002090016000915091509054906101000a900473ffffffffffffffffffffffffffffffffffffffff1681565b602060405190810160405280600081525090565b604051611ae48061068f83390190565b815481835581811511610664578183600052602060002091820191016106639190610669565b5b505050565b61068b91905b8082111561068757600081600090555060010161066f565b5090565b9056006060604052600080556001600260006101000a81548160ff021916908315150217905550600060065560006007556000600b60006101000a81548160ff0219169083151502179055506000600b60016101000a81548160ff0219169083151502179055506103e8600c55655af3107a4000600d556001600e55612710600f556103e860105534156200009057600080fd5b60405162001ae438038062001ae48339810160405280805190602001909190805182019190602001805182019190602001805190602001909190805190602001909190805190602001909190805190602001909190805190602001909190805190602001909190805190602001909190505089600860006101000a81548173ffffffffffffffffffffffffffffffffffffffff021916908373ffffffffffffffffffffffffffffffffffffffff16021790555088600990805190602001906200015b929190620002f7565b5087600a908051906020019062000174929190620002f7565b5086600b60006101000a81548160ff02191690831515021790555085600b60016101000a81548160ff02191690831515021790555084600c8190555083600d8190555082600f819055508160108190555080600581905550426003819055507f3c21ca11f997fb410582d3da35bcce2af5946a810a1cb48c4404293fd90c6b43600860009054906101000a900473ffffffffffffffffffffffffffffffffffffffff166009604051808373ffffffffffffffffffffffffffffffffffffffff1673ffffffffffffffffffffffffffffffffffffffff16815260200180602001828103825283818154600181600116156101000203166002900481526020019150805460018160011615610100020316600290048015620002d85780601f10620002ac57610100808354040283529160200191620002d8565b820191906000526020600020905b815481529060010190602001808311620002ba57829003601f168201915b5050935050505060405180910390a150505050505050505050620003a6565b828054600181600116156101000203166002900490600052602060002090601f016020900481019282601f106200033a57805160ff19168380011785556200036b565b828001600101855582156200036b579182015b828111156200036a5782518255916020019190600101906200034d565b5b5090506200037a91906200037e565b5090565b620003a391905b808211156200039f57600081600090555060010162000385565b5090565b90565b61172e80620003b66000396000f300606060405260043610610175576000357c0100000000000000000000000000000000000000000000000000000000900463ffffffff168063031b3677146101e25780630baf0375146102415780630c3d51571461026a5780631dbf3bc7146102935780631ea48870146102b65780632cecddc11461030757806330f1deb91461033457806339b8dc401461038157806354fd4d50146103aa57806355134bf7146103d35780635896521b146103fc57806358a6575c1461042557806359afc278146104b35780635b987a71146104dc5780636abf4d26146105295780636f9fb98a1461055257806375d0c0dc1461057b578063893d20e814610609578063957aa58c1461065e578063962ffeae1461068b5780639c5ed3d6146106b45780639dc29fac146106e1578063a6f2ae3a14610723578063ba1de6c71461072d578063d7d7714414610756578063e4849b321461077f578063e8315742146107a2578063f76e5c31146107cb578063fa2e9db8146107f4575b7f26875833861a2b006512a11f1b86edf95df96131040f3caeed72989ee98580833334604051808373ffffffffffffffffffffffffffffffffffffffff1673ffffffffffffffffffffffffffffffffffffffff1681526020018281526020019250505060405180910390a1005b34156101ed57600080fd5b610219600480803573ffffffffffffffffffffffffffffffffffffffff1690602001909190505061081d565b6040518084151515158152602001838152602001828152602001935050505060405180910390f35b341561024c57600080fd5b610254610854565b6040518082815260200191505060405180910390f35b341561027557600080fd5b61027d61085a565b6040518082815260200191505060405180910390f35b341561029e57600080fd5b6102b46004808035906020019091905050610860565b005b34156102c157600080fd5b6102ed600480803573ffffffffffffffffffffffffffffffffffffffff1690602001909190505061096c565b604051808215151515815260200191505060405180910390f35b341561031257600080fd5b61031a6109c5565b604051808215151515815260200191505060405180910390f35b341561033f57600080fd5b61036b600480803573ffffffffffffffffffffffffffffffffffffffff169060200190919050506109d8565b6040518082815260200191505060405180910390f35b341561038c57600080fd5b610394610a24565b6040518082815260200191505060405180910390f35b34156103b557600080fd5b6103bd610a2a565b6040518082815260200191505060405180910390f35b34156103de57600080fd5b6103e6610a30565b6040518082815260200191505060405180910390f35b341561040757600080fd5b61040f610a36565b6040518082815260200191505060405180910390f35b341561043057600080fd5b610438610a40565b6040518080602001828103825283818151815260200191508051906020019080838360005b8381101561047857808201518184015260208101905061045d565b50505050905090810190601f1680156104a55780820380516001836020036101000a031916815260200191505b509250505060405180910390f35b34156104be57600080fd5b6104c6610ade565b6040518082815260200191505060405180910390f35b34156104e757600080fd5b610513600480803573ffffffffffffffffffffffffffffffffffffffff16906020019091905050610ae4565b6040518082815260200191505060405180910390f35b341561053457600080fd5b61053c610b30565b6040518082815260200191505060405180910390f35b341561055d57600080fd5b610565610b36565b6040518082815260200191505060405180910390f35b341561058657600080fd5b61058e610b55565b6040518080602001828103825283818151815260200191508051906020019080838360005b838110156105ce5780820151818401526020810190506105b3565b50505050905090810190601f1680156105fb5780820380516001836020036101000a031916815260200191505b509250505060405180910390f35b341561061457600080fd5b61061c610bf3565b604051808273ffffffffffffffffffffffffffffffffffffffff1673ffffffffffffffffffffffffffffffffffffffff16815260200191505060405180910390f35b341561066957600080fd5b610671610c1d565b604051808215151515815260200191505060405180910390f35b341561069657600080fd5b61069e610c30565b6040518082815260200191505060405180910390f35b34156106bf57600080fd5b6106c7610c36565b604051808215151515815260200191505060405180910390f35b34156106ec57600080fd5b610721600480803573ffffffffffffffffffffffffffffffffffffffff16906020019091908035906020019091905050610c49565b005b61072b610ec5565b005b341561073857600080fd5b6107406112b4565b6040518082815260200191505060405180910390f35b341561076157600080fd5b6107696112ba565b6040518082815260200191505060405180910390f35b341561078a57600080fd5b6107a060048080359060200190919050506112f8565b005b34156107ad57600080fd5b6107b561159d565b6040518082815260200191505060405180910390f35b34156107d657600080fd5b6107de6115a3565b6040518082815260200191505060405180910390f35b34156107ff57600080fd5b61080761160f565b6040518082815260200191505060405180910390f35b60016020528060005260406000206000915090508060000160009054906101000a900460ff16908060010154908060020154905083565b600d5481565b60035481565b600260009054906101000a900460ff16151561087b57600080fd5b600860009054906101000a900473ffffffffffffffffffffffffffffffffffffffff1673ffffffffffffffffffffffffffffffffffffffff163373ffffffffffffffffffffffffffffffffffffffff161415156108d757600080fd5b600b60019054906101000a900460ff1615156108f257600080fd5b3373ffffffffffffffffffffffffffffffffffffffff166108fc829081150290604051600060405180830381858888f19350505050151561093257600080fd5b7f7f36875e1aa63a260a86253b4178fbeb52d1d36819b47a29d15ec2a259e49efa816040518082815260200191505060405180910390a150565b6000600160008373ffffffffffffffffffffffffffffffffffffffff1673ffffffffffffffffffffffffffffffffffffffff16815260200190815260200160002060000160009054906101000a900460ff169050919050565b600b60009054906101000a900460ff1681565b6000600160008373ffffffffffffffffffffffffffffffffffffffff1673ffffffffffffffffffffffffffffffffffffffff168152602001908152602001600020600101549050919050565b60055481565b60005481565b60105481565b6000600754905090565b600a8054600181600116156101000203166002900480601f016020809104026020016040519081016040528092919081815260200182805460018160011615610100020316600290048015610ad65780601f10610aab57610100808354040283529160200191610ad6565b820191906000526020600020905b815481529060010190602001808311610ab957829003601f168201915b505050505081565b600e5481565b6000600160008373ffffffffffffffffffffffffffffffffffffffff1673ffffffffffffffffffffffffffffffffffffffff168152602001908152602001600020600201549050919050565b600f5481565b60003073ffffffffffffffffffffffffffffffffffffffff1631905090565b60098054600181600116156101000203166002900480601f016020809104026020016040519081016040528092919081815260200182805460018160011615610100020316600290048015610beb5780601f10610bc057610100808354040283529160200191610beb565b820191906000526020600020905b815481529060010190602001808311610bce57829003601f168201915b505050505081565b6000600860009054906101000a900473ffffffffffffffffffffffffffffffffffffffff16905090565b600260009054906101000a900460ff1681565b60075481565b600b60019054906101000a900460ff1681565b600260009054906101000a900460ff161515610c6457600080fd5b600860009054906101000a900473ffffffffffffffffffffffffffffffffffffffff1673ffffffffffffffffffffffffffffffffffffffff163373ffffffffffffffffffffffffffffffffffffffff16141515610cc057600080fd5b600b60009054906101000a900460ff161515610cdb57600080fd5b610ce48261096c565b1515610cef57600080fd5b610d4481600160008573ffffffffffffffffffffffffffffffffffffffff1673ffffffffffffffffffffffffffffffffffffffff1681526020019081526020016000206001015461161590919063ffffffff16565b600160008473ffffffffffffffffffffffffffffffffffffffff1673ffffffffffffffffffffffffffffffffffffffff168152602001908152602001600020600101819055506000600160008473ffffffffffffffffffffffffffffffffffffffff1673ffffffffffffffffffffffffffffffffffffffff168152602001908152602001600020600101541415610e5857600160008373ffffffffffffffffffffffffffffffffffffffff1673ffffffffffffffffffffffffffffffffffffffff168152602001908152602001600020600080820160006101000a81549060ff0219169055600182016000905560028201600090555050610e51600160075461161590919063ffffffff16565b6007819055505b610e6d8160065461161590919063ffffffff16565b6006819055508173ffffffffffffffffffffffffffffffffffffffff167fcc16f5dbb4873280815c1ee09dbd06736cffcc184412cf7a71a0fdb75d397ca5826040518082815260200191505060405180910390a25050565b6000806000600260009054906101000a900460ff161515610ee557600080fd5b600034111515610ef457600080fd5b610efc6115a3565b92508234111515610f0c57600080fd5b60009150600090505b34610f29848461162e90919063ffffffff16565b108015610f4c5750600c54610f498260065461162e90919063ffffffff16565b11155b15610f8b57610f64838361162e90919063ffffffff16565b9150610f7a60018261162e90919063ffffffff16565b9050610f846115a3565b9250610f15565b600081111515610f9a57600080fd5b610fa33361096c565b151561105f5760606040519081016040528060011515815260200182815260200183815250600160003373ffffffffffffffffffffffffffffffffffffffff1673ffffffffffffffffffffffffffffffffffffffff16815260200190815260200160002060008201518160000160006101000a81548160ff0219169083151502179055506020820151816001015560408201518160020155905050611054600160075461162e90919063ffffffff16565b600781905550611196565b6110b481600160003373ffffffffffffffffffffffffffffffffffffffff1673ffffffffffffffffffffffffffffffffffffffff1681526020019081526020016000206001015461162e90919063ffffffff16565b600160003373ffffffffffffffffffffffffffffffffffffffff1673ffffffffffffffffffffffffffffffffffffffff1681526020019081526020016000206001018190555061114f82600160003373ffffffffffffffffffffffffffffffffffffffff1673ffffffffffffffffffffffffffffffffffffffff1681526020019081526020016000206002015461162e90919063ffffffff16565b600160003373ffffffffffffffffffffffffffffffffffffffff1673ffffffffffffffffffffffffffffffffffffffff168152602001908152602001600020600201819055505b6111ab8160065461162e90919063ffffffff16565b60068190555060006111c6833461161590919063ffffffff16565b111561121f573373ffffffffffffffffffffffffffffffffffffffff166108fc6111f9843461161590919063ffffffff16565b9081150290604051600060405180830381858888f19350505050151561121e57600080fd5b5b3373ffffffffffffffffffffffffffffffffffffffff167fe3d4187f6ca4248660cc0ac8b8056515bac4a8132be2eca31d6d0cc170722a7e600160003373ffffffffffffffffffffffffffffffffffffffff1673ffffffffffffffffffffffffffffffffffffffff168152602001908152602001600020600101546040518082815260200191505060405180910390a2505050565b60065481565b60008060065414156112cf57600090506112f5565b6112f23073ffffffffffffffffffffffffffffffffffffffff163160065461164c565b90505b90565b6000600260009054906101000a900460ff16151561131557600080fd5b61131e3361096c565b151561132957600080fd5b6113316112ba565b905061138882600160003373ffffffffffffffffffffffffffffffffffffffff1673ffffffffffffffffffffffffffffffffffffffff1681526020019081526020016000206001015461161590919063ffffffff16565b600160003373ffffffffffffffffffffffffffffffffffffffff1673ffffffffffffffffffffffffffffffffffffffff168152602001908152602001600020600101819055506000600160003373ffffffffffffffffffffffffffffffffffffffff1673ffffffffffffffffffffffffffffffffffffffff16815260200190815260200160002060010154141561149c57600160003373ffffffffffffffffffffffffffffffffffffffff1673ffffffffffffffffffffffffffffffffffffffff168152602001908152602001600020600080820160006101000a81549060ff0219169055600182016000905560028201600090555050611495600160075461161590919063ffffffff16565b6007819055505b6114b18260065461161590919063ffffffff16565b6006819055503373ffffffffffffffffffffffffffffffffffffffff166108fc6114e4848461166790919063ffffffff16565b9081150290604051600060405180830381858888f19350505050151561150957600080fd5b3373ffffffffffffffffffffffffffffffffffffffff167f5e5e995ce3133561afceaa51a9a154d5db228cd7525d34df5185582c18d3df09600160003373ffffffffffffffffffffffffffffffffffffffff1673ffffffffffffffffffffffffffffffffffffffff168152602001908152602001600020600101546040518082815260200191505060405180910390a25050565b600c5481565b60006001600e5414156115ba57600d54905061160c565b6116096115e86115d760105460065461164c90919063ffffffff16565b600d5461166790919063ffffffff16565b6115fb600d54600f54600654600261169a565b61162e90919063ffffffff16565b90505b90565b60045481565b600082821115151561162357fe5b818303905092915050565b600080828401905083811015151561164257fe5b8091505092915050565b600080828481151561165a57fe5b0490508091505092915050565b60008082840290506000841480611688575082848281151561168557fe5b04145b151561169057fe5b8091505092915050565b60008060008060008093506001925060019150600090505b858110156116f35780880a82848b028115156116ca57fe5b048115156116d457fe5b04840193508087038302925060018101820291508060010190506116b2565b839450505050509493505050505600a165627a7a7230582020da903978a1aa97fb8ec635b6072ca634fc900a670606c10317a2f6dfaee6990029a165627a7a72305820fd727d1093439c7bb22464ea399ee0b4d11ff80a211cbbf1a9515f081acc9ef80029",
  "source": "pragma solidity 0.4.18;\nimport './Servesa.sol';\n\ncontract ServesaFactory {\n  uint public contractCount;\n  mapping(address => address[]) public contracts;\n\n  function newContract(\n    address ownerAddress,\n    string contractName,\n    string contractAvatarUrl,\n    bool ownerCanBurn,\n    bool ownerCanSpend,\n    uint maxTokens,\n    uint tokenBasePrice,\n    uint tokenPriceExponentDivisor,\n    uint tokenPriceLinearDivisor,\n    uint sunsetWithdrawPeriod) public returns (address newAddress) {\n\n    Servesa contractId = new Servesa(\n      ownerAddress,\n      contractName,\n      contractAvatarUrl,\n      ownerCanBurn,\n      ownerCanSpend,\n      maxTokens,\n      tokenBasePrice,\n      tokenPriceExponentDivisor,\n      tokenPriceLinearDivisor,\n      sunsetWithdrawPeriod\n    );\n\n    contracts[msg.sender].push(contractId);\n    contractCount += 1;\n\n    return contractId;\n  }\n\n  function getContractAddress() public constant returns (address[]) {\n    return contracts[msg.sender];\n  }\n}\n",
  "sourcePath": "/Users/mattlovan/Projects/notLinkedIn/contracts/ServesaFactory.sol",
  "compiler": {
    "name": "solc",
    "version": "0.4.18+commit.9cf6e910.Emscripten.clang"
  },
  "schemaVersion": "1.0.1",
  "updatedAt": "2018-01-15T17:24:50.014Z"
}