{
  "contractName": "Servesa",
  "abi": [
    {
      "constant": true,
      "inputs": [
        {
          "name": "",
          "type": "address"
        }
      ],
      "name": "funders",
      "outputs": [
        {
          "name": "exists",
          "type": "bool"
        },
        {
          "name": "tokenCount",
          "type": "uint256"
        },
        {
          "name": "totalPurchasePrice",
          "type": "uint256"
        }
      ],
      "payable": false,
      "stateMutability": "view",
      "type": "function"
    },
    {
      "constant": true,
      "inputs": [],
      "name": "tokenBasePrice",
      "outputs": [
        {
          "name": "",
          "type": "uint256"
        }
      ],
      "payable": false,
      "stateMutability": "view",
      "type": "function"
    },
    {
      "constant": true,
      "inputs": [],
      "name": "contractStartTime",
      "outputs": [
        {
          "name": "",
          "type": "uint256"
        }
      ],
      "payable": false,
      "stateMutability": "view",
      "type": "function"
    },
    {
      "constant": false,
      "inputs": [
        {
          "name": "amount",
          "type": "uint256"
        }
      ],
      "name": "spend",
      "outputs": [],
      "payable": false,
      "stateMutability": "nonpayable",
      "type": "function"
    },
    {
      "constant": true,
      "inputs": [
        {
          "name": "addr",
          "type": "address"
        }
      ],
      "name": "isFunder",
      "outputs": [
        {
          "name": "",
          "type": "bool"
        }
      ],
      "payable": false,
      "stateMutability": "view",
      "type": "function"
    },
    {
      "constant": true,
      "inputs": [],
      "name": "ownerCanBurn",
      "outputs": [
        {
          "name": "",
          "type": "bool"
        }
      ],
      "payable": false,
      "stateMutability": "view",
      "type": "function"
    },
    {
      "constant": true,
      "inputs": [
        {
          "name": "addr",
          "type": "address"
        }
      ],
      "name": "getFunderTokens",
      "outputs": [
        {
          "name": "",
          "type": "uint256"
        }
      ],
      "payable": false,
      "stateMutability": "view",
      "type": "function"
    },
    {
      "constant": true,
      "inputs": [],
      "name": "sunsetWithdrawalPeriod",
      "outputs": [
        {
          "name": "",
          "type": "uint256"
        }
      ],
      "payable": false,
      "stateMutability": "view",
      "type": "function"
    },
    {
      "constant": true,
      "inputs": [],
      "name": "version",
      "outputs": [
        {
          "name": "",
          "type": "uint256"
        }
      ],
      "payable": false,
      "stateMutability": "view",
      "type": "function"
    },
    {
      "constant": true,
      "inputs": [],
      "name": "tokenPriceLinearDivisor",
      "outputs": [
        {
          "name": "",
          "type": "uint256"
        }
      ],
      "payable": false,
      "stateMutability": "view",
      "type": "function"
    },
    {
      "constant": true,
      "inputs": [],
      "name": "getCurrentTotalFunders",
      "outputs": [
        {
          "name": "",
          "type": "uint256"
        }
      ],
      "payable": false,
      "stateMutability": "view",
      "type": "function"
    },
    {
      "constant": true,
      "inputs": [
        {
          "name": "addr",
          "type": "address"
        }
      ],
      "name": "tokenPriceExponent",
      "outputs": [
        {
          "name": "",
          "type": "uint256"
        }
      ],
      "payable": false,
      "stateMutability": "view",
      "type": "function"
    },
    {
      "constant": true,
      "inputs": [
        {
          "name": "addr",
          "type": "address"
        }
      ],
      "name": "getFunderPurchase",
      "outputs": [
        {
          "name": "",
          "type": "uint256"
        }
      ],
      "payable": false,
      "stateMutability": "view",
      "type": "function"
    },
    {
      "constant": true,
      "inputs": [],
      "name": "tokenPriceExponentDivisor",
      "outputs": [
        {
          "name": "",
          "type": "uint256"
        }
      ],
      "payable": false,
      "stateMutability": "view",
      "type": "function"
    },
    {
      "constant": true,
      "inputs": [],
      "name": "getContractBalance",
      "outputs": [
        {
          "name": "balance",
          "type": "uint256"
        }
      ],
      "payable": false,
      "stateMutability": "view",
      "type": "function"
    },
    {
      "constant": true,
      "inputs": [],
      "name": "contractName",
      "outputs": [
        {
          "name": "",
          "type": "string"
        }
      ],
      "payable": false,
      "stateMutability": "view",
      "type": "function"
    },
    {
      "constant": true,
      "inputs": [],
      "name": "getOwner",
      "outputs": [
        {
          "name": "",
          "type": "address"
        }
      ],
      "payable": false,
      "stateMutability": "view",
      "type": "function"
    },
    {
      "constant": true,
      "inputs": [],
      "name": "live",
      "outputs": [
        {
          "name": "",
          "type": "bool"
        }
      ],
      "payable": false,
      "stateMutability": "view",
      "type": "function"
    },
    {
      "constant": true,
      "inputs": [],
      "name": "totalCurrentFunders",
      "outputs": [
        {
          "name": "",
          "type": "uint256"
        }
      ],
      "payable": false,
      "stateMutability": "view",
      "type": "function"
    },
    {
      "constant": true,
      "inputs": [],
      "name": "ownerCanSpend",
      "outputs": [
        {
          "name": "",
          "type": "bool"
        }
      ],
      "payable": false,
      "stateMutability": "view",
      "type": "function"
    },
    {
      "constant": false,
      "inputs": [
        {
          "name": "burnAddress",
          "type": "address"
        },
        {
          "name": "tokenCount",
          "type": "uint256"
        }
      ],
      "name": "burn",
      "outputs": [],
      "payable": false,
      "stateMutability": "nonpayable",
      "type": "function"
    },
    {
      "constant": false,
      "inputs": [],
      "name": "buy",
      "outputs": [
        {
          "name": "",
          "type": "uint256"
        }
      ],
      "payable": true,
      "stateMutability": "payable",
      "type": "function"
    },
    {
      "constant": true,
      "inputs": [],
      "name": "totalCurrentTokens",
      "outputs": [
        {
          "name": "",
          "type": "uint256"
        }
      ],
      "payable": false,
      "stateMutability": "view",
      "type": "function"
    },
    {
      "constant": true,
      "inputs": [],
      "name": "calculateNextSellPrice",
      "outputs": [
        {
          "name": "",
          "type": "uint256"
        }
      ],
      "payable": false,
      "stateMutability": "view",
      "type": "function"
    },
    {
      "constant": false,
      "inputs": [
        {
          "name": "tokenCount",
          "type": "uint256"
        }
      ],
      "name": "sell",
      "outputs": [
        {
          "name": "",
          "type": "uint256"
        }
      ],
      "payable": false,
      "stateMutability": "nonpayable",
      "type": "function"
    },
    {
      "constant": true,
      "inputs": [],
      "name": "maxTokens",
      "outputs": [
        {
          "name": "",
          "type": "uint256"
        }
      ],
      "payable": false,
      "stateMutability": "view",
      "type": "function"
    },
    {
      "constant": true,
      "inputs": [],
      "name": "calculateNextBuyPrice",
      "outputs": [
        {
          "name": "",
          "type": "uint256"
        }
      ],
      "payable": false,
      "stateMutability": "view",
      "type": "function"
    },
    {
      "inputs": [
        {
          "name": "ownerAddress",
          "type": "address"
        },
        {
          "name": "contractNameInit",
          "type": "string"
        },
        {
          "name": "ownerCanBurnInit",
          "type": "bool"
        },
        {
          "name": "ownerCanSpendInit",
          "type": "bool"
        },
        {
          "name": "maxTokensInit",
          "type": "uint256"
        },
        {
          "name": "tokenBasePriceInit",
          "type": "uint256"
        },
        {
          "name": "tokenPriceExponentInit",
          "type": "uint256"
        },
        {
          "name": "tokenPriceExponentDivisorInit",
          "type": "uint256"
        },
        {
          "name": "sunsetWithdrawPeriodInit",
          "type": "uint256"
        }
      ],
      "payable": false,
      "stateMutability": "view",
      "type": "function",
      "constant": true,
      "name": "sunsetWithdrawDate",
      "outputs": [
        {
          "name": "",
          "type": "uint256"
        }
      ]
    },
    {
      "payable": false,
      "stateMutability": "nonpayable",
      "type": "constructor",
      "inputs": [
        {
          "name": "ownerAddress",
          "type": "address"
        },
        {
          "name": "contractNameInit",
          "type": "string"
        },
        {
          "name": "ownerCanBurnInit",
          "type": "bool"
        },
        {
          "name": "ownerCanSpendInit",
          "type": "bool"
        },
        {
          "name": "maxTokensInit",
          "type": "uint256"
        },
        {
          "name": "tokenBasePriceInit",
          "type": "uint256"
        },
        {
          "name": "tokenPriceExponentDivisorInit",
          "type": "uint256"
        },
        {
          "name": "tokenPriceLinearDivisorInit",
          "type": "uint256"
        },
        {
          "name": "sunsetWithdrawPeriodInit",
          "type": "uint256"
        }
      ]
    },
    {
      "anonymous": false,
      "inputs": [
        {
          "indexed": false,
          "name": "ownerAddress",
          "type": "address"
        },
        {
          "indexed": false,
          "name": "contractName",
          "type": "string"
        }
      ],
      "name": "NewContract",
      "type": "fallback",
      "payable": true,
      "stateMutability": "payable"
    },
    {
      "anonymous": false,
      "inputs": [
        {
          "indexed": false,
          "name": "ownerAddress",
          "type": "address"
        },
        {
          "indexed": false,
          "name": "contractName",
          "type": "string"
        }
      ],
      "name": "NewContract",
      "type": "event"
    },
    {
      "anonymous": false,
      "inputs": [
        {
          "indexed": true,
          "name": "funder",
          "type": "address"
        },
        {
          "indexed": false,
          "name": "tokenCount",
          "type": "uint256"
        }
      ],
      "name": "Buy",
      "type": "event"
    },
    {
      "anonymous": false,
      "inputs": [
        {
          "indexed": true,
          "name": "funder",
          "type": "address"
        },
        {
          "indexed": false,
          "name": "tokenCount",
          "type": "uint256"
        }
      ],
      "name": "Sell",
      "type": "event"
    },
    {
      "anonymous": false,
      "inputs": [
        {
          "indexed": true,
          "name": "funder",
          "type": "address"
        },
        {
          "indexed": false,
          "name": "tokenCount",
          "type": "uint256"
        }
      ],
      "name": "Burn",
      "type": "event"
    },
    {
      "anonymous": false,
      "inputs": [
        {
          "indexed": false,
          "name": "amount",
          "type": "uint256"
        }
      ],
      "name": "Drain",
      "type": "event"
    },
    {
      "anonymous": false,
      "inputs": [
        {
          "indexed": false,
          "name": "hasSunset",
          "type": "bool"
        }
      ],
      "name": "Sunset",
      "type": "event"
    },
    {
      "anonymous": false,
      "inputs": [
        {
          "indexed": false,
          "name": "sender",
          "type": "address"
        },
        {
          "indexed": false,
          "name": "amount",
          "type": "uint256"
        }
      ],
      "name": "FallbackEvent",
      "type": "event"
    }
  ],
  "bytecode": "0x6060604052600080556001600260006101000a81548160ff021916908315150217905550600060065560006007556000600a60006101000a81548160ff0219169083151502179055506000600a60016101000a81548160ff0219169083151502179055506103e8600b55655af3107a4000600c556001600d55612710600e556103e8600f5534156200009057600080fd5b6040516200198a3803806200198a8339810160405280805190602001909190805182019190602001805190602001909190805190602001909190805190602001909190805190602001909190805190602001909190805190602001909190805190602001909190505088600860006101000a81548173ffffffffffffffffffffffffffffffffffffffff021916908373ffffffffffffffffffffffffffffffffffffffff160217905550876009908051906020019062000152929190620002d4565b5086600a60006101000a81548160ff02191690831515021790555085600a60016101000a81548160ff02191690831515021790555084600b8190555083600c8190555082600e8190555081600f8190555080600581905550426003819055507f3c21ca11f997fb410582d3da35bcce2af5946a810a1cb48c4404293fd90c6b43600860009054906101000a900473ffffffffffffffffffffffffffffffffffffffff166009604051808373ffffffffffffffffffffffffffffffffffffffff1673ffffffffffffffffffffffffffffffffffffffff16815260200180602001828103825283818154600181600116156101000203166002900481526020019150805460018160011615610100020316600290048015620002b65780601f106200028a57610100808354040283529160200191620002b6565b820191906000526020600020905b8154815290600101906020018083116200029857829003601f168201915b5050935050505060405180910390a150505050505050505062000383565b828054600181600116156101000203166002900490600052602060002090601f016020900481019282601f106200031757805160ff191683800117855562000348565b8280016001018555821562000348579182015b82811115620003475782518255916020019190600101906200032a565b5b5090506200035791906200035b565b5090565b6200038091905b808211156200037c57600081600090555060010162000362565b5090565b90565b6115f780620003936000396000f30060606040526004361061016a576000357c0100000000000000000000000000000000000000000000000000000000900463ffffffff168063031b3677146101d75780630baf0375146102365780630c3d51571461025f5780631dbf3bc7146102885780631ea48870146102ab5780632cecddc1146102fc57806330f1deb91461032957806339b8dc401461037657806354fd4d501461039f57806355134bf7146103c85780635896521b146103f157806359afc2781461041a5780635b987a71146104435780636abf4d26146104905780636f9fb98a146104b957806375d0c0dc146104e2578063893d20e814610570578063957aa58c146105c5578063962ffeae146105f25780639c5ed3d61461061b5780639dc29fac14610648578063a6f2ae3a1461068a578063ba1de6c714610694578063d7d77144146106bd578063e4849b32146106e6578063e831574214610709578063f76e5c3114610732578063fa2e9db81461075b575b7f26875833861a2b006512a11f1b86edf95df96131040f3caeed72989ee98580833334604051808373ffffffffffffffffffffffffffffffffffffffff1673ffffffffffffffffffffffffffffffffffffffff1681526020018281526020019250505060405180910390a1005b34156101e257600080fd5b61020e600480803573ffffffffffffffffffffffffffffffffffffffff16906020019091905050610784565b6040518084151515158152602001838152602001828152602001935050505060405180910390f35b341561024157600080fd5b6102496107bb565b6040518082815260200191505060405180910390f35b341561026a57600080fd5b6102726107c1565b6040518082815260200191505060405180910390f35b341561029357600080fd5b6102a960048080359060200190919050506107c7565b005b34156102b657600080fd5b6102e2600480803573ffffffffffffffffffffffffffffffffffffffff169060200190919050506108d3565b604051808215151515815260200191505060405180910390f35b341561030757600080fd5b61030f61092c565b604051808215151515815260200191505060405180910390f35b341561033457600080fd5b610360600480803573ffffffffffffffffffffffffffffffffffffffff1690602001909190505061093f565b6040518082815260200191505060405180910390f35b341561038157600080fd5b61038961098b565b6040518082815260200191505060405180910390f35b34156103aa57600080fd5b6103b2610991565b6040518082815260200191505060405180910390f35b34156103d357600080fd5b6103db610997565b6040518082815260200191505060405180910390f35b34156103fc57600080fd5b61040461099d565b6040518082815260200191505060405180910390f35b341561042557600080fd5b61042d6109a7565b6040518082815260200191505060405180910390f35b341561044e57600080fd5b61047a600480803573ffffffffffffffffffffffffffffffffffffffff169060200190919050506109ad565b6040518082815260200191505060405180910390f35b341561049b57600080fd5b6104a36109f9565b6040518082815260200191505060405180910390f35b34156104c457600080fd5b6104cc6109ff565b6040518082815260200191505060405180910390f35b34156104ed57600080fd5b6104f5610a1e565b6040518080602001828103825283818151815260200191508051906020019080838360005b8381101561053557808201518184015260208101905061051a565b50505050905090810190601f1680156105625780820380516001836020036101000a031916815260200191505b509250505060405180910390f35b341561057b57600080fd5b610583610abc565b604051808273ffffffffffffffffffffffffffffffffffffffff1673ffffffffffffffffffffffffffffffffffffffff16815260200191505060405180910390f35b34156105d057600080fd5b6105d8610ae6565b604051808215151515815260200191505060405180910390f35b34156105fd57600080fd5b610605610af9565b6040518082815260200191505060405180910390f35b341561062657600080fd5b61062e610aff565b604051808215151515815260200191505060405180910390f35b341561065357600080fd5b610688600480803573ffffffffffffffffffffffffffffffffffffffff16906020019091908035906020019091905050610b12565b005b610692610d8e565b005b341561069f57600080fd5b6106a761117d565b6040518082815260200191505060405180910390f35b34156106c857600080fd5b6106d0611183565b6040518082815260200191505060405180910390f35b34156106f157600080fd5b61070760048080359060200190919050506111c1565b005b341561071457600080fd5b61071c611466565b6040518082815260200191505060405180910390f35b341561073d57600080fd5b61074561146c565b6040518082815260200191505060405180910390f35b341561076657600080fd5b61076e6114d8565b6040518082815260200191505060405180910390f35b60016020528060005260406000206000915090508060000160009054906101000a900460ff16908060010154908060020154905083565b600c5481565b60035481565b600260009054906101000a900460ff1615156107e257600080fd5b600860009054906101000a900473ffffffffffffffffffffffffffffffffffffffff1673ffffffffffffffffffffffffffffffffffffffff163373ffffffffffffffffffffffffffffffffffffffff1614151561083e57600080fd5b600a60019054906101000a900460ff16151561085957600080fd5b3373ffffffffffffffffffffffffffffffffffffffff166108fc829081150290604051600060405180830381858888f19350505050151561089957600080fd5b7f7f36875e1aa63a260a86253b4178fbeb52d1d36819b47a29d15ec2a259e49efa816040518082815260200191505060405180910390a150565b6000600160008373ffffffffffffffffffffffffffffffffffffffff1673ffffffffffffffffffffffffffffffffffffffff16815260200190815260200160002060000160009054906101000a900460ff169050919050565b600a60009054906101000a900460ff1681565b6000600160008373ffffffffffffffffffffffffffffffffffffffff1673ffffffffffffffffffffffffffffffffffffffff168152602001908152602001600020600101549050919050565b60055481565b60005481565b600f5481565b6000600754905090565b600d5481565b6000600160008373ffffffffffffffffffffffffffffffffffffffff1673ffffffffffffffffffffffffffffffffffffffff168152602001908152602001600020600201549050919050565b600e5481565b60003073ffffffffffffffffffffffffffffffffffffffff1631905090565b60098054600181600116156101000203166002900480601f016020809104026020016040519081016040528092919081815260200182805460018160011615610100020316600290048015610ab45780601f10610a8957610100808354040283529160200191610ab4565b820191906000526020600020905b815481529060010190602001808311610a9757829003601f168201915b505050505081565b6000600860009054906101000a900473ffffffffffffffffffffffffffffffffffffffff16905090565b600260009054906101000a900460ff1681565b60075481565b600a60019054906101000a900460ff1681565b600260009054906101000a900460ff161515610b2d57600080fd5b600860009054906101000a900473ffffffffffffffffffffffffffffffffffffffff1673ffffffffffffffffffffffffffffffffffffffff163373ffffffffffffffffffffffffffffffffffffffff16141515610b8957600080fd5b600a60009054906101000a900460ff161515610ba457600080fd5b610bad826108d3565b1515610bb857600080fd5b610c0d81600160008573ffffffffffffffffffffffffffffffffffffffff1673ffffffffffffffffffffffffffffffffffffffff168152602001908152602001600020600101546114de90919063ffffffff16565b600160008473ffffffffffffffffffffffffffffffffffffffff1673ffffffffffffffffffffffffffffffffffffffff168152602001908152602001600020600101819055506000600160008473ffffffffffffffffffffffffffffffffffffffff1673ffffffffffffffffffffffffffffffffffffffff168152602001908152602001600020600101541415610d2157600160008373ffffffffffffffffffffffffffffffffffffffff1673ffffffffffffffffffffffffffffffffffffffff168152602001908152602001600020600080820160006101000a81549060ff0219169055600182016000905560028201600090555050610d1a60016007546114de90919063ffffffff16565b6007819055505b610d36816006546114de90919063ffffffff16565b6006819055508173ffffffffffffffffffffffffffffffffffffffff167fcc16f5dbb4873280815c1ee09dbd06736cffcc184412cf7a71a0fdb75d397ca5826040518082815260200191505060405180910390a25050565b6000806000600260009054906101000a900460ff161515610dae57600080fd5b600034111515610dbd57600080fd5b610dc561146c565b92508234111515610dd557600080fd5b60009150600090505b34610df284846114f790919063ffffffff16565b108015610e155750600b54610e12826006546114f790919063ffffffff16565b11155b15610e5457610e2d83836114f790919063ffffffff16565b9150610e436001826114f790919063ffffffff16565b9050610e4d61146c565b9250610dde565b600081111515610e6357600080fd5b610e6c336108d3565b1515610f285760606040519081016040528060011515815260200182815260200183815250600160003373ffffffffffffffffffffffffffffffffffffffff1673ffffffffffffffffffffffffffffffffffffffff16815260200190815260200160002060008201518160000160006101000a81548160ff0219169083151502179055506020820151816001015560408201518160020155905050610f1d60016007546114f790919063ffffffff16565b60078190555061105f565b610f7d81600160003373ffffffffffffffffffffffffffffffffffffffff1673ffffffffffffffffffffffffffffffffffffffff168152602001908152602001600020600101546114f790919063ffffffff16565b600160003373ffffffffffffffffffffffffffffffffffffffff1673ffffffffffffffffffffffffffffffffffffffff1681526020019081526020016000206001018190555061101882600160003373ffffffffffffffffffffffffffffffffffffffff1673ffffffffffffffffffffffffffffffffffffffff168152602001908152602001600020600201546114f790919063ffffffff16565b600160003373ffffffffffffffffffffffffffffffffffffffff1673ffffffffffffffffffffffffffffffffffffffff168152602001908152602001600020600201819055505b611074816006546114f790919063ffffffff16565b600681905550600061108f83346114de90919063ffffffff16565b11156110e8573373ffffffffffffffffffffffffffffffffffffffff166108fc6110c284346114de90919063ffffffff16565b9081150290604051600060405180830381858888f1935050505015156110e757600080fd5b5b3373ffffffffffffffffffffffffffffffffffffffff167fe3d4187f6ca4248660cc0ac8b8056515bac4a8132be2eca31d6d0cc170722a7e600160003373ffffffffffffffffffffffffffffffffffffffff1673ffffffffffffffffffffffffffffffffffffffff168152602001908152602001600020600101546040518082815260200191505060405180910390a2505050565b60065481565b600080600654141561119857600090506111be565b6111bb3073ffffffffffffffffffffffffffffffffffffffff1631600654611515565b90505b90565b6000600260009054906101000a900460ff1615156111de57600080fd5b6111e7336108d3565b15156111f257600080fd5b6111fa611183565b905061125182600160003373ffffffffffffffffffffffffffffffffffffffff1673ffffffffffffffffffffffffffffffffffffffff168152602001908152602001600020600101546114de90919063ffffffff16565b600160003373ffffffffffffffffffffffffffffffffffffffff1673ffffffffffffffffffffffffffffffffffffffff168152602001908152602001600020600101819055506000600160003373ffffffffffffffffffffffffffffffffffffffff1673ffffffffffffffffffffffffffffffffffffffff16815260200190815260200160002060010154141561136557600160003373ffffffffffffffffffffffffffffffffffffffff1673ffffffffffffffffffffffffffffffffffffffff168152602001908152602001600020600080820160006101000a81549060ff021916905560018201600090556002820160009055505061135e60016007546114de90919063ffffffff16565b6007819055505b61137a826006546114de90919063ffffffff16565b6006819055503373ffffffffffffffffffffffffffffffffffffffff166108fc6113ad848461153090919063ffffffff16565b9081150290604051600060405180830381858888f1935050505015156113d257600080fd5b3373ffffffffffffffffffffffffffffffffffffffff167f5e5e995ce3133561afceaa51a9a154d5db228cd7525d34df5185582c18d3df09600160003373ffffffffffffffffffffffffffffffffffffffff1673ffffffffffffffffffffffffffffffffffffffff168152602001908152602001600020600101546040518082815260200191505060405180910390a25050565b600b5481565b60006001600d54141561148357600c5490506114d5565b6114d26114b16114a0600f5460065461151590919063ffffffff16565b600c5461153090919063ffffffff16565b6114c4600c54600e546006546002611563565b6114f790919063ffffffff16565b90505b90565b60045481565b60008282111515156114ec57fe5b818303905092915050565b600080828401905083811015151561150b57fe5b8091505092915050565b600080828481151561152357fe5b0490508091505092915050565b60008082840290506000841480611551575082848281151561154e57fe5b04145b151561155957fe5b8091505092915050565b60008060008060008093506001925060019150600090505b858110156115bc5780880a82848b0281151561159357fe5b0481151561159d57fe5b048401935080870383029250600181018202915080600101905061157b565b839450505050509493505050505600a165627a7a72305820a6ea6321f5ad06fe63e673b5d9fbefe32f09b59b4dd1c3f398ac3b0a316a76430029",
  "source": "pragma solidity 0.4.18;\nimport './SafeMath.sol';\n\ncontract Servesa {\n  using SafeMath for uint256;\n\n  uint public version = 0;\n\n  struct Funder {\n    bool exists;\n    uint tokenCount;\n    uint totalPurchasePrice;\n  }\n\n  mapping(address => Funder) public funders;\n\n  bool public live = true; // For sunsetting contract\n  uint public contractStartTime;\n  uint public sunsetWithdrawDate;\n  uint public sunsetWithdrawalPeriod;\n\n  uint public totalCurrentTokens = 0;\n  uint public totalCurrentFunders = 0;\n\n  address owner;\n  string public contractName;\n  bool public ownerCanBurn = false;\n  bool public ownerCanSpend = false;\n  uint public maxTokens = 1000;\n  uint public tokenBasePrice = 100000000000000;\n  uint public tokenPriceExponent = 1;\n  uint public tokenPriceExponentDivisor = 10000;\n  uint public tokenPriceLinearDivisor = 1000;\n\n  event NewContract(address ownerAddress, string contractName);\n  event Buy(address indexed funder, uint tokenCount);\n  event Sell(address indexed funder, uint tokenCount);\n  event Burn(address indexed funder, uint tokenCount);\n  event Drain(uint amount);\n  event Sunset(bool hasSunset);\n  event FallbackEvent(address sender, uint amount);\n\n  function Servesa (\n    address ownerAddress,\n    string contractNameInit,\n    bool ownerCanBurnInit,\n    bool ownerCanSpendInit,\n    uint maxTokensInit,\n    uint tokenBasePriceInit,\n    uint tokenPriceExponentDivisorInit,\n    uint tokenPriceLinearDivisorInit,\n    uint sunsetWithdrawPeriodInit) public {\n\n    owner = ownerAddress;\n    contractName = contractNameInit;\n    ownerCanBurn = ownerCanBurnInit;\n    ownerCanSpend = ownerCanSpendInit;\n    maxTokens = maxTokensInit;\n\n    tokenBasePrice = tokenBasePriceInit;\n    tokenPriceExponentDivisor = tokenPriceExponentDivisorInit;\n    tokenPriceLinearDivisor = tokenPriceLinearDivisorInit;\n\n    sunsetWithdrawalPeriod = sunsetWithdrawPeriodInit;\n    contractStartTime = now;\n\n    NewContract(owner, contractName);\n  }\n\n  // Modifiers\n\n  // Lifecycle\n  modifier onlyWhenLive() {\n    require(live);\n    _;\n  }\n  modifier onlyWhenSunset() {\n    require(!live);\n    _;\n  }\n\n  // Auth\n  modifier onlyByOwner() {\n    require(msg.sender == owner);\n    _;\n  }\n  modifier onlyByFunder() {\n    require(isFunder(msg.sender));\n    _;\n  }\n\n  // Contract options\n  modifier canBurn() {\n    require(ownerCanBurn);\n    _;\n  }\n  modifier canSpend() {\n    require(ownerCanSpend);\n    _;\n  }\n  modifier belowMaxTokens() {\n    require(totalCurrentTokens < maxTokens);\n    _;\n  }\n\n  /*\n  * External accounts can pay directly to contract to fund it.\n  */\n  function () payable public {\n    FallbackEvent(msg.sender, msg.value);\n  }\n\n  /*\n  * Buy: exchange ETH for tokens\n  */\n  function buy() public payable onlyWhenLive {\n\n    // validate that enought value was sent\n    require(msg.value > 0);\n\n    // get token price\n    uint nextTokenPrice = calculateNextBuyPrice();\n\n    // validate that enought value was sent for at least one token\n    require(msg.value > nextTokenPrice);\n\n    // loop through calc purchase\n    uint totalCost = 0;\n    uint tokensToPurchase = 0;\n    while (totalCost.add(nextTokenPrice) < msg.value && totalCurrentTokens.add(tokensToPurchase) <= maxTokens){\n\n        // increase totalCost & tokensToPurchase\n        totalCost = totalCost.add(nextTokenPrice);\n        tokensToPurchase = tokensToPurchase.add(1);\n\n        // update nextTokenPrice\n        nextTokenPrice = calculateNextBuyPrice();\n    }\n\n    // check that sender sent enough to purchase at least one token\n    require(tokensToPurchase > 0);\n\n    // Update funders array\n    if(!isFunder(msg.sender)) {\n\n    //   add to funder map\n      funders[msg.sender] = Funder({\n        exists: true,\n        tokenCount: tokensToPurchase,\n        totalPurchasePrice: totalCost\n      });\n\n       // Increase total funder count\n      totalCurrentFunders = totalCurrentFunders.add(1);\n    }\n    else {\n      funders[msg.sender].tokenCount = funders[msg.sender].tokenCount.add(tokensToPurchase);\n      funders[msg.sender].totalPurchasePrice = funders[msg.sender].totalPurchasePrice.add(totalCost);\n    }\n\n    // increment total token count\n    totalCurrentTokens = totalCurrentTokens.add(tokensToPurchase);\n\n    // refund overage\n    if(msg.value.sub(totalCost) > 0){\n        msg.sender.transfer(msg.value.sub(totalCost));\n    }\n\n    // event\n    Buy(msg.sender, funders[msg.sender].tokenCount);\n  }\n\n  /*\n  * Sell: exchange tokens for ETH\n  */\n  function sell(uint tokenCount) public onlyWhenLive onlyByFunder {\n\n    uint amount = calculateNextSellPrice();\n\n    // decrease seller's token count\n    funders[msg.sender].tokenCount = funders[msg.sender].tokenCount.sub(tokenCount);\n\n    // remove founder if count == 0\n    if(funders[msg.sender].tokenCount == 0){\n        delete funders[msg.sender];\n        totalCurrentFunders = totalCurrentFunders.sub(1);\n    }\n\n    // decrement token count\n    totalCurrentTokens = totalCurrentTokens.sub(tokenCount);\n\n    // Interaction\n    msg.sender.transfer(amount.mul(tokenCount));\n\n    // event\n    Sell(msg.sender, funders[msg.sender].tokenCount);\n  }\n\n  /*\n  * Burn: delete tokens without affecting escrow balance\n  */\n  function burn(address burnAddress, uint tokenCount) public onlyWhenLive onlyByOwner canBurn {\n\n    // addr must be funder\n    require(isFunder(burnAddress));\n\n    // decrease targets's token count\n    funders[burnAddress].tokenCount = funders[burnAddress].tokenCount.sub(tokenCount);\n\n    // remove target if count == 0\n    if(funders[burnAddress].tokenCount == 0){\n        delete funders[burnAddress];\n        totalCurrentFunders = totalCurrentFunders.sub(1);\n    }\n\n    // decrement token count\n    totalCurrentTokens = totalCurrentTokens.sub(tokenCount);\n\n    // event\n    Burn(burnAddress, tokenCount);\n  }\n\n  /*\n  * Spend: remove balance\n  */\n  function spend(uint amount) public onlyWhenLive onlyByOwner canSpend {\n\n    // send amount from contract to owner\n    msg.sender.transfer(amount);\n\n    // event\n    Drain(amount);\n  }\n\n    // via: http://ethereum.stackexchange.com/questions/10425/is-there-any-efficient-way-to-compute-the-exponentiation-of-a-fraction-and-an-in/10432#10432\n    // Computes `k * (1+1/q) ^ N`, with precision `p`. The higher\n    // the precision, the higher the gas cost. It should be\n    // something around the log of `n`. When `p == n`, the\n    // precision is absolute (sans possible integer overflows).\n    // Much smaller values are sufficient to get a great approximation.\n    function fracExp(uint k, uint q, uint n, uint p) internal pure returns (uint) {\n      uint s = 0;\n      uint N = 1;\n      uint B = 1;\n      for (uint i = 0; i < p; ++i){\n        s += k * N / B / (q**i);\n        N  = N * (n-i);\n        B  = B * (i+1);\n      }\n      return s;\n    }\n\n  /*\n  * use pricing function to determine next share's 'buy' price\n  */\n  function calculateNextBuyPrice() public view returns (uint){\n\n    if(tokenPriceExponent == 1){\n        return tokenBasePrice;\n    } else {\n        return fracExp(tokenBasePrice, tokenPriceExponentDivisor, totalCurrentTokens, 2).add(tokenBasePrice.mul(totalCurrentTokens.div(tokenPriceLinearDivisor)));\n    }\n  }\n\n  /*\n  * use pricing function to determine the current share 'sell' price\n  */\n  function calculateNextSellPrice() public view returns (uint){\n    if(totalCurrentTokens == 0){\n        return 0;\n    } else {\n        return SafeMath.div(this.balance, totalCurrentTokens);\n    }\n  }\n\n  // Getter functions\n  function getOwner() public view returns (address) {\n    return owner;\n  }\n\n  function getCurrentTotalFunders() public constant returns (uint) {\n    return totalCurrentFunders;\n  }\n\n  function getContractBalance() public constant returns (uint256 balance) {\n    balance = this.balance;\n  }\n\n  function isFunder(address addr) public constant returns (bool) {\n    return funders[addr].exists;\n  }\n\n  function getFunderTokens(address addr) public constant returns (uint256) {\n    return funders[addr].tokenCount;\n  }\n\n  function getFunderPurchase(address addr) public constant returns (uint256) {\n    return funders[addr].totalPurchasePrice;\n  }\n\n}\n",
  "sourcePath": "/Users/mattlovan/Projects/notLinkedIn/contracts/Servesa.sol",
  "compiler": {
    "name": "solc",
    "version": "0.4.18+commit.9cf6e910.Emscripten.clang"
  },
  "schemaVersion": "1.0.1",
  "updatedAt": "2017-12-14T01:13:19.565Z"
}