{
  "contractName": "ServesaFactory",
  "abi": [
    {
      "constant": true,
      "inputs": [],
      "name": "getContractAddress",
      "outputs": [
        {
          "name": "",
          "type": "address[]"
        }
      ],
      "payable": false,
      "stateMutability": "view",
      "type": "function"
    },
    {
      "constant": true,
      "inputs": [],
      "name": "contractCount",
      "outputs": [
        {
          "name": "",
          "type": "uint256"
        }
      ],
      "payable": false,
      "stateMutability": "view",
      "type": "function"
    },
    {
      "constant": false,
      "inputs": [
        {
          "name": "ownerAddress",
          "type": "address"
        },
        {
          "name": "contractName",
          "type": "string"
        },
        {
          "name": "ownerCanBurn",
          "type": "bool"
        },
        {
          "name": "ownerCanSpend",
          "type": "bool"
        },
        {
          "name": "maxTokens",
          "type": "uint256"
        },
        {
          "name": "tokenBasePrice",
          "type": "uint256"
        },
        {
          "name": "tokenPriceExponentDivisor",
          "type": "uint256"
        },
        {
          "name": "tokenPriceLinearDivisor",
          "type": "uint256"
        },
        {
          "name": "sunsetWithdrawPeriod",
          "type": "uint256"
        }
      ],
      "name": "newContract",
      "outputs": [
        {
          "name": "newAddress",
          "type": "address"
        }
      ],
      "payable": false,
      "stateMutability": "nonpayable",
      "type": "function"
    },
    {
      "constant": true,
      "inputs": [
        {
          "name": "",
          "type": "address"
        },
        {
          "name": "",
          "type": "uint256"
        },
        {
          "name": "ownerCanBurn",
          "type": "bool"
        },
        {
          "name": "ownerCanSpend",
          "type": "bool"
        },
        {
          "name": "tokenBasePrice",
          "type": "uint256"
        },
        {
          "name": "tokenPriceExponent",
          "type": "uint256"
        },
        {
          "name": "sunsetWithdrawPeriod",
          "type": "uint256"
        }
      ],
      "name": "contracts",
      "outputs": [
        {
          "name": "",
          "type": "address"
        }
      ],
      "payable": false,
      "stateMutability": "view",
      "type": "function"
    }
  ],
  "bytecode": "0x6060604052341561000f57600080fd5b611f938061001e6000396000f300606060405260043610610062576000357c0100000000000000000000000000000000000000000000000000000000900463ffffffff16806332a2c5d0146100675780638736381a146100d1578063bce3f783146100fa578063ed23f8c3146101f9575b600080fd5b341561007257600080fd5b61007a61027b565b6040518080602001828103825283818151815260200191508051906020019060200280838360005b838110156100bd5780820151818401526020810190506100a2565b505050509050019250505060405180910390f35b34156100dc57600080fd5b6100e461034c565b6040518082815260200191505060405180910390f35b341561010557600080fd5b6101b7600480803573ffffffffffffffffffffffffffffffffffffffff1690602001909190803590602001908201803590602001908080601f0160208091040260200160405190810160405280939291908181526020018383808284378201915050505050509190803515159060200190919080351515906020019091908035906020019091908035906020019091908035906020019091908035906020019091908035906020019091905050610352565b604051808273ffffffffffffffffffffffffffffffffffffffff1673ffffffffffffffffffffffffffffffffffffffff16815260200191505060405180910390f35b341561020457600080fd5b610239600480803573ffffffffffffffffffffffffffffffffffffffff1690602001909190803590602001909190505061051a565b604051808273ffffffffffffffffffffffffffffffffffffffff1673ffffffffffffffffffffffffffffffffffffffff16815260200191505060405180910390f35b610283610568565b600160003373ffffffffffffffffffffffffffffffffffffffff1673ffffffffffffffffffffffffffffffffffffffff16815260200190815260200160002080548060200260200160405190810160405280929190818152602001828054801561034257602002820191906000526020600020905b8160009054906101000a900473ffffffffffffffffffffffffffffffffffffffff1673ffffffffffffffffffffffffffffffffffffffff16815260200190600101908083116102f8575b5050505050905090565b60005481565b6000808a8a8a8a8a8a8a8a8a61036661057c565b808a73ffffffffffffffffffffffffffffffffffffffff1673ffffffffffffffffffffffffffffffffffffffff16815260200180602001891515151581526020018815151515815260200187815260200186815260200185815260200184815260200183815260200182810382528a818151815260200191508051906020019080838360005b838110156104075780820151818401526020810190506103ec565b50505050905090810190601f1680156104345780820380516001836020036101000a031916815260200191505b509a5050505050505050505050604051809103906000f080151561045757600080fd5b9050600160003373ffffffffffffffffffffffffffffffffffffffff1673ffffffffffffffffffffffffffffffffffffffff16815260200190815260200160002080548060010182816104aa919061058c565b9160005260206000209001600083909190916101000a81548173ffffffffffffffffffffffffffffffffffffffff021916908373ffffffffffffffffffffffffffffffffffffffff1602179055505060016000808282540192505081905550809150509998505050505050505050565b60016020528160005260406000208181548110151561053557fe5b90600052602060002090016000915091509054906101000a900473ffffffffffffffffffffffffffffffffffffffff1681565b602060405190810160405280600081525090565b60405161198a806105de83390190565b8154818355818115116105b3578183600052602060002091820191016105b291906105b8565b5b505050565b6105da91905b808211156105d65760008160009055506001016105be565b5090565b9056006060604052600080556001600260006101000a81548160ff021916908315150217905550600060065560006007556000600a60006101000a81548160ff0219169083151502179055506000600a60016101000a81548160ff0219169083151502179055506103e8600b55655af3107a4000600c556001600d55612710600e556103e8600f5534156200009057600080fd5b6040516200198a3803806200198a8339810160405280805190602001909190805182019190602001805190602001909190805190602001909190805190602001909190805190602001909190805190602001909190805190602001909190805190602001909190505088600860006101000a81548173ffffffffffffffffffffffffffffffffffffffff021916908373ffffffffffffffffffffffffffffffffffffffff160217905550876009908051906020019062000152929190620002d4565b5086600a60006101000a81548160ff02191690831515021790555085600a60016101000a81548160ff02191690831515021790555084600b8190555083600c8190555082600e8190555081600f8190555080600581905550426003819055507f3c21ca11f997fb410582d3da35bcce2af5946a810a1cb48c4404293fd90c6b43600860009054906101000a900473ffffffffffffffffffffffffffffffffffffffff166009604051808373ffffffffffffffffffffffffffffffffffffffff1673ffffffffffffffffffffffffffffffffffffffff16815260200180602001828103825283818154600181600116156101000203166002900481526020019150805460018160011615610100020316600290048015620002b65780601f106200028a57610100808354040283529160200191620002b6565b820191906000526020600020905b8154815290600101906020018083116200029857829003601f168201915b5050935050505060405180910390a150505050505050505062000383565b828054600181600116156101000203166002900490600052602060002090601f016020900481019282601f106200031757805160ff191683800117855562000348565b8280016001018555821562000348579182015b82811115620003475782518255916020019190600101906200032a565b5b5090506200035791906200035b565b5090565b6200038091905b808211156200037c57600081600090555060010162000362565b5090565b90565b6115f780620003936000396000f30060606040526004361061016a576000357c0100000000000000000000000000000000000000000000000000000000900463ffffffff168063031b3677146101d75780630baf0375146102365780630c3d51571461025f5780631dbf3bc7146102885780631ea48870146102ab5780632cecddc1146102fc57806330f1deb91461032957806339b8dc401461037657806354fd4d501461039f57806355134bf7146103c85780635896521b146103f157806359afc2781461041a5780635b987a71146104435780636abf4d26146104905780636f9fb98a146104b957806375d0c0dc146104e2578063893d20e814610570578063957aa58c146105c5578063962ffeae146105f25780639c5ed3d61461061b5780639dc29fac14610648578063a6f2ae3a1461068a578063ba1de6c714610694578063d7d77144146106bd578063e4849b32146106e6578063e831574214610709578063f76e5c3114610732578063fa2e9db81461075b575b7f26875833861a2b006512a11f1b86edf95df96131040f3caeed72989ee98580833334604051808373ffffffffffffffffffffffffffffffffffffffff1673ffffffffffffffffffffffffffffffffffffffff1681526020018281526020019250505060405180910390a1005b34156101e257600080fd5b61020e600480803573ffffffffffffffffffffffffffffffffffffffff16906020019091905050610784565b6040518084151515158152602001838152602001828152602001935050505060405180910390f35b341561024157600080fd5b6102496107bb565b6040518082815260200191505060405180910390f35b341561026a57600080fd5b6102726107c1565b6040518082815260200191505060405180910390f35b341561029357600080fd5b6102a960048080359060200190919050506107c7565b005b34156102b657600080fd5b6102e2600480803573ffffffffffffffffffffffffffffffffffffffff169060200190919050506108d3565b604051808215151515815260200191505060405180910390f35b341561030757600080fd5b61030f61092c565b604051808215151515815260200191505060405180910390f35b341561033457600080fd5b610360600480803573ffffffffffffffffffffffffffffffffffffffff1690602001909190505061093f565b6040518082815260200191505060405180910390f35b341561038157600080fd5b61038961098b565b6040518082815260200191505060405180910390f35b34156103aa57600080fd5b6103b2610991565b6040518082815260200191505060405180910390f35b34156103d357600080fd5b6103db610997565b6040518082815260200191505060405180910390f35b34156103fc57600080fd5b61040461099d565b6040518082815260200191505060405180910390f35b341561042557600080fd5b61042d6109a7565b6040518082815260200191505060405180910390f35b341561044e57600080fd5b61047a600480803573ffffffffffffffffffffffffffffffffffffffff169060200190919050506109ad565b6040518082815260200191505060405180910390f35b341561049b57600080fd5b6104a36109f9565b6040518082815260200191505060405180910390f35b34156104c457600080fd5b6104cc6109ff565b6040518082815260200191505060405180910390f35b34156104ed57600080fd5b6104f5610a1e565b6040518080602001828103825283818151815260200191508051906020019080838360005b8381101561053557808201518184015260208101905061051a565b50505050905090810190601f1680156105625780820380516001836020036101000a031916815260200191505b509250505060405180910390f35b341561057b57600080fd5b610583610abc565b604051808273ffffffffffffffffffffffffffffffffffffffff1673ffffffffffffffffffffffffffffffffffffffff16815260200191505060405180910390f35b34156105d057600080fd5b6105d8610ae6565b604051808215151515815260200191505060405180910390f35b34156105fd57600080fd5b610605610af9565b6040518082815260200191505060405180910390f35b341561062657600080fd5b61062e610aff565b604051808215151515815260200191505060405180910390f35b341561065357600080fd5b610688600480803573ffffffffffffffffffffffffffffffffffffffff16906020019091908035906020019091905050610b12565b005b610692610d8e565b005b341561069f57600080fd5b6106a761117d565b6040518082815260200191505060405180910390f35b34156106c857600080fd5b6106d0611183565b6040518082815260200191505060405180910390f35b34156106f157600080fd5b61070760048080359060200190919050506111c1565b005b341561071457600080fd5b61071c611466565b6040518082815260200191505060405180910390f35b341561073d57600080fd5b61074561146c565b6040518082815260200191505060405180910390f35b341561076657600080fd5b61076e6114d8565b6040518082815260200191505060405180910390f35b60016020528060005260406000206000915090508060000160009054906101000a900460ff16908060010154908060020154905083565b600c5481565b60035481565b600260009054906101000a900460ff1615156107e257600080fd5b600860009054906101000a900473ffffffffffffffffffffffffffffffffffffffff1673ffffffffffffffffffffffffffffffffffffffff163373ffffffffffffffffffffffffffffffffffffffff1614151561083e57600080fd5b600a60019054906101000a900460ff16151561085957600080fd5b3373ffffffffffffffffffffffffffffffffffffffff166108fc829081150290604051600060405180830381858888f19350505050151561089957600080fd5b7f7f36875e1aa63a260a86253b4178fbeb52d1d36819b47a29d15ec2a259e49efa816040518082815260200191505060405180910390a150565b6000600160008373ffffffffffffffffffffffffffffffffffffffff1673ffffffffffffffffffffffffffffffffffffffff16815260200190815260200160002060000160009054906101000a900460ff169050919050565b600a60009054906101000a900460ff1681565b6000600160008373ffffffffffffffffffffffffffffffffffffffff1673ffffffffffffffffffffffffffffffffffffffff168152602001908152602001600020600101549050919050565b60055481565b60005481565b600f5481565b6000600754905090565b600d5481565b6000600160008373ffffffffffffffffffffffffffffffffffffffff1673ffffffffffffffffffffffffffffffffffffffff168152602001908152602001600020600201549050919050565b600e5481565b60003073ffffffffffffffffffffffffffffffffffffffff1631905090565b60098054600181600116156101000203166002900480601f016020809104026020016040519081016040528092919081815260200182805460018160011615610100020316600290048015610ab45780601f10610a8957610100808354040283529160200191610ab4565b820191906000526020600020905b815481529060010190602001808311610a9757829003601f168201915b505050505081565b6000600860009054906101000a900473ffffffffffffffffffffffffffffffffffffffff16905090565b600260009054906101000a900460ff1681565b60075481565b600a60019054906101000a900460ff1681565b600260009054906101000a900460ff161515610b2d57600080fd5b600860009054906101000a900473ffffffffffffffffffffffffffffffffffffffff1673ffffffffffffffffffffffffffffffffffffffff163373ffffffffffffffffffffffffffffffffffffffff16141515610b8957600080fd5b600a60009054906101000a900460ff161515610ba457600080fd5b610bad826108d3565b1515610bb857600080fd5b610c0d81600160008573ffffffffffffffffffffffffffffffffffffffff1673ffffffffffffffffffffffffffffffffffffffff168152602001908152602001600020600101546114de90919063ffffffff16565b600160008473ffffffffffffffffffffffffffffffffffffffff1673ffffffffffffffffffffffffffffffffffffffff168152602001908152602001600020600101819055506000600160008473ffffffffffffffffffffffffffffffffffffffff1673ffffffffffffffffffffffffffffffffffffffff168152602001908152602001600020600101541415610d2157600160008373ffffffffffffffffffffffffffffffffffffffff1673ffffffffffffffffffffffffffffffffffffffff168152602001908152602001600020600080820160006101000a81549060ff0219169055600182016000905560028201600090555050610d1a60016007546114de90919063ffffffff16565b6007819055505b610d36816006546114de90919063ffffffff16565b6006819055508173ffffffffffffffffffffffffffffffffffffffff167fcc16f5dbb4873280815c1ee09dbd06736cffcc184412cf7a71a0fdb75d397ca5826040518082815260200191505060405180910390a25050565b6000806000600260009054906101000a900460ff161515610dae57600080fd5b600034111515610dbd57600080fd5b610dc561146c565b92508234111515610dd557600080fd5b60009150600090505b34610df284846114f790919063ffffffff16565b108015610e155750600b54610e12826006546114f790919063ffffffff16565b11155b15610e5457610e2d83836114f790919063ffffffff16565b9150610e436001826114f790919063ffffffff16565b9050610e4d61146c565b9250610dde565b600081111515610e6357600080fd5b610e6c336108d3565b1515610f285760606040519081016040528060011515815260200182815260200183815250600160003373ffffffffffffffffffffffffffffffffffffffff1673ffffffffffffffffffffffffffffffffffffffff16815260200190815260200160002060008201518160000160006101000a81548160ff0219169083151502179055506020820151816001015560408201518160020155905050610f1d60016007546114f790919063ffffffff16565b60078190555061105f565b610f7d81600160003373ffffffffffffffffffffffffffffffffffffffff1673ffffffffffffffffffffffffffffffffffffffff168152602001908152602001600020600101546114f790919063ffffffff16565b600160003373ffffffffffffffffffffffffffffffffffffffff1673ffffffffffffffffffffffffffffffffffffffff1681526020019081526020016000206001018190555061101882600160003373ffffffffffffffffffffffffffffffffffffffff1673ffffffffffffffffffffffffffffffffffffffff168152602001908152602001600020600201546114f790919063ffffffff16565b600160003373ffffffffffffffffffffffffffffffffffffffff1673ffffffffffffffffffffffffffffffffffffffff168152602001908152602001600020600201819055505b611074816006546114f790919063ffffffff16565b600681905550600061108f83346114de90919063ffffffff16565b11156110e8573373ffffffffffffffffffffffffffffffffffffffff166108fc6110c284346114de90919063ffffffff16565b9081150290604051600060405180830381858888f1935050505015156110e757600080fd5b5b3373ffffffffffffffffffffffffffffffffffffffff167fe3d4187f6ca4248660cc0ac8b8056515bac4a8132be2eca31d6d0cc170722a7e600160003373ffffffffffffffffffffffffffffffffffffffff1673ffffffffffffffffffffffffffffffffffffffff168152602001908152602001600020600101546040518082815260200191505060405180910390a2505050565b60065481565b600080600654141561119857600090506111be565b6111bb3073ffffffffffffffffffffffffffffffffffffffff1631600654611515565b90505b90565b6000600260009054906101000a900460ff1615156111de57600080fd5b6111e7336108d3565b15156111f257600080fd5b6111fa611183565b905061125182600160003373ffffffffffffffffffffffffffffffffffffffff1673ffffffffffffffffffffffffffffffffffffffff168152602001908152602001600020600101546114de90919063ffffffff16565b600160003373ffffffffffffffffffffffffffffffffffffffff1673ffffffffffffffffffffffffffffffffffffffff168152602001908152602001600020600101819055506000600160003373ffffffffffffffffffffffffffffffffffffffff1673ffffffffffffffffffffffffffffffffffffffff16815260200190815260200160002060010154141561136557600160003373ffffffffffffffffffffffffffffffffffffffff1673ffffffffffffffffffffffffffffffffffffffff168152602001908152602001600020600080820160006101000a81549060ff021916905560018201600090556002820160009055505061135e60016007546114de90919063ffffffff16565b6007819055505b61137a826006546114de90919063ffffffff16565b6006819055503373ffffffffffffffffffffffffffffffffffffffff166108fc6113ad848461153090919063ffffffff16565b9081150290604051600060405180830381858888f1935050505015156113d257600080fd5b3373ffffffffffffffffffffffffffffffffffffffff167f5e5e995ce3133561afceaa51a9a154d5db228cd7525d34df5185582c18d3df09600160003373ffffffffffffffffffffffffffffffffffffffff1673ffffffffffffffffffffffffffffffffffffffff168152602001908152602001600020600101546040518082815260200191505060405180910390a25050565b600b5481565b60006001600d54141561148357600c5490506114d5565b6114d26114b16114a0600f5460065461151590919063ffffffff16565b600c5461153090919063ffffffff16565b6114c4600c54600e546006546002611563565b6114f790919063ffffffff16565b90505b90565b60045481565b60008282111515156114ec57fe5b818303905092915050565b600080828401905083811015151561150b57fe5b8091505092915050565b600080828481151561152357fe5b0490508091505092915050565b60008082840290506000841480611551575082848281151561154e57fe5b04145b151561155957fe5b8091505092915050565b60008060008060008093506001925060019150600090505b858110156115bc5780880a82848b0281151561159357fe5b0481151561159d57fe5b048401935080870383029250600181018202915080600101905061157b565b839450505050509493505050505600a165627a7a72305820a6ea6321f5ad06fe63e673b5d9fbefe32f09b59b4dd1c3f398ac3b0a316a76430029a165627a7a723058208983e83cce7e028697cd7ad5e76b87a3a0e4e06621acce0d19c51c71c40adb330029",
  "source": "pragma solidity 0.4.18;\nimport './Servesa.sol';\n\ncontract ServesaFactory {\n  uint public contractCount;\n  mapping(address => address[]) public contracts;\n\n  function newContract(\n    address ownerAddress,\n    string contractName,\n    bool ownerCanBurn,\n    bool ownerCanSpend,\n    uint maxTokens,\n    uint tokenBasePrice,\n    uint tokenPriceExponentDivisor,\n    uint tokenPriceLinearDivisor,\n    uint sunsetWithdrawPeriod) public returns (address newAddress) {\n\n    Servesa contractId = new Servesa(\n      ownerAddress,\n      contractName,\n      ownerCanBurn,\n      ownerCanSpend,\n      maxTokens,\n      tokenBasePrice,\n      tokenPriceExponentDivisor,\n      tokenPriceLinearDivisor,\n      sunsetWithdrawPeriod\n    );\n\n    contracts[msg.sender].push(contractId);\n    contractCount += 1;\n\n    return contractId;\n  }\n\n  function getContractAddress() public constant returns (address[]) {\n    return contracts[msg.sender];\n  }\n}\n",
  "sourcePath": "/Users/mattlovan/Projects/notLinkedIn/contracts/ServesaFactory.sol",
  "compiler": {
    "name": "solc",
    "version": "0.4.18+commit.9cf6e910.Emscripten.clang"
  },
  "schemaVersion": "1.0.1",
  "updatedAt": "2017-12-18T22:48:16.029Z"
}