{
  "contractName": "Servesa",
  "abi": [
    {
      "constant": true,
      "inputs": [
        {
          "name": "",
          "type": "address"
        }
      ],
      "name": "funders",
      "outputs": [
        {
          "name": "exists",
          "type": "bool"
        },
        {
          "name": "tokenCount",
          "type": "uint256"
        },
        {
          "name": "totalPurchasePrice",
          "type": "uint256"
        }
      ],
      "payable": false,
      "stateMutability": "view",
      "type": "function"
    },
    {
      "constant": true,
      "inputs": [],
      "name": "tokenBasePrice",
      "outputs": [
        {
          "name": "",
          "type": "uint256"
        }
      ],
      "payable": false,
      "stateMutability": "view",
      "type": "function"
    },
    {
      "constant": true,
      "inputs": [],
      "name": "contractStartTime",
      "outputs": [
        {
          "name": "",
          "type": "uint256"
        }
      ],
      "payable": false,
      "stateMutability": "view",
      "type": "function"
    },
    {
      "constant": false,
      "inputs": [
        {
          "name": "amount",
          "type": "uint256"
        }
      ],
      "name": "spend",
      "outputs": [],
      "payable": false,
      "stateMutability": "nonpayable",
      "type": "function"
    },
    {
      "constant": true,
      "inputs": [
        {
          "name": "addr",
          "type": "address"
        }
      ],
      "name": "isFunder",
      "outputs": [
        {
          "name": "",
          "type": "bool"
        }
      ],
      "payable": false,
      "stateMutability": "view",
      "type": "function"
    },
    {
      "constant": true,
      "inputs": [],
      "name": "ownerCanBurn",
      "outputs": [
        {
          "name": "",
          "type": "bool"
        }
      ],
      "payable": false,
      "stateMutability": "view",
      "type": "function"
    },
    {
      "constant": true,
      "inputs": [
        {
          "name": "addr",
          "type": "address"
        }
      ],
      "name": "getFunderTokens",
      "outputs": [
        {
          "name": "",
          "type": "uint256"
        }
      ],
      "payable": false,
      "stateMutability": "view",
      "type": "function"
    },
    {
      "constant": true,
      "inputs": [],
      "name": "sunsetWithdrawalPeriod",
      "outputs": [
        {
          "name": "",
          "type": "uint256"
        }
      ],
      "payable": false,
      "stateMutability": "view",
      "type": "function"
    },
    {
      "constant": true,
      "inputs": [],
      "name": "version",
      "outputs": [
        {
          "name": "",
          "type": "uint256"
        }
      ],
      "payable": false,
      "stateMutability": "view",
      "type": "function"
    },
    {
      "constant": true,
      "inputs": [],
      "name": "getCurrentTotalFunders",
      "outputs": [
        {
          "name": "",
          "type": "uint256"
        }
      ],
      "payable": false,
      "stateMutability": "view",
      "type": "function"
    },
    {
      "constant": true,
      "inputs": [],
      "name": "tokenPriceExponent",
      "outputs": [
        {
          "name": "",
          "type": "uint256"
        }
      ],
      "payable": false,
      "stateMutability": "view",
      "type": "function"
    },
    {
      "constant": true,
      "inputs": [
        {
          "name": "addr",
          "type": "address"
        }
      ],
      "name": "getFunderPurchase",
      "outputs": [
        {
          "name": "",
          "type": "uint256"
        }
      ],
      "payable": false,
      "stateMutability": "view",
      "type": "function"
    },
    {
      "constant": true,
      "inputs": [],
      "name": "tokenPriceExponentDivisor",
      "outputs": [
        {
          "name": "",
          "type": "uint256"
        }
      ],
      "payable": false,
      "stateMutability": "view",
      "type": "function"
    },
    {
      "constant": true,
      "inputs": [],
      "name": "getContractBalance",
      "outputs": [
        {
          "name": "balance",
          "type": "uint256"
        }
      ],
      "payable": false,
      "stateMutability": "view",
      "type": "function"
    },
    {
      "constant": true,
      "inputs": [],
      "name": "contractName",
      "outputs": [
        {
          "name": "",
          "type": "string"
        }
      ],
      "payable": false,
      "stateMutability": "view",
      "type": "function"
    },
    {
      "constant": true,
      "inputs": [],
      "name": "getOwner",
      "outputs": [
        {
          "name": "",
          "type": "address"
        }
      ],
      "payable": false,
      "stateMutability": "view",
      "type": "function"
    },
    {
      "constant": true,
      "inputs": [],
      "name": "live",
      "outputs": [
        {
          "name": "",
          "type": "bool"
        }
      ],
      "payable": false,
      "stateMutability": "view",
      "type": "function"
    },
    {
      "constant": true,
      "inputs": [],
      "name": "totalCurrentFunders",
      "outputs": [
        {
          "name": "",
          "type": "uint256"
        }
      ],
      "payable": false,
      "stateMutability": "view",
      "type": "function"
    },
    {
      "constant": true,
      "inputs": [],
      "name": "ownerCanSpend",
      "outputs": [
        {
          "name": "",
          "type": "bool"
        }
      ],
      "payable": false,
      "stateMutability": "view",
      "type": "function"
    },
    {
      "constant": false,
      "inputs": [
        {
          "name": "addr",
          "type": "address"
        },
        {
          "name": "tokenCount",
          "type": "uint256"
        }
      ],
      "name": "burn",
      "outputs": [],
      "payable": false,
      "stateMutability": "nonpayable",
      "type": "function"
    },
    {
      "constant": false,
      "inputs": [],
      "name": "buy",
      "outputs": [],
      "payable": true,
      "stateMutability": "payable",
      "type": "function"
    },
    {
      "constant": true,
      "inputs": [],
      "name": "totalCurrentTokens",
      "outputs": [
        {
          "name": "",
          "type": "uint256"
        }
      ],
      "payable": false,
      "stateMutability": "view",
      "type": "function"
    },
    {
      "constant": true,
      "inputs": [],
      "name": "calculateNextSellPrice",
      "outputs": [
        {
          "name": "",
          "type": "uint256"
        }
      ],
      "payable": false,
      "stateMutability": "view",
      "type": "function"
    },
    {
      "constant": false,
      "inputs": [
        {
          "name": "tokenCount",
          "type": "uint256"
        }
      ],
      "name": "sell",
      "outputs": [],
      "payable": false,
      "stateMutability": "nonpayable",
      "type": "function"
    },
    {
      "constant": true,
      "inputs": [],
      "name": "maxTokens",
      "outputs": [
        {
          "name": "",
          "type": "uint256"
        }
      ],
      "payable": false,
      "stateMutability": "view",
      "type": "function"
    },
    {
      "constant": true,
      "inputs": [],
      "name": "calculateNextBuyPrice",
      "outputs": [
        {
          "name": "",
          "type": "uint256"
        }
      ],
      "payable": false,
      "stateMutability": "view",
      "type": "function"
    },
    {
      "constant": true,
      "inputs": [],
      "name": "sunsetWithdrawDate",
      "outputs": [
        {
          "name": "",
          "type": "uint256"
        }
      ],
      "payable": false,
      "stateMutability": "view",
      "type": "function"
    },
    {
      "inputs": [
        {
          "name": "ownerAddress",
          "type": "address"
        },
        {
          "name": "contractNameInit",
          "type": "string"
        },
        {
          "name": "ownerCanBurnInit",
          "type": "bool"
        },
        {
          "name": "ownerCanSpendInit",
          "type": "bool"
        },
        {
          "name": "maxTokensInit",
          "type": "uint256"
        },
        {
          "name": "tokenBasePriceInit",
          "type": "uint256"
        },
        {
          "name": "tokenPriceExponentInit",
          "type": "uint256"
        },
        {
          "name": "tokenPriceExponentDivisorInit",
          "type": "uint256"
        },
        {
          "name": "sunsetWithdrawPeriodInit",
          "type": "uint256"
        }
      ],
      "payable": false,
      "stateMutability": "nonpayable",
      "type": "constructor"
    },
    {
      "payable": true,
      "stateMutability": "payable",
      "type": "fallback"
    },
    {
      "anonymous": false,
      "inputs": [
        {
          "indexed": false,
          "name": "ownerAddress",
          "type": "address"
        },
        {
          "indexed": false,
          "name": "contractName",
          "type": "string"
        }
      ],
      "name": "NewContract",
      "type": "event"
    },
    {
      "anonymous": false,
      "inputs": [
        {
          "indexed": true,
          "name": "funder",
          "type": "address"
        },
        {
          "indexed": false,
          "name": "tokenCount",
          "type": "uint256"
        }
      ],
      "name": "Buy",
      "type": "event"
    },
    {
      "anonymous": false,
      "inputs": [
        {
          "indexed": true,
          "name": "funder",
          "type": "address"
        },
        {
          "indexed": false,
          "name": "tokenCount",
          "type": "uint256"
        }
      ],
      "name": "Sell",
      "type": "event"
    },
    {
      "anonymous": false,
      "inputs": [
        {
          "indexed": true,
          "name": "funder",
          "type": "address"
        },
        {
          "indexed": false,
          "name": "tokenCount",
          "type": "uint256"
        }
      ],
      "name": "Burn",
      "type": "event"
    },
    {
      "anonymous": false,
      "inputs": [
        {
          "indexed": false,
          "name": "amount",
          "type": "uint256"
        }
      ],
      "name": "Drain",
      "type": "event"
    },
    {
      "anonymous": false,
      "inputs": [
        {
          "indexed": false,
          "name": "hasSunset",
          "type": "bool"
        }
      ],
      "name": "Sunset",
      "type": "event"
    }
  ],
  "bytecode": "0x6060604052600080556001600260006101000a81548160ff021916908315150217905550600060065560006007556000600a60006101000a81548160ff0219169083151502179055506000600a60016101000a81548160ff0219169083151502179055506103e8600b55655af3107a4000600c556001600d55612710600e5534156200008a57600080fd5b604051620018cd380380620018cd8339810160405280805190602001909190805182019190602001805190602001909190805190602001909190805190602001909190805190602001909190805190602001909190805190602001909190805190602001909190505088600860006101000a81548173ffffffffffffffffffffffffffffffffffffffff021916908373ffffffffffffffffffffffffffffffffffffffff16021790555087600990805190602001906200014c929190620002ce565b5086600a60006101000a81548160ff02191690831515021790555085600a60016101000a81548160ff02191690831515021790555084600b8190555083600c8190555082600d8190555081600e8190555080600581905550426003819055507f3c21ca11f997fb410582d3da35bcce2af5946a810a1cb48c4404293fd90c6b43600860009054906101000a900473ffffffffffffffffffffffffffffffffffffffff166009604051808373ffffffffffffffffffffffffffffffffffffffff1673ffffffffffffffffffffffffffffffffffffffff16815260200180602001828103825283818154600181600116156101000203166002900481526020019150805460018160011615610100020316600290048015620002b05780601f106200028457610100808354040283529160200191620002b0565b820191906000526020600020905b8154815290600101906020018083116200029257829003601f168201915b5050935050505060405180910390a15050505050505050506200037d565b828054600181600116156101000203166002900490600052602060002090601f016020900481019282601f106200031157805160ff191683800117855562000342565b8280016001018555821562000342579182015b828111156200034157825182559160200191906001019062000324565b5b50905062000351919062000355565b5090565b6200037a91905b80821115620003765760008160009055506001016200035c565b5090565b90565b611540806200038d6000396000f30060606040526004361061015f576000357c0100000000000000000000000000000000000000000000000000000000900463ffffffff168063031b3677146101695780630baf0375146101c85780630c3d5157146101f15780631dbf3bc71461021a5780631ea488701461023d5780632cecddc11461028e57806330f1deb9146102bb57806339b8dc401461030857806354fd4d50146103315780635896521b1461035a57806359afc278146103835780635b987a71146103ac5780636abf4d26146103f95780636f9fb98a1461042257806375d0c0dc1461044b578063893d20e8146104d9578063957aa58c1461052e578063962ffeae1461055b5780639c5ed3d6146105845780639dc29fac146105b1578063a6f2ae3a146105f3578063ba1de6c7146105fd578063d7d7714414610626578063e4849b321461064f578063e831574214610672578063f76e5c311461069b578063fa2e9db8146106c4575b6101676106ed565b005b341561017457600080fd5b6101a0600480803573ffffffffffffffffffffffffffffffffffffffff16906020019091905050610ac1565b6040518084151515158152602001838152602001828152602001935050505060405180910390f35b34156101d357600080fd5b6101db610af8565b6040518082815260200191505060405180910390f35b34156101fc57600080fd5b610204610afe565b6040518082815260200191505060405180910390f35b341561022557600080fd5b61023b6004808035906020019091905050610b04565b005b341561024857600080fd5b610274600480803573ffffffffffffffffffffffffffffffffffffffff16906020019091905050610c10565b604051808215151515815260200191505060405180910390f35b341561029957600080fd5b6102a1610c69565b604051808215151515815260200191505060405180910390f35b34156102c657600080fd5b6102f2600480803573ffffffffffffffffffffffffffffffffffffffff16906020019091905050610c7c565b6040518082815260200191505060405180910390f35b341561031357600080fd5b61031b610cc8565b6040518082815260200191505060405180910390f35b341561033c57600080fd5b610344610cce565b6040518082815260200191505060405180910390f35b341561036557600080fd5b61036d610cd4565b6040518082815260200191505060405180910390f35b341561038e57600080fd5b610396610cde565b6040518082815260200191505060405180910390f35b34156103b757600080fd5b6103e3600480803573ffffffffffffffffffffffffffffffffffffffff16906020019091905050610ce4565b6040518082815260200191505060405180910390f35b341561040457600080fd5b61040c610d30565b6040518082815260200191505060405180910390f35b341561042d57600080fd5b610435610d36565b6040518082815260200191505060405180910390f35b341561045657600080fd5b61045e610d55565b6040518080602001828103825283818151815260200191508051906020019080838360005b8381101561049e578082015181840152602081019050610483565b50505050905090810190601f1680156104cb5780820380516001836020036101000a031916815260200191505b509250505060405180910390f35b34156104e457600080fd5b6104ec610df3565b604051808273ffffffffffffffffffffffffffffffffffffffff1673ffffffffffffffffffffffffffffffffffffffff16815260200191505060405180910390f35b341561053957600080fd5b610541610e1d565b604051808215151515815260200191505060405180910390f35b341561056657600080fd5b61056e610e30565b6040518082815260200191505060405180910390f35b341561058f57600080fd5b610597610e36565b604051808215151515815260200191505060405180910390f35b34156105bc57600080fd5b6105f1600480803573ffffffffffffffffffffffffffffffffffffffff16906020019091908035906020019091905050610e49565b005b6105fb6106ed565b005b341561060857600080fd5b6106106110c6565b6040518082815260200191505060405180910390f35b341561063157600080fd5b6106396110cc565b6040518082815260200191505060405180910390f35b341561065a57600080fd5b610670600480803590602001909190505061110a565b005b341561067d57600080fd5b6106856113af565b6040518082815260200191505060405180910390f35b34156106a657600080fd5b6106ae6113b5565b6040518082815260200191505060405180910390f35b34156106cf57600080fd5b6106d7611421565b6040518082815260200191505060405180910390f35b6000806000600260009054906101000a900460ff16151561070d57600080fd5b600092506000915061071d6113b5565b90505b34610734828561142790919063ffffffff16565b101561079857600b546107528360065461142790919063ffffffff16565b10151561075e57600080fd5b610771818461142790919063ffffffff16565b925061078760018361142790919063ffffffff16565b91506107916113b5565b9050610720565b6000821115156107a757600080fd5b6107b033610c10565b151561086c5760606040519081016040528060011515815260200183815260200184815250600160003373ffffffffffffffffffffffffffffffffffffffff1673ffffffffffffffffffffffffffffffffffffffff16815260200190815260200160002060008201518160000160006101000a81548160ff0219169083151502179055506020820151816001015560408201518160020155905050610861600160075461142790919063ffffffff16565b6007819055506109a3565b6108c182600160003373ffffffffffffffffffffffffffffffffffffffff1673ffffffffffffffffffffffffffffffffffffffff1681526020019081526020016000206001015461142790919063ffffffff16565b600160003373ffffffffffffffffffffffffffffffffffffffff1673ffffffffffffffffffffffffffffffffffffffff1681526020019081526020016000206001018190555061095c83600160003373ffffffffffffffffffffffffffffffffffffffff1673ffffffffffffffffffffffffffffffffffffffff1681526020019081526020016000206002015461142790919063ffffffff16565b600160003373ffffffffffffffffffffffffffffffffffffffff1673ffffffffffffffffffffffffffffffffffffffff168152602001908152602001600020600201819055505b6109b88260065461142790919063ffffffff16565b60068190555060006109d3843461144590919063ffffffff16565b1115610a2c573373ffffffffffffffffffffffffffffffffffffffff166108fc610a06853461144590919063ffffffff16565b9081150290604051600060405180830381858888f193505050501515610a2b57600080fd5b5b3373ffffffffffffffffffffffffffffffffffffffff167fe3d4187f6ca4248660cc0ac8b8056515bac4a8132be2eca31d6d0cc170722a7e600160003373ffffffffffffffffffffffffffffffffffffffff1673ffffffffffffffffffffffffffffffffffffffff168152602001908152602001600020600101546040518082815260200191505060405180910390a2505050565b60016020528060005260406000206000915090508060000160009054906101000a900460ff16908060010154908060020154905083565b600c5481565b60035481565b600260009054906101000a900460ff161515610b1f57600080fd5b600860009054906101000a900473ffffffffffffffffffffffffffffffffffffffff1673ffffffffffffffffffffffffffffffffffffffff163373ffffffffffffffffffffffffffffffffffffffff16141515610b7b57600080fd5b600a60019054906101000a900460ff161515610b9657600080fd5b3373ffffffffffffffffffffffffffffffffffffffff166108fc829081150290604051600060405180830381858888f193505050501515610bd657600080fd5b7f7f36875e1aa63a260a86253b4178fbeb52d1d36819b47a29d15ec2a259e49efa816040518082815260200191505060405180910390a150565b6000600160008373ffffffffffffffffffffffffffffffffffffffff1673ffffffffffffffffffffffffffffffffffffffff16815260200190815260200160002060000160009054906101000a900460ff169050919050565b600a60009054906101000a900460ff1681565b6000600160008373ffffffffffffffffffffffffffffffffffffffff1673ffffffffffffffffffffffffffffffffffffffff168152602001908152602001600020600101549050919050565b60055481565b60005481565b6000600754905090565b600d5481565b6000600160008373ffffffffffffffffffffffffffffffffffffffff1673ffffffffffffffffffffffffffffffffffffffff168152602001908152602001600020600201549050919050565b600e5481565b60003073ffffffffffffffffffffffffffffffffffffffff1631905090565b60098054600181600116156101000203166002900480601f016020809104026020016040519081016040528092919081815260200182805460018160011615610100020316600290048015610deb5780601f10610dc057610100808354040283529160200191610deb565b820191906000526020600020905b815481529060010190602001808311610dce57829003601f168201915b505050505081565b6000600860009054906101000a900473ffffffffffffffffffffffffffffffffffffffff16905090565b600260009054906101000a900460ff1681565b60075481565b600a60019054906101000a900460ff1681565b600260009054906101000a900460ff161515610e6457600080fd5b600860009054906101000a900473ffffffffffffffffffffffffffffffffffffffff1673ffffffffffffffffffffffffffffffffffffffff163373ffffffffffffffffffffffffffffffffffffffff16141515610ec057600080fd5b600a60009054906101000a900460ff161515610edb57600080fd5b610ee482610c10565b1515610eef57600080fd5b610f4481600160008573ffffffffffffffffffffffffffffffffffffffff1673ffffffffffffffffffffffffffffffffffffffff1681526020019081526020016000206001015461144590919063ffffffff16565b600160008473ffffffffffffffffffffffffffffffffffffffff1673ffffffffffffffffffffffffffffffffffffffff168152602001908152602001600020600101819055506000600160008473ffffffffffffffffffffffffffffffffffffffff1673ffffffffffffffffffffffffffffffffffffffff16815260200190815260200160002060010154141561105857600160008373ffffffffffffffffffffffffffffffffffffffff1673ffffffffffffffffffffffffffffffffffffffff168152602001908152602001600020600080820160006101000a81549060ff0219169055600182016000905560028201600090555050611051600160075461144590919063ffffffff16565b6007819055505b61106d8160065461144590919063ffffffff16565b6006819055508173ffffffffffffffffffffffffffffffffffffffff167fcc16f5dbb4873280815c1ee09dbd06736cffcc184412cf7a71a0fdb75d397ca560016040518082815260200191505060405180910390a25050565b60065481565b60008060065414156110e15760009050611107565b6111043073ffffffffffffffffffffffffffffffffffffffff163160065461145e565b90505b90565b6000600260009054906101000a900460ff16151561112757600080fd5b61113033610c10565b151561113b57600080fd5b6111436110cc565b905061119a82600160003373ffffffffffffffffffffffffffffffffffffffff1673ffffffffffffffffffffffffffffffffffffffff1681526020019081526020016000206001015461144590919063ffffffff16565b600160003373ffffffffffffffffffffffffffffffffffffffff1673ffffffffffffffffffffffffffffffffffffffff168152602001908152602001600020600101819055506000600160003373ffffffffffffffffffffffffffffffffffffffff1673ffffffffffffffffffffffffffffffffffffffff1681526020019081526020016000206001015414156112ae57600160003373ffffffffffffffffffffffffffffffffffffffff1673ffffffffffffffffffffffffffffffffffffffff168152602001908152602001600020600080820160006101000a81549060ff02191690556001820160009055600282016000905550506112a7600160075461144590919063ffffffff16565b6007819055505b6112c38260065461144590919063ffffffff16565b6006819055503373ffffffffffffffffffffffffffffffffffffffff166108fc6112f6848461147990919063ffffffff16565b9081150290604051600060405180830381858888f19350505050151561131b57600080fd5b3373ffffffffffffffffffffffffffffffffffffffff167f5e5e995ce3133561afceaa51a9a154d5db228cd7525d34df5185582c18d3df09600160003373ffffffffffffffffffffffffffffffffffffffff1673ffffffffffffffffffffffffffffffffffffffff168152602001908152602001600020600101546040518082815260200191505060405180910390a25050565b600b5481565b60006001600d5414156113cc57600c54905061141e565b61141b6113fa6113e96103e860065461145e90919063ffffffff16565b600c5461147990919063ffffffff16565b61140d600c54600e5460065460026114ac565b61142790919063ffffffff16565b90505b90565b60045481565b600080828401905083811015151561143b57fe5b8091505092915050565b600082821115151561145357fe5b818303905092915050565b600080828481151561146c57fe5b0490508091505092915050565b6000808284029050600084148061149a575082848281151561149757fe5b04145b15156114a257fe5b8091505092915050565b60008060008060008093506001925060019150600090505b858110156115055780880a82848b028115156114dc57fe5b048115156114e657fe5b04840193508087038302925060018101820291508060010190506114c4565b839450505050509493505050505600a165627a7a72305820fddebfa90792ade031576c3928946f336eda505711b51f81604f47207cc0547c0029",
  "source": "pragma solidity 0.4.18;\nimport './SafeMath.sol';\n\ncontract Servesa {\n  using SafeMath for uint256;\n\n  uint public version = 0;\n\n  struct Funder {\n    bool exists;\n    uint tokenCount;\n    uint totalPurchasePrice;\n  }\n\n  mapping(address => Funder) public funders;\n\n  bool public live = true; // For sunsetting contract\n  uint public contractStartTime;\n  uint public sunsetWithdrawDate;\n  uint public sunsetWithdrawalPeriod;\n\n  uint public totalCurrentTokens = 0;\n  uint public totalCurrentFunders = 0;\n\n  address owner;\n  string public contractName;\n  bool public ownerCanBurn = false;\n  bool public ownerCanSpend = false;\n  uint public maxTokens = 1000;\n  uint public tokenBasePrice = 100000000000000;\n  uint public tokenPriceExponent = 1;\n  uint public tokenPriceExponentDivisor = 10000;\n\n  event NewContract(address ownerAddress, string contractName);\n  event Buy(address indexed funder, uint tokenCount);\n  event Sell(address indexed funder, uint tokenCount);\n  event Burn(address indexed funder, uint tokenCount);\n  event Drain(uint amount);\n  event Sunset(bool hasSunset);\n\n  function Servesa (\n    address ownerAddress,\n    string contractNameInit,\n    bool ownerCanBurnInit,\n    bool ownerCanSpendInit,\n    uint maxTokensInit,\n    uint tokenBasePriceInit,\n    uint tokenPriceExponentInit,\n    uint tokenPriceExponentDivisorInit,\n    uint sunsetWithdrawPeriodInit) public {\n\n    owner = ownerAddress;\n    contractName = contractNameInit;\n    ownerCanBurn = ownerCanBurnInit;\n    ownerCanSpend = ownerCanSpendInit;\n    maxTokens = maxTokensInit;\n    tokenBasePrice = tokenBasePriceInit;\n    tokenPriceExponent = tokenPriceExponentInit;\n    tokenPriceExponentDivisor = tokenPriceExponentDivisorInit;\n\n    sunsetWithdrawalPeriod = sunsetWithdrawPeriodInit;\n    contractStartTime = now;\n\n    NewContract(owner, contractName);\n  }\n\n  // Modifiers\n\n  // Lifecycle\n  modifier onlyWhenLive() {\n    require(live);\n    _;\n  }\n  modifier onlyWhenSunset() {\n    require(!live);\n    _;\n  }\n\n  // Auth\n  modifier onlyByOwner() {\n    require(msg.sender == owner);\n    _;\n  }\n  modifier onlyByFunder() {\n    require(isFunder(msg.sender));\n    _;\n  }\n\n  // Contract options\n  modifier canBurn() {\n    require(ownerCanBurn);\n    _;\n  }\n  modifier canSpend() {\n    require(ownerCanSpend);\n    _;\n  }\n  modifier belowMaxTokens() {\n    require(totalCurrentTokens < maxTokens);\n    _;\n  }\n\n  /*\n  * External accounts can pay directly to contract to fund it.\n  */\n  function () payable public {\n    buy();\n  }\n\n  /*\n  * Buy: exchange ETH for tokens\n  */\n  function buy() public payable onlyWhenLive {\n\n    // calculate purchase\n    uint totalCost = 0;\n    uint tokensToPurchase = 0;\n    uint nextTokenPrice = calculateNextBuyPrice();\n    while (totalCost.add(nextTokenPrice) < msg.value){\n\n        // dont allow orders that breach max token count\n        require(totalCurrentTokens.add(tokensToPurchase) < maxTokens);\n\n        // increase totalCost & tokensToPurchase\n        totalCost = totalCost.add(nextTokenPrice);\n        tokensToPurchase = tokensToPurchase.add(1);\n\n        // update nextTokenPrice\n        nextTokenPrice = calculateNextBuyPrice();\n    }\n\n    // check that sender sent enough to purchase at least one token\n    require(tokensToPurchase > 0);\n\n    // Update funders array\n    if(!isFunder(msg.sender)) {\n\n    //   add to funder map\n      funders[msg.sender] = Funder({\n        exists: true,\n        tokenCount: tokensToPurchase,\n        totalPurchasePrice: totalCost\n      });\n\n       // Increase total funder count\n      totalCurrentFunders = totalCurrentFunders.add(1);\n    }\n    else {\n      funders[msg.sender].tokenCount = funders[msg.sender].tokenCount.add(tokensToPurchase);\n      funders[msg.sender].totalPurchasePrice = funders[msg.sender].totalPurchasePrice.add(totalCost);\n    }\n\n    // increment total token count\n    totalCurrentTokens = totalCurrentTokens.add(tokensToPurchase);\n\n    // refund overage\n    if(msg.value.sub(totalCost) > 0){\n        msg.sender.transfer(msg.value.sub(totalCost));\n    }\n\n    // event\n    Buy(msg.sender, funders[msg.sender].tokenCount);\n  }\n\n  /*\n  * Sell: exchange tokens for ETH\n  */\n  function sell(uint tokenCount) public onlyWhenLive onlyByFunder {\n\n    uint amount = calculateNextSellPrice();\n\n    // decrease seller's token count\n    funders[msg.sender].tokenCount = funders[msg.sender].tokenCount.sub(tokenCount);\n\n    // remove founder if count == 0\n    if(funders[msg.sender].tokenCount == 0){\n        delete funders[msg.sender];\n        totalCurrentFunders = totalCurrentFunders.sub(1);\n    }\n\n    // decrement token count\n    totalCurrentTokens = totalCurrentTokens.sub(tokenCount);\n\n    // Interaction\n    msg.sender.transfer(amount.mul(tokenCount));\n\n    // event\n    Sell(msg.sender, funders[msg.sender].tokenCount);\n  }\n\n  /*\n  * Burn: delete tokens without affecting escrow balance\n  */\n  function burn(address addr, uint tokenCount) public onlyWhenLive onlyByOwner canBurn {\n\n    // addr must be funder\n    require(isFunder(addr));\n\n    // decrease targets's token count\n    funders[addr].tokenCount = funders[addr].tokenCount.sub(tokenCount);\n\n    // remove target if count == 0\n    if(funders[addr].tokenCount == 0){\n        delete funders[addr];\n        totalCurrentFunders = totalCurrentFunders.sub(1);\n    }\n\n    // decrement token count\n    totalCurrentTokens = totalCurrentTokens.sub(tokenCount);\n\n    // event\n    Burn(addr, 1);\n  }\n\n  /*\n  * Spend: remove balance\n  */\n  function spend(uint amount) public onlyWhenLive onlyByOwner canSpend {\n\n    // send amount from contract to owner\n    msg.sender.transfer(amount);\n\n    // event\n    Drain(amount);\n  }\n\n    // via: http://ethereum.stackexchange.com/questions/10425/is-there-any-efficient-way-to-compute-the-exponentiation-of-a-fraction-and-an-in/10432#10432\n    // Computes `k * (1+1/q) ^ N`, with precision `p`. The higher\n    // the precision, the higher the gas cost. It should be\n    // something around the log of `n`. When `p == n`, the\n    // precision is absolute (sans possible integer overflows).\n    // Much smaller values are sufficient to get a great approximation.\n    function fracExp(uint k, uint q, uint n, uint p) internal pure returns (uint) {\n      uint s = 0;\n      uint N = 1;\n      uint B = 1;\n      for (uint i = 0; i < p; ++i){\n        s += k * N / B / (q**i);\n        N  = N * (n-i);\n        B  = B * (i+1);\n      }\n      return s;\n    }\n\n  /*\n  * use pricing function to determine next share's 'buy' price\n  */\n  function calculateNextBuyPrice() public view returns (uint){\n\n    if(tokenPriceExponent == 1){\n        return tokenBasePrice;\n    } else {\n        return fracExp(tokenBasePrice, tokenPriceExponentDivisor, totalCurrentTokens, 2).add(tokenBasePrice.mul(totalCurrentTokens.div(1000)));\n    }\n  }\n\n  /*\n  * use pricing function to determine the current share 'sell' price\n  */\n  function calculateNextSellPrice() public view returns (uint){\n    if(totalCurrentTokens == 0){\n        return 0;\n    } else {\n        return SafeMath.div(this.balance, totalCurrentTokens);\n    }\n  }\n\n  // Getter functions\n  function getOwner() public view returns (address) {\n    return owner;\n  }\n\n  function getCurrentTotalFunders() public constant returns (uint) {\n    return totalCurrentFunders;\n  }\n\n  function getContractBalance() public constant returns (uint256 balance) {\n    balance = this.balance;\n  }\n\n  function isFunder(address addr) public constant returns (bool) {\n    return funders[addr].exists;\n  }\n\n  function getFunderTokens(address addr) public constant returns (uint256) {\n    return funders[addr].tokenCount;\n  }\n\n  function getFunderPurchase(address addr) public constant returns (uint256) {\n    return funders[addr].totalPurchasePrice;\n  }\n\n}\n",
  "sourcePath": "/Users/mattlovan/Projects/notLinkedIn/contracts/Servesa.sol",
  "compiler": {
    "name": "solc",
    "version": "0.4.18+commit.9cf6e910.Emscripten.clang"
  },
  "schemaVersion": "1.0.1",
  "updatedAt": "2017-12-05T18:56:03.271Z"
}