{
  "contractName": "Servesa",
  "abi": [
    {
      "constant": true,
      "inputs": [
        {
          "name": "",
          "type": "address"
        }
      ],
      "name": "funders",
      "outputs": [
        {
          "name": "exists",
          "type": "bool"
        },
        {
          "name": "tokenCount",
          "type": "uint256"
        },
        {
          "name": "totalPurchasePrice",
          "type": "uint256"
        }
      ],
      "payable": false,
      "stateMutability": "view",
      "type": "function"
    },
    {
      "constant": true,
      "inputs": [],
      "name": "tokenBasePrice",
      "outputs": [
        {
          "name": "",
          "type": "uint256"
        }
      ],
      "payable": false,
      "stateMutability": "view",
      "type": "function"
    },
    {
      "constant": true,
      "inputs": [],
      "name": "contractStartTime",
      "outputs": [
        {
          "name": "",
          "type": "uint256"
        }
      ],
      "payable": false,
      "stateMutability": "view",
      "type": "function"
    },
    {
      "constant": false,
      "inputs": [
        {
          "name": "amount",
          "type": "uint256"
        }
      ],
      "name": "spend",
      "outputs": [],
      "payable": false,
      "stateMutability": "nonpayable",
      "type": "function"
    },
    {
      "constant": true,
      "inputs": [
        {
          "name": "addr",
          "type": "address"
        }
      ],
      "name": "isFunder",
      "outputs": [
        {
          "name": "",
          "type": "bool"
        }
      ],
      "payable": false,
      "stateMutability": "view",
      "type": "function"
    },
    {
      "constant": true,
      "inputs": [],
      "name": "ownerCanBurn",
      "outputs": [
        {
          "name": "",
          "type": "bool"
        }
      ],
      "payable": false,
      "stateMutability": "view",
      "type": "function"
    },
    {
      "constant": true,
      "inputs": [
        {
          "name": "addr",
          "type": "address"
        }
      ],
      "name": "getFunderTokens",
      "outputs": [
        {
          "name": "",
          "type": "uint256"
        }
      ],
      "payable": false,
      "stateMutability": "view",
      "type": "function"
    },
    {
      "constant": true,
      "inputs": [],
      "name": "sunsetWithdrawalPeriod",
      "outputs": [
        {
          "name": "",
          "type": "uint256"
        }
      ],
      "payable": false,
      "stateMutability": "view",
      "type": "function"
    },
    {
      "constant": true,
      "inputs": [],
      "name": "version",
      "outputs": [
        {
          "name": "",
          "type": "uint256"
        }
      ],
      "payable": false,
      "stateMutability": "view",
      "type": "function"
    },
    {
      "constant": true,
      "inputs": [],
      "name": "tokenPriceLinearDivisor",
      "outputs": [
        {
          "name": "",
          "type": "uint256"
        }
      ],
      "payable": false,
      "stateMutability": "view",
      "type": "function"
    },
    {
      "constant": true,
      "inputs": [],
      "name": "getCurrentTotalFunders",
      "outputs": [
        {
          "name": "",
          "type": "uint256"
        }
      ],
      "payable": false,
      "stateMutability": "view",
      "type": "function"
    },
    {
      "constant": true,
      "inputs": [],
      "name": "contractAvatarUrl",
      "outputs": [
        {
          "name": "",
          "type": "string"
        }
      ],
      "payable": false,
      "stateMutability": "view",
      "type": "function"
    },
    {
      "constant": true,
      "inputs": [],
      "name": "tokenPriceExponent",
      "outputs": [
        {
          "name": "",
          "type": "uint256"
        }
      ],
      "payable": false,
      "stateMutability": "view",
      "type": "function"
    },
    {
      "constant": true,
      "inputs": [
        {
          "name": "addr",
          "type": "address"
        }
      ],
      "name": "getFunderPurchase",
      "outputs": [
        {
          "name": "",
          "type": "uint256"
        }
      ],
      "payable": false,
      "stateMutability": "view",
      "type": "function"
    },
    {
      "constant": true,
      "inputs": [],
      "name": "tokenPriceExponentDivisor",
      "outputs": [
        {
          "name": "",
          "type": "uint256"
        }
      ],
      "payable": false,
      "stateMutability": "view",
      "type": "function"
    },
    {
      "constant": true,
      "inputs": [],
      "name": "getContractBalance",
      "outputs": [
        {
          "name": "balance",
          "type": "uint256"
        }
      ],
      "payable": false,
      "stateMutability": "view",
      "type": "function"
    },
    {
      "constant": true,
      "inputs": [],
      "name": "contractName",
      "outputs": [
        {
          "name": "",
          "type": "string"
        }
      ],
      "payable": false,
      "stateMutability": "view",
      "type": "function"
    },
    {
      "constant": true,
      "inputs": [],
      "name": "getOwner",
      "outputs": [
        {
          "name": "",
          "type": "address"
        }
      ],
      "payable": false,
      "stateMutability": "view",
      "type": "function"
    },
    {
      "constant": true,
      "inputs": [],
      "name": "live",
      "outputs": [
        {
          "name": "",
          "type": "bool"
        }
      ],
      "payable": false,
      "stateMutability": "view",
      "type": "function"
    },
    {
      "constant": true,
      "inputs": [],
      "name": "totalCurrentFunders",
      "outputs": [
        {
          "name": "",
          "type": "uint256"
        }
      ],
      "payable": false,
      "stateMutability": "view",
      "type": "function"
    },
    {
      "constant": true,
      "inputs": [],
      "name": "ownerCanSpend",
      "outputs": [
        {
          "name": "",
          "type": "bool"
        }
      ],
      "payable": false,
      "stateMutability": "view",
      "type": "function"
    },
    {
      "constant": false,
      "inputs": [
        {
          "name": "burnAddress",
          "type": "address"
        },
        {
          "name": "tokenCount",
          "type": "uint256"
        }
      ],
      "name": "burn",
      "outputs": [],
      "payable": false,
      "stateMutability": "nonpayable",
      "type": "function"
    },
    {
      "constant": false,
      "inputs": [],
      "name": "buy",
      "outputs": [],
      "payable": true,
      "stateMutability": "payable",
      "type": "function"
    },
    {
      "constant": true,
      "inputs": [],
      "name": "totalCurrentTokens",
      "outputs": [
        {
          "name": "",
          "type": "uint256"
        }
      ],
      "payable": false,
      "stateMutability": "view",
      "type": "function"
    },
    {
      "constant": true,
      "inputs": [],
      "name": "calculateNextSellPrice",
      "outputs": [
        {
          "name": "",
          "type": "uint256"
        }
      ],
      "payable": false,
      "stateMutability": "view",
      "type": "function"
    },
    {
      "constant": false,
      "inputs": [
        {
          "name": "tokenCount",
          "type": "uint256"
        }
      ],
      "name": "sell",
      "outputs": [],
      "payable": false,
      "stateMutability": "nonpayable",
      "type": "function"
    },
    {
      "constant": true,
      "inputs": [],
      "name": "maxTokens",
      "outputs": [
        {
          "name": "",
          "type": "uint256"
        }
      ],
      "payable": false,
      "stateMutability": "view",
      "type": "function"
    },
    {
      "constant": true,
      "inputs": [],
      "name": "calculateNextBuyPrice",
      "outputs": [
        {
          "name": "",
          "type": "uint256"
        }
      ],
      "payable": false,
      "stateMutability": "view",
      "type": "function"
    },
    {
      "constant": true,
      "inputs": [],
      "name": "sunsetWithdrawDate",
      "outputs": [
        {
          "name": "",
          "type": "uint256"
        }
      ],
      "payable": false,
      "stateMutability": "view",
      "type": "function"
    },
    {
      "inputs": [
        {
          "name": "ownerAddress",
          "type": "address"
        },
        {
          "name": "contractNameInit",
          "type": "string"
        },
        {
          "name": "contractAvatarUrlInit",
          "type": "string"
        },
        {
          "name": "ownerCanBurnInit",
          "type": "bool"
        },
        {
          "name": "ownerCanSpendInit",
          "type": "bool"
        },
        {
          "name": "maxTokensInit",
          "type": "uint256"
        },
        {
          "name": "tokenBasePriceInit",
          "type": "uint256"
        },
        {
          "name": "tokenPriceExponentDivisorInit",
          "type": "uint256"
        },
        {
          "name": "tokenPriceLinearDivisorInit",
          "type": "uint256"
        },
        {
          "name": "sunsetWithdrawPeriodInit",
          "type": "uint256"
        }
      ],
      "payable": false,
      "stateMutability": "nonpayable",
      "type": "constructor"
    },
    {
      "payable": true,
      "stateMutability": "payable",
      "type": "fallback"
    },
    {
      "anonymous": false,
      "inputs": [
        {
          "indexed": false,
          "name": "ownerAddress",
          "type": "address"
        },
        {
          "indexed": false,
          "name": "contractName",
          "type": "string"
        }
      ],
      "name": "NewContract",
      "type": "event"
    },
    {
      "anonymous": false,
      "inputs": [
        {
          "indexed": true,
          "name": "funder",
          "type": "address"
        },
        {
          "indexed": false,
          "name": "tokenCount",
          "type": "uint256"
        }
      ],
      "name": "Buy",
      "type": "event"
    },
    {
      "anonymous": false,
      "inputs": [
        {
          "indexed": true,
          "name": "funder",
          "type": "address"
        },
        {
          "indexed": false,
          "name": "tokenCount",
          "type": "uint256"
        }
      ],
      "name": "Sell",
      "type": "event"
    },
    {
      "anonymous": false,
      "inputs": [
        {
          "indexed": true,
          "name": "funder",
          "type": "address"
        },
        {
          "indexed": false,
          "name": "tokenCount",
          "type": "uint256"
        }
      ],
      "name": "Burn",
      "type": "event"
    },
    {
      "anonymous": false,
      "inputs": [
        {
          "indexed": false,
          "name": "amount",
          "type": "uint256"
        }
      ],
      "name": "Drain",
      "type": "event"
    },
    {
      "anonymous": false,
      "inputs": [
        {
          "indexed": false,
          "name": "hasSunset",
          "type": "bool"
        }
      ],
      "name": "Sunset",
      "type": "event"
    },
    {
      "anonymous": false,
      "inputs": [
        {
          "indexed": false,
          "name": "sender",
          "type": "address"
        },
        {
          "indexed": false,
          "name": "amount",
          "type": "uint256"
        }
      ],
      "name": "FallbackEvent",
      "type": "event"
    }
  ],
  "bytecode": "0x6060604052600080556001600260006101000a81548160ff021916908315150217905550600060065560006007556000600b60006101000a81548160ff0219169083151502179055506000600b60016101000a81548160ff0219169083151502179055506103e8600c55655af3107a4000600d556001600e55612710600f556103e860105534156200009057600080fd5b60405162001ae438038062001ae48339810160405280805190602001909190805182019190602001805182019190602001805190602001909190805190602001909190805190602001909190805190602001909190805190602001909190805190602001909190805190602001909190505089600860006101000a81548173ffffffffffffffffffffffffffffffffffffffff021916908373ffffffffffffffffffffffffffffffffffffffff16021790555088600990805190602001906200015b929190620002f7565b5087600a908051906020019062000174929190620002f7565b5086600b60006101000a81548160ff02191690831515021790555085600b60016101000a81548160ff02191690831515021790555084600c8190555083600d8190555082600f819055508160108190555080600581905550426003819055507f3c21ca11f997fb410582d3da35bcce2af5946a810a1cb48c4404293fd90c6b43600860009054906101000a900473ffffffffffffffffffffffffffffffffffffffff166009604051808373ffffffffffffffffffffffffffffffffffffffff1673ffffffffffffffffffffffffffffffffffffffff16815260200180602001828103825283818154600181600116156101000203166002900481526020019150805460018160011615610100020316600290048015620002d85780601f10620002ac57610100808354040283529160200191620002d8565b820191906000526020600020905b815481529060010190602001808311620002ba57829003601f168201915b5050935050505060405180910390a150505050505050505050620003a6565b828054600181600116156101000203166002900490600052602060002090601f016020900481019282601f106200033a57805160ff19168380011785556200036b565b828001600101855582156200036b579182015b828111156200036a5782518255916020019190600101906200034d565b5b5090506200037a91906200037e565b5090565b620003a391905b808211156200039f57600081600090555060010162000385565b5090565b90565b61172e80620003b66000396000f300606060405260043610610175576000357c0100000000000000000000000000000000000000000000000000000000900463ffffffff168063031b3677146101e25780630baf0375146102415780630c3d51571461026a5780631dbf3bc7146102935780631ea48870146102b65780632cecddc11461030757806330f1deb91461033457806339b8dc401461038157806354fd4d50146103aa57806355134bf7146103d35780635896521b146103fc57806358a6575c1461042557806359afc278146104b35780635b987a71146104dc5780636abf4d26146105295780636f9fb98a1461055257806375d0c0dc1461057b578063893d20e814610609578063957aa58c1461065e578063962ffeae1461068b5780639c5ed3d6146106b45780639dc29fac146106e1578063a6f2ae3a14610723578063ba1de6c71461072d578063d7d7714414610756578063e4849b321461077f578063e8315742146107a2578063f76e5c31146107cb578063fa2e9db8146107f4575b7f26875833861a2b006512a11f1b86edf95df96131040f3caeed72989ee98580833334604051808373ffffffffffffffffffffffffffffffffffffffff1673ffffffffffffffffffffffffffffffffffffffff1681526020018281526020019250505060405180910390a1005b34156101ed57600080fd5b610219600480803573ffffffffffffffffffffffffffffffffffffffff1690602001909190505061081d565b6040518084151515158152602001838152602001828152602001935050505060405180910390f35b341561024c57600080fd5b610254610854565b6040518082815260200191505060405180910390f35b341561027557600080fd5b61027d61085a565b6040518082815260200191505060405180910390f35b341561029e57600080fd5b6102b46004808035906020019091905050610860565b005b34156102c157600080fd5b6102ed600480803573ffffffffffffffffffffffffffffffffffffffff1690602001909190505061096c565b604051808215151515815260200191505060405180910390f35b341561031257600080fd5b61031a6109c5565b604051808215151515815260200191505060405180910390f35b341561033f57600080fd5b61036b600480803573ffffffffffffffffffffffffffffffffffffffff169060200190919050506109d8565b6040518082815260200191505060405180910390f35b341561038c57600080fd5b610394610a24565b6040518082815260200191505060405180910390f35b34156103b557600080fd5b6103bd610a2a565b6040518082815260200191505060405180910390f35b34156103de57600080fd5b6103e6610a30565b6040518082815260200191505060405180910390f35b341561040757600080fd5b61040f610a36565b6040518082815260200191505060405180910390f35b341561043057600080fd5b610438610a40565b6040518080602001828103825283818151815260200191508051906020019080838360005b8381101561047857808201518184015260208101905061045d565b50505050905090810190601f1680156104a55780820380516001836020036101000a031916815260200191505b509250505060405180910390f35b34156104be57600080fd5b6104c6610ade565b6040518082815260200191505060405180910390f35b34156104e757600080fd5b610513600480803573ffffffffffffffffffffffffffffffffffffffff16906020019091905050610ae4565b6040518082815260200191505060405180910390f35b341561053457600080fd5b61053c610b30565b6040518082815260200191505060405180910390f35b341561055d57600080fd5b610565610b36565b6040518082815260200191505060405180910390f35b341561058657600080fd5b61058e610b55565b6040518080602001828103825283818151815260200191508051906020019080838360005b838110156105ce5780820151818401526020810190506105b3565b50505050905090810190601f1680156105fb5780820380516001836020036101000a031916815260200191505b509250505060405180910390f35b341561061457600080fd5b61061c610bf3565b604051808273ffffffffffffffffffffffffffffffffffffffff1673ffffffffffffffffffffffffffffffffffffffff16815260200191505060405180910390f35b341561066957600080fd5b610671610c1d565b604051808215151515815260200191505060405180910390f35b341561069657600080fd5b61069e610c30565b6040518082815260200191505060405180910390f35b34156106bf57600080fd5b6106c7610c36565b604051808215151515815260200191505060405180910390f35b34156106ec57600080fd5b610721600480803573ffffffffffffffffffffffffffffffffffffffff16906020019091908035906020019091905050610c49565b005b61072b610ec5565b005b341561073857600080fd5b6107406112b4565b6040518082815260200191505060405180910390f35b341561076157600080fd5b6107696112ba565b6040518082815260200191505060405180910390f35b341561078a57600080fd5b6107a060048080359060200190919050506112f8565b005b34156107ad57600080fd5b6107b561159d565b6040518082815260200191505060405180910390f35b34156107d657600080fd5b6107de6115a3565b6040518082815260200191505060405180910390f35b34156107ff57600080fd5b61080761160f565b6040518082815260200191505060405180910390f35b60016020528060005260406000206000915090508060000160009054906101000a900460ff16908060010154908060020154905083565b600d5481565b60035481565b600260009054906101000a900460ff16151561087b57600080fd5b600860009054906101000a900473ffffffffffffffffffffffffffffffffffffffff1673ffffffffffffffffffffffffffffffffffffffff163373ffffffffffffffffffffffffffffffffffffffff161415156108d757600080fd5b600b60019054906101000a900460ff1615156108f257600080fd5b3373ffffffffffffffffffffffffffffffffffffffff166108fc829081150290604051600060405180830381858888f19350505050151561093257600080fd5b7f7f36875e1aa63a260a86253b4178fbeb52d1d36819b47a29d15ec2a259e49efa816040518082815260200191505060405180910390a150565b6000600160008373ffffffffffffffffffffffffffffffffffffffff1673ffffffffffffffffffffffffffffffffffffffff16815260200190815260200160002060000160009054906101000a900460ff169050919050565b600b60009054906101000a900460ff1681565b6000600160008373ffffffffffffffffffffffffffffffffffffffff1673ffffffffffffffffffffffffffffffffffffffff168152602001908152602001600020600101549050919050565b60055481565b60005481565b60105481565b6000600754905090565b600a8054600181600116156101000203166002900480601f016020809104026020016040519081016040528092919081815260200182805460018160011615610100020316600290048015610ad65780601f10610aab57610100808354040283529160200191610ad6565b820191906000526020600020905b815481529060010190602001808311610ab957829003601f168201915b505050505081565b600e5481565b6000600160008373ffffffffffffffffffffffffffffffffffffffff1673ffffffffffffffffffffffffffffffffffffffff168152602001908152602001600020600201549050919050565b600f5481565b60003073ffffffffffffffffffffffffffffffffffffffff1631905090565b60098054600181600116156101000203166002900480601f016020809104026020016040519081016040528092919081815260200182805460018160011615610100020316600290048015610beb5780601f10610bc057610100808354040283529160200191610beb565b820191906000526020600020905b815481529060010190602001808311610bce57829003601f168201915b505050505081565b6000600860009054906101000a900473ffffffffffffffffffffffffffffffffffffffff16905090565b600260009054906101000a900460ff1681565b60075481565b600b60019054906101000a900460ff1681565b600260009054906101000a900460ff161515610c6457600080fd5b600860009054906101000a900473ffffffffffffffffffffffffffffffffffffffff1673ffffffffffffffffffffffffffffffffffffffff163373ffffffffffffffffffffffffffffffffffffffff16141515610cc057600080fd5b600b60009054906101000a900460ff161515610cdb57600080fd5b610ce48261096c565b1515610cef57600080fd5b610d4481600160008573ffffffffffffffffffffffffffffffffffffffff1673ffffffffffffffffffffffffffffffffffffffff1681526020019081526020016000206001015461161590919063ffffffff16565b600160008473ffffffffffffffffffffffffffffffffffffffff1673ffffffffffffffffffffffffffffffffffffffff168152602001908152602001600020600101819055506000600160008473ffffffffffffffffffffffffffffffffffffffff1673ffffffffffffffffffffffffffffffffffffffff168152602001908152602001600020600101541415610e5857600160008373ffffffffffffffffffffffffffffffffffffffff1673ffffffffffffffffffffffffffffffffffffffff168152602001908152602001600020600080820160006101000a81549060ff0219169055600182016000905560028201600090555050610e51600160075461161590919063ffffffff16565b6007819055505b610e6d8160065461161590919063ffffffff16565b6006819055508173ffffffffffffffffffffffffffffffffffffffff167fcc16f5dbb4873280815c1ee09dbd06736cffcc184412cf7a71a0fdb75d397ca5826040518082815260200191505060405180910390a25050565b6000806000600260009054906101000a900460ff161515610ee557600080fd5b600034111515610ef457600080fd5b610efc6115a3565b92508234111515610f0c57600080fd5b60009150600090505b34610f29848461162e90919063ffffffff16565b108015610f4c5750600c54610f498260065461162e90919063ffffffff16565b11155b15610f8b57610f64838361162e90919063ffffffff16565b9150610f7a60018261162e90919063ffffffff16565b9050610f846115a3565b9250610f15565b600081111515610f9a57600080fd5b610fa33361096c565b151561105f5760606040519081016040528060011515815260200182815260200183815250600160003373ffffffffffffffffffffffffffffffffffffffff1673ffffffffffffffffffffffffffffffffffffffff16815260200190815260200160002060008201518160000160006101000a81548160ff0219169083151502179055506020820151816001015560408201518160020155905050611054600160075461162e90919063ffffffff16565b600781905550611196565b6110b481600160003373ffffffffffffffffffffffffffffffffffffffff1673ffffffffffffffffffffffffffffffffffffffff1681526020019081526020016000206001015461162e90919063ffffffff16565b600160003373ffffffffffffffffffffffffffffffffffffffff1673ffffffffffffffffffffffffffffffffffffffff1681526020019081526020016000206001018190555061114f82600160003373ffffffffffffffffffffffffffffffffffffffff1673ffffffffffffffffffffffffffffffffffffffff1681526020019081526020016000206002015461162e90919063ffffffff16565b600160003373ffffffffffffffffffffffffffffffffffffffff1673ffffffffffffffffffffffffffffffffffffffff168152602001908152602001600020600201819055505b6111ab8160065461162e90919063ffffffff16565b60068190555060006111c6833461161590919063ffffffff16565b111561121f573373ffffffffffffffffffffffffffffffffffffffff166108fc6111f9843461161590919063ffffffff16565b9081150290604051600060405180830381858888f19350505050151561121e57600080fd5b5b3373ffffffffffffffffffffffffffffffffffffffff167fe3d4187f6ca4248660cc0ac8b8056515bac4a8132be2eca31d6d0cc170722a7e600160003373ffffffffffffffffffffffffffffffffffffffff1673ffffffffffffffffffffffffffffffffffffffff168152602001908152602001600020600101546040518082815260200191505060405180910390a2505050565b60065481565b60008060065414156112cf57600090506112f5565b6112f23073ffffffffffffffffffffffffffffffffffffffff163160065461164c565b90505b90565b6000600260009054906101000a900460ff16151561131557600080fd5b61131e3361096c565b151561132957600080fd5b6113316112ba565b905061138882600160003373ffffffffffffffffffffffffffffffffffffffff1673ffffffffffffffffffffffffffffffffffffffff1681526020019081526020016000206001015461161590919063ffffffff16565b600160003373ffffffffffffffffffffffffffffffffffffffff1673ffffffffffffffffffffffffffffffffffffffff168152602001908152602001600020600101819055506000600160003373ffffffffffffffffffffffffffffffffffffffff1673ffffffffffffffffffffffffffffffffffffffff16815260200190815260200160002060010154141561149c57600160003373ffffffffffffffffffffffffffffffffffffffff1673ffffffffffffffffffffffffffffffffffffffff168152602001908152602001600020600080820160006101000a81549060ff0219169055600182016000905560028201600090555050611495600160075461161590919063ffffffff16565b6007819055505b6114b18260065461161590919063ffffffff16565b6006819055503373ffffffffffffffffffffffffffffffffffffffff166108fc6114e4848461166790919063ffffffff16565b9081150290604051600060405180830381858888f19350505050151561150957600080fd5b3373ffffffffffffffffffffffffffffffffffffffff167f5e5e995ce3133561afceaa51a9a154d5db228cd7525d34df5185582c18d3df09600160003373ffffffffffffffffffffffffffffffffffffffff1673ffffffffffffffffffffffffffffffffffffffff168152602001908152602001600020600101546040518082815260200191505060405180910390a25050565b600c5481565b60006001600e5414156115ba57600d54905061160c565b6116096115e86115d760105460065461164c90919063ffffffff16565b600d5461166790919063ffffffff16565b6115fb600d54600f54600654600261169a565b61162e90919063ffffffff16565b90505b90565b60045481565b600082821115151561162357fe5b818303905092915050565b600080828401905083811015151561164257fe5b8091505092915050565b600080828481151561165a57fe5b0490508091505092915050565b60008082840290506000841480611688575082848281151561168557fe5b04145b151561169057fe5b8091505092915050565b60008060008060008093506001925060019150600090505b858110156116f35780880a82848b028115156116ca57fe5b048115156116d457fe5b04840193508087038302925060018101820291508060010190506116b2565b839450505050509493505050505600a165627a7a7230582020da903978a1aa97fb8ec635b6072ca634fc900a670606c10317a2f6dfaee6990029",
  "source": "pragma solidity 0.4.18;\nimport './SafeMath.sol';\n\ncontract Servesa {\n  using SafeMath for uint256;\n\n  uint public version = 0;\n\n  struct Funder {\n    bool exists;\n    uint tokenCount;\n    uint totalPurchasePrice;\n  }\n\n  mapping(address => Funder) public funders;\n\n  bool public live = true; // For sunsetting contract\n  uint public contractStartTime;\n  uint public sunsetWithdrawDate;\n  uint public sunsetWithdrawalPeriod;\n\n  uint public totalCurrentTokens = 0;\n  uint public totalCurrentFunders = 0;\n\n  address owner;\n  string public contractName;\n  string public contractAvatarUrl;\n  bool public ownerCanBurn = false;\n  bool public ownerCanSpend = false;\n  uint public maxTokens = 1000;\n  uint public tokenBasePrice = 100000000000000;\n  uint public tokenPriceExponent = 1;\n  uint public tokenPriceExponentDivisor = 10000;\n  uint public tokenPriceLinearDivisor = 1000;\n\n  event NewContract(address ownerAddress, string contractName);\n  event Buy(address indexed funder, uint tokenCount);\n  event Sell(address indexed funder, uint tokenCount);\n  event Burn(address indexed funder, uint tokenCount);\n  event Drain(uint amount);\n  event Sunset(bool hasSunset);\n  event FallbackEvent(address sender, uint amount);\n\n  function Servesa (\n    address ownerAddress,\n    string contractNameInit,\n    string contractAvatarUrlInit,\n    bool ownerCanBurnInit,\n    bool ownerCanSpendInit,\n    uint maxTokensInit,\n    uint tokenBasePriceInit,\n    uint tokenPriceExponentDivisorInit,\n    uint tokenPriceLinearDivisorInit,\n    uint sunsetWithdrawPeriodInit) public {\n\n    owner = ownerAddress;\n    contractName = contractNameInit;\n    contractAvatarUrl = contractAvatarUrlInit;\n    ownerCanBurn = ownerCanBurnInit;\n    ownerCanSpend = ownerCanSpendInit;\n    maxTokens = maxTokensInit;\n\n    tokenBasePrice = tokenBasePriceInit;\n    tokenPriceExponentDivisor = tokenPriceExponentDivisorInit;\n    tokenPriceLinearDivisor = tokenPriceLinearDivisorInit;\n\n    sunsetWithdrawalPeriod = sunsetWithdrawPeriodInit;\n    contractStartTime = now;\n\n    NewContract(owner, contractName);\n  }\n\n  // Modifiers\n\n  // Lifecycle\n  modifier onlyWhenLive() {\n    require(live);\n    _;\n  }\n  modifier onlyWhenSunset() {\n    require(!live);\n    _;\n  }\n\n  // Auth\n  modifier onlyByOwner() {\n    require(msg.sender == owner);\n    _;\n  }\n  modifier onlyByFunder() {\n    require(isFunder(msg.sender));\n    _;\n  }\n\n  // Contract options\n  modifier canBurn() {\n    require(ownerCanBurn);\n    _;\n  }\n  modifier canSpend() {\n    require(ownerCanSpend);\n    _;\n  }\n  modifier belowMaxTokens() {\n    require(totalCurrentTokens < maxTokens);\n    _;\n  }\n\n  /*\n  * External accounts can pay directly to contract - bonus!\n  */\n  function () payable public {\n    FallbackEvent(msg.sender, msg.value);\n  }\n\n  /*\n  * Buy: exchange ETH for tokens\n  */\n  function buy() public payable onlyWhenLive {\n\n    // validate that enought value was sent\n    require(msg.value > 0);\n\n    // get token price\n    uint nextTokenPrice = calculateNextBuyPrice();\n\n    // validate that enought value was sent for at least one token\n    require(msg.value > nextTokenPrice);\n\n    // loop through calc purchase\n    uint totalCost = 0;\n    uint tokensToPurchase = 0;\n    while (totalCost.add(nextTokenPrice) < msg.value && totalCurrentTokens.add(tokensToPurchase) <= maxTokens){\n\n        // increase totalCost & tokensToPurchase\n        totalCost = totalCost.add(nextTokenPrice);\n        tokensToPurchase = tokensToPurchase.add(1);\n\n        // update nextTokenPrice\n        nextTokenPrice = calculateNextBuyPrice();\n    }\n\n    // check that sender sent enough value to purchase at least one token\n    require(tokensToPurchase > 0);\n\n    // Update funders array\n    if(!isFunder(msg.sender)) {\n\n    //   add to funder map\n      funders[msg.sender] = Funder({\n        exists: true,\n        tokenCount: tokensToPurchase,\n        totalPurchasePrice: totalCost\n      });\n\n       // Increase total funder count\n      totalCurrentFunders = totalCurrentFunders.add(1);\n    }\n    else {\n      funders[msg.sender].tokenCount = funders[msg.sender].tokenCount.add(tokensToPurchase);\n      funders[msg.sender].totalPurchasePrice = funders[msg.sender].totalPurchasePrice.add(totalCost);\n    }\n\n    // increment total token count\n    totalCurrentTokens = totalCurrentTokens.add(tokensToPurchase);\n\n    // refund overage\n    if(msg.value.sub(totalCost) > 0){\n        msg.sender.transfer(msg.value.sub(totalCost));\n    }\n\n    // event\n    Buy(msg.sender, funders[msg.sender].tokenCount);\n  }\n\n  /*\n  * Sell: exchange tokens for ETH\n  */\n  function sell(uint tokenCount) public onlyWhenLive onlyByFunder {\n\n    uint amount = calculateNextSellPrice();\n\n    // decrease seller's token count\n    funders[msg.sender].tokenCount = funders[msg.sender].tokenCount.sub(tokenCount);\n\n    // remove founder if count == 0\n    if(funders[msg.sender].tokenCount == 0){\n        delete funders[msg.sender];\n        totalCurrentFunders = totalCurrentFunders.sub(1);\n    }\n\n    // decrement token count\n    totalCurrentTokens = totalCurrentTokens.sub(tokenCount);\n\n    // Interaction\n    msg.sender.transfer(amount.mul(tokenCount));\n\n    // event\n    Sell(msg.sender, funders[msg.sender].tokenCount);\n  }\n\n  /*\n  * Burn: delete tokens without affecting escrow balance\n  */\n  function burn(address burnAddress, uint tokenCount) public onlyWhenLive onlyByOwner canBurn {\n\n    // addr must be funder\n    require(isFunder(burnAddress));\n\n    // decrease targets's token count\n    funders[burnAddress].tokenCount = funders[burnAddress].tokenCount.sub(tokenCount);\n\n    // remove target if count == 0\n    if(funders[burnAddress].tokenCount == 0){\n        delete funders[burnAddress];\n        totalCurrentFunders = totalCurrentFunders.sub(1);\n    }\n\n    // decrement token count\n    totalCurrentTokens = totalCurrentTokens.sub(tokenCount);\n\n    // event\n    Burn(burnAddress, tokenCount);\n  }\n\n  /*\n  * Spend: remove balance\n  */\n  function spend(uint amount) public onlyWhenLive onlyByOwner canSpend {\n\n    // send amount from contract to owner\n    msg.sender.transfer(amount);\n\n    // event\n    Drain(amount);\n  }\n\n    // via: http://ethereum.stackexchange.com/questions/10425/is-there-any-efficient-way-to-compute-the-exponentiation-of-a-fraction-and-an-in/10432#10432\n    // Computes `k * (1+1/q) ^ N`, with precision `p`. The higher\n    // the precision, the higher the gas cost. It should be\n    // something around the log of `n`. When `p == n`, the\n    // precision is absolute (sans possible integer overflows).\n    // Much smaller values are sufficient to get a great approximation.\n    function fracExp(uint k, uint q, uint n, uint p) internal pure returns (uint) {\n      uint s = 0;\n      uint N = 1;\n      uint B = 1;\n      for (uint i = 0; i < p; ++i){\n        s += k * N / B / (q**i);\n        N  = N * (n-i);\n        B  = B * (i+1);\n      }\n      return s;\n    }\n\n  /*\n  * use pricing function to determine next share's 'buy' price\n  */\n  function calculateNextBuyPrice() public view returns (uint){\n\n    if(tokenPriceExponent == 1){\n        return tokenBasePrice;\n    } else {\n        return fracExp(tokenBasePrice, tokenPriceExponentDivisor, totalCurrentTokens, 2).add(tokenBasePrice.mul(totalCurrentTokens.div(tokenPriceLinearDivisor)));\n    }\n  }\n\n  /*\n  * use pricing function to determine the current share 'sell' price\n  */\n  function calculateNextSellPrice() public view returns (uint){\n    if(totalCurrentTokens == 0){\n        return 0;\n    } else {\n        return SafeMath.div(this.balance, totalCurrentTokens);\n    }\n  }\n\n  // Getter functions\n  function getOwner() public view returns (address) {\n    return owner;\n  }\n\n  function getCurrentTotalFunders() public constant returns (uint) {\n    return totalCurrentFunders;\n  }\n\n  function getContractBalance() public constant returns (uint256 balance) {\n    balance = this.balance;\n  }\n\n  function isFunder(address addr) public constant returns (bool) {\n    return funders[addr].exists;\n  }\n\n  function getFunderTokens(address addr) public constant returns (uint256) {\n    return funders[addr].tokenCount;\n  }\n\n  function getFunderPurchase(address addr) public constant returns (uint256) {\n    return funders[addr].totalPurchasePrice;\n  }\n\n}\n",
  "sourcePath": "/Users/mattlovan/Projects/notLinkedIn/contracts/Servesa.sol",
  "compiler": {
    "name": "solc",
    "version": "0.4.18+commit.9cf6e910.Emscripten.clang"
  },
  "schemaVersion": "1.0.1",
  "updatedAt": "2018-01-15T17:24:49.211Z"
}